:060000000A128A11F02F24
:100C920000300A128A117D260A128A1101300A12C4
:100CA2008A117D2608007E088A007F088200542669
:100CB2000A128A118000840A04087D06031900348E
:100CC200FF0A0319FE0A582EF000701C6B2E8312C5
:100CD20006166D2E83120612F01C712E8616722EC7
:100CE2008612701D762E0617772E0613F01D7B2EA8
:100CF2008617080086130800F300831203130610F8
:100D020073080A128A1165260A128A1106151A3008
:100D1200F200F830F100F10B8C2EF20B8C2E000059
:100D220083120313061108005434483449345334EF
:100D320020344934533420345534503445344E34FD
:100D42004434523441340034483445344C344C3405
:100D52004F342134213421342134213421340034DC
:100D6200A200A001A10120082207FD007D08840045
:100D7200831300080319080020082207FD007D08DC
:100D8200840000080A128A11CF260A128A11013041
:100D9200A0070318A10A0030A107B42EF4007408BA
:100DA2000F39F1007108F2007408F039F10071088E
:100DB200F30006147308F10004300310F10CFF3E37
:100DC200031DDE2E71080A128A1165260A128A1183
:100DD2000615061172080A128A11652606150611F1
:100DE2000800F7007703031D172F74087F3EF500F4
:100DF2007508FA007A08F50004300310F50CFF3E7E
:100E0200031DFE2E7508F6007608F8007A080F39E1
:100E1200F5007508F90078080A128A117D260A126F
:100E22008A1179080A128A117D2608000230770693
:100E3200031D08007408BF3EF5007508FA007A0821
:100E4200F50004300310F50CFF3E031D232F750837
:100E5200F6007608F8007A080F39F5007508F900EF
:100E620078080A128A117D260A128A1179080A1252
:100E72008A117D26080000300A128A1165260A129C
:100E82008A1103300A128A117D260A128A11213030
:100E9200F5007630F400F40B4C2FF50B4C2F0000CC
:100EA20003300A128A117D260A128A114830F5008F
:100EB2006C30F400F40B5B2FF50B5B2F000003305A
:100EC2000A128A117D260A128A1102300A128A1126
:100ED2007D260A128A1102300A128A117D260A120E
:100EE2008A1108300A128A117D260A128A110030EC
:100EF2000A128A117D260A128A110C300A128A11EC
:100F02007D260A128A1100300A128A117D260A12DF
:100F12008A1106300A128A117D2608003B308400AD
:100F22005730A7000408A8000C30A9002708840045
:100F320083130008AA00A70A280884002A08800050
:100F4200A80AA90B972F2B3084004730A70004086A
:100F5200A8001030A9002708840083130008AA0003
:100F6200A70A280884002A088000A80AA90BAC2F27
:100F7200831686010A128A113C270A128A110A1262
:100F82008A1149260A128A11F401F40A01300A125E
:100F92008A11F2260A128A113B300A128A11B126EC
:100FA2000A128A11F401F40A02300A128A11F22694
:100FB2000A128A112B300A128A11B1260A128A11D8
:100FC200083083120313A9009D30A8000530A70042
:100FD200A70BE92FA80BE92FA90BE92FC02F831329
:100FE2006330FD000630FE009530FF00473084007C
:0E0FF2000A128A11582683010A128A118F2FC3
:02400E003A3F37
:00000001FF
