:020000040000FA
:060000000A128A11FC2F18
:100EA000F201F30173087102031D582F72087002DA
:100EB000031C0800F401F5010130F4070318F50ADA
:100EC0000030F5077508803AFF0084307F02031D6B
:100ED0006B2FFC307402031C5C2F0130F2070318E7
:100EE000F30A0030F307522F8316031386010330F1
:100EF0008800C030831203138600C830F000003031
:100F0000F1000A128A1150270A128A11F93083124D
:100F100003138600C830F0000030F1000A128A1175
:100F200050270A128A11A430831203138600C83096
:100F3000F0000030F1000A128A1150270A128A11BB
:100F4000B030831203138600C830F0000030F10087
:100F50000A128A1150270A128A1199308312031338
:100F60008600C830F0000030F1000A128A115027C4
:100F70000A128A119230831203138600C830F000DF
:100F80000030F1000A128A1150270A128A118230A9
:100F9000831203138600C830F0000030F1000A12FB
:100FA0008A1150270A128A11F8308312031386001F
:100FB000C830F0000030F1000A128A1150270A12DE
:100FC0008A118030831203138600C830F00000308D
:100FD000F1000A128A1150270A128A1190308312E6
:100FE00003138600C830F0000030F1000A128A11A5
:100FF00050270A128A11792F83010A128A11742F3D
:02400E003A3F37
:00000001FF
