:020000040000FA
:060000000A128A11EC2F28
:10001800F501F6017008710403194328F701F70A7E
:10002800F11B222801300310F00DF10DFF3E031DD6
:1000380017280130F4007408F7071428013003105A
:10004800F50DF60DFF3E031D232871087302031DED
:100058002F2870087202031C38287008F2027108F1
:10006800031CF303F302751401300310F10CF00CB8
:10007800FF3E031D39280130F702031D22287608A8
:10008800F1007508F000080003132308D1002208C6
:10009800D0002108CF002008CE0083160317670878
:1000A80083120313A300831603176608831203132E
:1000B800A20083160317650883120313A100831691
:1000C8000317640883120313A000831603175B0841
:1000D80083120313A700831603175A088312031306
:1000E800A60083160317590883120313A500831665
:1000F8000317580883120313A4000A168A113E2313
:100108000A128A11831203132308D5002208D40087
:100118002108D3002008D2000A128A15EB240A12FB
:100128008A1183120313510883160313ED008312F7
:100138000313500883160313EC00831203134F08AC
:1001480083160313EB00831203134E08831603135D
:10015800EA0083160317630883120313A3008316A8
:100168000317620883120313A2008316031761089A
:1001780083120313A1008316031760088312031365
:10018800A00083160317570883120313A7008316CA
:100198000317560883120313A6008316031755087E
:1001A80083120313A500831603175408831203133D
:1001B800A4000A168A113E230A128A118312031315
:1001C8002308D1002208D0002108CF002008CE0043
:1001D80083160317630883120313A30083160317F8
:1001E800620883120313A20083160317610883129F
:1001F8000313A10083160317600883120313A000DA
:1002080083160317570883120313A70083160317CF
:10021800560883120313A600831603175508831282
:100228000313A50083160317540883120313A400AD
:100238000A168A113E230A128A118312031323080D
:10024800D5002208D4002108D3002008D2000A12C1
:100258008A15EB240A128A11831203135108831694
:100268000317A70083120313500883160317A60069
:10027800831203134F0883160317A5008312031371
:100288004E0883160317A400831603136D08831200
:100298000313A300831603136C0883120313A2002D
:1002A800831603136B0883120313A1008316031329
:1002B8006A0883120313A000831603172708831202
:1002C8000313A70083160317260883120313A60037
:1002D80083160317250883120313A5008316031733
:1002E800240883120313A4000A168A113E230A1253
:1002F8008A1183120313230883160317AB00831292
:100308000313220883160317AA0083120313210874
:1003180083160317A90083120313200883160317F3
:10032800A8005F0883120313D100831603175E0821
:1003380083120313D000831603175D088312031377
:10034800CF00831603175C0883120313CE008316AD
:1003580003175F0883120313D500831603175E087B
:1003680083120313D400831603175D088312031343
:10037800D300831603175C0883120313D2000A12F2
:100388008A15EB240A128A11831203135108A30059
:100398005008A2004F08A1004E08A00083160317BA
:1003A8002B0883120313A700831603172A08831246
:1003B8000313A60083160317290883120313A50045
:1003C80083160317280883120313A4000A168A1138
:1003D8003E230A128A118312031323088316031378
:1003E800A30083120313220883160313A2008312A7
:1003F8000313210883160313A10083120313200893
:1004080083160313A0000A128A1535200A128A11CE
:1004180083160313230883160317AF0083160313E9
:10042800220883160317AE008316031321088316C8
:100438000317AD0083160313200883160317AC00B7
:100448003F3083120313A3008030A2000030A100C4
:100458000030A000831603172F0883120313A70088
:10046800831603172E0883120313A6008316031797
:100478002D0883120313A500831603172C08831273
:100488000313A4000A168A113E230A128A11831242
:100498000313230883160317EF008312031322089C
:1004A80083160317EE00831203132108831603171C
:1004B800ED0083120313200883160317EC006F085E
:1004C80083120313B700831603176E0883120313EE
:1004D800B600831603176D0883120313B50083163D
:1004E80003176C0883120313B40083160317570805
:1004F80083120313BB0083160317560883120313D2
:10050800BA0083160317550883120313B90083161C
:100518000317540883120313B8000A168A119B2183
:100528000A128A1183120313370883120317A700CC
:1005380083120313360883120317A60083120313CA
:10054800350883120317A500831203133408831296
:100558000317A400270883160313D900831203176F
:10056800260883160313D800831203172508831659
:100578000313D70083120317240883160313D60026
:100588000A168A157A250A128A118316031359083E
:1005980083120317AB00831603135808831203173B
:1005A800AA0083160313570883120317A90083169A
:1005B8000313560883120317A8004230831203134B
:1005C800D1006530D0002830CF00F630CE0083123D
:1005D80003172B0883120313D500831203172A0865
:1005E80083120313D40083120317290883120313F9
:1005F800D30083120317280883120313D2000A12A8
:100608008A15EB240A128A118312031351088316E0
:100618000317BB0083120313500883160317BA008D
:10062800831203134F0883160317B90083120313A9
:100638004E0883160317B8006F0883120313B70018
:10064800831603176E0883120313B6008316031765
:100658006D0883120313B500831603176C08831201
:100668000313B400831603175B0883120313BB003C
:10067800831603175A0883120313BA008316031745
:10068800590883120313B9008316031758088312F5
:100698000313B8000A168A119B210A128A118312C1
:1006A8000313370883120317A700831203133608AE
:1006B80083120317A6008312031335088312031746
:1006C800A50083120313340883120317A400270814
:1006D80083160313D90083120317260883160313FE
:1006E800D80083120317250883160313D700831233
:1006F8000317240883160313D6000A168A157A25C9
:100708000A128A1183160313590883120317AB00C0
:1007180083160313580883120317AA0083160313BA
:10072800570883120317A900831603135608831268
:100738000317A800423083120313D1006530D0009C
:100748002830CF00F630CE00831203172B0883120F
:100758000313D500831203172A0883120313D40046
:1007680083120317290883120313D3008312031774
:10077800280883120313D2000A128A15EB240A12DE
:100788008A1183120313510883160317BF008312BB
:100798000313500883160317BE00831203134F0870
:1007A80083160317BD00831203134E08831603171D
:1007B800BC006F0883120313B700831603176E0873
:1007C80083120313B600831603176D0883120313ED
:1007D800B500831603176C0883120313B40083163D
:1007E80003175F0883120313BB00831603175E0801
:1007F80083120313BA00831603175D0883120313C9
:10080800B900831603175C0883120313B8000A168D
:100818008A119B210A128A11831203133708831243
:100828000317A70083120313360883120317A600C1
:1008380083120313350883120317A50083120313C9
:10084800340883120317A400270883160313D9005A
:1008580083120317260883160313D800831203177D
:10086800250883160313D700831203172408831659
:100878000313D6000A168A157A250A128A118316D6
:100888000313590883120317AB0083160313580880
:1008980083120317AA00831603135708831203173A
:1008A800A90083160313560883120317A8004230C1
:1008B80083120313D1006530D0002830CF00F63002
:1008C800CE00831203172B0883120313D50083125B
:1008D80003172A0883120313D40083120317290865
:1008E80083120313D30083120317280883120313F8
:1008F800D2000A128A15EB240A128A1183120313F2
:10090800510883160317C300831203135008831674
:100918000317C200831203134F0883160317C1007D
:10092800831203134E0883160317C0006F0883123F
:100938000313B700831603176E0883120313B60058
:10094800831603176D0883120313B5008316031764
:100958006C0883120313B400831603176308831209
:100968000313BB0083160317620883120313BA002C
:1009780083160317610883120313B900831603173C
:10098800600883120313B8000A168A119B210A1201
:100998008A1183120313370883120317A7008312DF
:1009A8000313360883120317A600831203133508AE
:1009B80083120317A5008312031334088312031745
:1009C800A400270883160313D900831203172608E7
:1009D80083160313D80083120317250883160313FD
:1009E800D70083120317240883160313D6000A16A8
:1009F8008A157A250A128A11831603135908831255
:100A08000317AB0083160313580883120317AA00B1
:100A180083160313570883120317A90083160313B9
:100A2800560883120317A800423083120313D1001B
:100A38006530D0002830CF00F630CE00831203177F
:100A48002B0883120313D500831203172A08831275
:100A58000313D40083120317290883120313D30046
:100A680083120317280883120313D2000A128A1567
:100A7800EB240A128A1183120313510883160317F1
:100A8800C70083120313500883160317C600831286
:100A980003134F0883160317C500831203134E0868
:100AA80083160317C4006F0883120313B700831655
:100AB80003176E0883120313B600831603176D0815
:100AC80083120313B500831603176C0883120313EC
:100AD800B40083160317670883120313BB00831639
:100AE8000317660883120313BA00831603176508F1
:100AF80083120313B90083160317640883120313C0
:100B0800B8000A168A119B210A128A11831203134C
:100B1800370883120317A7008312031336088312BA
:100B28000317A60083120313350883120317A500C1
:100B380083120313340883120317A40027088316AB
:100B48000313D90083120317260883160313D8004A
:100B580083120317250883160313D700831203177C
:100B6800240883160313D6000A168A157A250A1252
:100B78008A1183160313590883120317AB008316CF
:100B88000313580883120317AA0083160313570880
:100B980083120317A9008316031356088312031739
:100BA800A800423083120313D1006530D0002830EA
:100BB800CF00F630CE00831203172B0883120313DD
:100BC800D500831203172A0883120313D400831253
:100BD8000317290883120313D30083120317280865
:100BE80083120313D2000A128A15EB240A128A11FF
:100BF80083120313510883160317CB0083120313C0
:100C0800500883160317CA00831203134F0883166C
:100C18000317C900831203134E0883160317C8006D
:100C2800EA01EB01831603176A0883160313DE0033
:100C380001300310DE0DFF3E031D1D2E03105E0D57
:100C4800B83E840083170008F000840A0008F10009
:100C5800840A0008F200840A0008F3000A168A15BC
:100C6800CD250A128A11710883160317E900700846
:100C7800E8006808F5006908F600F701F801003097
:100C88000A168A155B270A128A1178088312031339
:100C9800EB007708EA007608E9007508E800831693
:100CA80003176A0883160313DE0001300310DE0DF4
:100CB800FF3E031D5A2E03105E0DB83E84008317B5
:100CC800000883120313EC00840A0008ED00840A6C
:100CD8000008EE00840A0008EF000A168A1540246E
:100CE8000A128A11831203136B0883160313E9008F
:100CF800831203136A0883160313E800831203138D
:100D0800690883160313E700831203136808831620
:100D18000313E6006908F3006808F2006708F100A9
:100D28006608F0000A168A15CD250A128A1171087C
:100D380083120313A1007008A0006430A2000030E1
:100D4800A3000A168A1562240A128A118312031351
:100D5800210883160317D300831203132008831670
:100D68000317D2000A30F0000030F1006908F300E0
:100D78006808F2000A168A15FE240A128A117108F8
:100D880083160317B1007008B0000A30F000003075
:100D9800F1006908F3006808F2000A128A110C20B1
:100DA8000A128A11710883160317CF007008CE0043
:100DB8000A30F0000030F1004F08F3004E08F2004E
:100DC8000A168A15FE240A128A1171088316031757
:100DD800B3007008B2000A30F0000030F1004F088C
:100DE800F3004E08F2000A128A110C200A128A1126
:100DF800710883160313E3007008E2000A30F0005C
:100E08000030F100831603175308F3005208F2006C
:100E18000A168A15FE240A128A1171088316031706
:100E2800B5007008B4000A30F0000030F100530833
:100E3800F3005208F2000A128A110C200A128A11D1
:100E4800710883160317D1007008D0000A30F0002B
:100E58000030F1005108F3005008F2000A168A1514
:100E6800FE240A128A11710883160317B700700846
:100E7800B6000A30F0000030F1005108F3005008C5
:100E8800F2000A128A110C200A128A1171088316BC
:100E98000313E5007008E400831603173608831669
:100EA8000313DE005E07903E840083170008831258
:100EB8000313880007140D3083160313E000AF30C6
:100EC800DF00B530DE00DE0B672FDF0B672FE00B8E
:100ED800672F6E2F83120313071083160317340826
:100EE80083160313DE005E07903E84008317000814
:100EF800831203138800881787140D308316031391
:100F0800E000AF30DF00B530DE00DE0B892FDF0BED
:100F1800892FE00B892F902F8312031387108316D4
:100F28000317320883160313DE005E07903E840021
:100F38008317000883120313880007150D308316E2
:100F48000313E000AF30DF00B530DE00DE0BAA2F60
:100F5800DF0BAA2FE00BAA2FB12F8312031307115F
:100F680083160317300883160313DE005E07903ECE
:100F780084008317000883120313880087150D3037
:100F880083160313E000AF30DF00B530DE00DE0B60
:100F9800CB2FDF0BCB2FE00BCB2FD22F83120313DA
:100FA8008711013083160317EA070318EB0A00308C
:100FB800EB076B08803AFF0080307F02031DE62FA5
:100FC80005306A020318E92F162E0A168A15652EAF
:100FD80083172430FD001C30FE002C30FF00103039
:100FE80084000A168A151F2483120317AC01AD0169
:100FF80083010A168A15382E08308A000408840AE4
:101008008207003406343C34043442347D349F343F
:101018006A3442345C3490340134423460344D34A0
:10102800BB3440345134EC3447343E34DE348D34F0
:101038001F34BB3406343C3404344234C03459348D
:101048008B3442347434043444344234F9349B3499
:0C1058004F3441340034003480343F3405
:10106A008316031323088039A4002408A800230840
:10107A00A4002407A5002508AE00A21B2E142E08E2
:10108A00A400A5012408B3002508B400FF302005F8
:10109A00B900FF302105BA007F302205BB000030BD
:1010AA002305BC003308340403196028BB17330A2C
:1010BA003404031D68280030BC000030BB00003037
:1010CA00BA000030B90033083404031D7528003013
:1010DA00A3000030A2000030A1000030A0000800E8
:1010EA002808031995280030B8004030B7000030AE
:1010FA00B6000030B5008030B704FF30B8042130A4
:10110A0083120317AC000030AD00831603133808AE
:10111A00A3003708A2003608A1003508A00008007D
:10112A00330A3404031DAA287F30B8008030B70080
:10113A000030B6000030B5003808A3003708A20016
:10114A003608A1003508A00008008130B30703184B
:10115A00B40AFF30B40733080139A4002408AE00EA
:10116A000130FF00340DB40CB30CFF0BB7287F30ED
:10117A00B3070318B40A0030B4070310390DAA00E4
:10118A003A0DAB003B0DAC003C0DAD000030BC008D
:10119A000030BB000030BA000030B9000130B200A4
:1011AA000030B1000030B0000030AF002E08031943
:1011BA00E7280130A4000310AA0DAB0DAC0DAD0D4C
:1011CA00A40BE028A9011930290203185E292F0867
:1011DA00B9043008BA043108BB043208BC043C081C
:1011EA002D02031D02293B082C02031D02293A087D
:1011FA002B02031D022939082A02031C2729390850
:10120A00AA023A08031C3A0FAB023B08031C3B0F25
:10121A00AC023C08031C3C0FAD022F08B90730088A
:10122A0003110318013E031DBA07310803110318FD
:10123A00013E031DBB07320803110318013E031DBB
:10124A00BC0737292F09A4003009A5003109A600D7
:10125A003209A7002408B9052508BA052608BB05DE
:10126A002708BC052F08A4003008A5003108A600ED
:10127A003208A70001300310A70CA60CA50CA40C79
:10128A00FF3E031D40292708B2002608B1002508A1
:10129A00B0002408AF000130A4000310AA0DAB0D62
:1012AA00AC0DAD0DA40B52290130A4002408A907E6
:1012BA00E8283908A4003A08A5003B08A6003C081B
:1012CA00A70001300310A70CA60CA50CA40CFF3E26
:1012DA00031D67292708BC002608BB002508BA0099
:1012EA002408B90001303905AF0000303A05B000D2
:1012FA0000303B05B10000303C05B2003908A400BB
:10130A003A08A5003B08A6003C08A70001300310D4
:10131A00A70CA60CA50CA40CFF3E031D8C292708BC
:10132A00BC002608BB002508BA002408B9002F080B
:10133A00B907300803110318013E031DBA07310823
:10134A0003110318013E031DBB07320803110318DA
:10135A00013E031DBC073C1CD1293908A4003A08E8
:10136A00A5003B08A6003C08A70001300310A70C03
:10137A00A60CA50CA40CFF3E031DBB292708BC0024
:10138A002608BB002508BA002408B9000130B307B3
:10139A000318B40A0030B407FF303905B500FF302E
:1013AA003A05B6007F303B05B70000303C05B8006F
:1013BA003308A4002408AE002E18B7172E08A4007C
:1013CA000310240CA5002508B8007F30A4002408C7
:1013DA00B8053808A3003708A2003608A100350866
:1013EA00A000080083160313410883120313B700F1
:1013FA0083160313400883120313B60083160313DC
:10140A003F0883120313B500831603133E088312A1
:10141A000313B4000A168A15CD240A128A158312F8
:10142A000313370883160313C900831203133608FC
:10143A0083160313C8008312031335088316031394
:10144A00C70083120313340883160313C6003F3000
:10145A00F3008030F2000030F1000030F00049085B
:10146A00F7004808F6004708F5004608F4000A168F
:10147A008A15C8260A128A150318542A213083129B
:10148A000317AC000030AD00003083160313C1000F
:10149A000030C0000030BF000030BE0008008316D4
:1014AA000313410883120313D10083160313400860
:1014BA0083120313D000831603133F088312031306
:1014CA00CF00831603133E0883120313CE0083163C
:1014DA000313410883120313D5008316031340082C
:1014EA0083120313D400831603133F0883120313D2
:1014FA00D300831603133E0883120313D2000A1281
:10150A008A15EB240A128A15831203135108EB0079
:10151A005008EA004F08E9004E08E8003F30EF00A3
:10152A008030EE000030ED000030EC000A168A151B
:10153A0040240A128A15831203136B0883160313B5
:10154A00A300831203136A0883160313A2008312EB
:10155A000313690883160313A1008312031368088F
:10156A0083160313A0000A128A1535200A128A1557
:10157A00831603132308D1002208D0002108CF00C4
:10158A002008CE00410883120313B7008316031301
:10159A00400883120313B600831603133F0883120D
:1015AA000313B500831603133E0883120313B40012
:1015BA000A168A15CD240A128A15831203133708CC
:1015CA0083160313C9008312031336088316031301
:1015DA00C80083120313350883160313C700831246
:1015EA000313340883160313C6004908F300480896
:1015FA00F2004708F1004608F0003F30F7003530A6
:10160A00F600C230F5008F30F4000A168A15C82693
:10161A000A128A150318742B8316031351088312AE
:10162A000313B70083160313500883120313B6007B
:10163A00831603134F0883120313B500831603138B
:10164A004E0883120313B40083160313410883124E
:10165A000313BB0083160313400883120313BA0053
:10166A00831603133F0883120313B9008316031367
:10167A003E0883120313B8000A168A119B210A1224
:10168A008A1583120313370883160313D5008312AE
:10169A000313360883160313D40083120313350881
:1016AA0083160313D3008312031334088316031318
:1016BA00D2005508AC005408AB005308AA005208DF
:1016CA00A9000A168A117525831603132C08C1006E
:1016DA002B08C0002A08BF002908BE00080083168C
:1016EA0003134108F3004008F2003F08F1003E08E6
:1016FA00F0000030F7000030F6000030F50000304E
:10170A00F4000A168A15C8260A128A1503184D2CDF
:10171A0083160313510883120313B30083160313AA
:10172A00500883120313B200831603134F0883125F
:10173A000313B100831603134E0883120313B00078
:10174A000A168A1510240A128A15831203133308FB
:10175A00BB003208BA003108B9003008B800831655
:10176A000313410883120313B700831603134008B7
:10177A0083120313B600831603133F08831203135D
:10178A00B500831603133E0883120313B4000A1626
:10179A008A119B210A128A158312031337088316AA
:1017AA000313D50083120313360883160313D400D8
:1017BA0083120313350883160313D300831203130A
:1017CA00340883160313D2005508AC005408AB0042
:1017DA005308AA005208A9000A168A1175250A1286
:1017EA008A15831603132C08CD002B08CC002A086F
:1017FA00CB002908CA003F3083120313EF00C93017
:10180A00EE000F30ED00DB30EC00831603134D08B9
:10181A0083120313EB00831603134C08831203137A
:10182A00EA00831603134B0883120313E900831695
:10183A0003134A0883120313E8000A168A15402480
:10184A000A128A15831203136B08B3006A08B200DE
:10185A006908B1006808B0000A168A1510248312B4
:10186A000313330883160313C100831203133208C8
:10187A0083160313C000831203133108831603135C
:10188A00BF0083120313300883160313BE00080037
:10189A0083160313410883120313B7008316031335
:1018AA00400883120313B600831603133F088312FA
:1018BA000313B500831603133E0883120313B400FF
:1018CA0083160313510883120313BB0083160313F1
:1018DA00500883120313BA00831603134F088312A6
:1018EA000313B900831603134E0883120313B800B7
:1018FA000A168A119B210A128A15831203133708C2
:10190A0083160313D50083120313360883160313B1
:10191A00D40083120313350883160313D3008312EA
:10192A000313340883160313D2005508AC00540875
:10193A00AB005308AA005208A9000A168A11752595
:10194A000A128A15831603132C08CD002B08CC0023
:10195A002A08CB002908CA004D0883120313EB009A
:10196A00831603134C0883120313EA008316031326
:10197A004B0883120313E900831603134A088312E0
:10198A000313E8003F30EF00C930EE000F30ED00DE
:10199A00DB30EC000A168A154024831203136B0805
:1019AA0083160313C100831203136A0883160313F1
:1019BA00C00083120313690883160313BF0083123E
:1019CA000313680883160313BE0008008312031367
:1019DA0051088039D6005608DB005108D600560750
:1019EA00D7005708E100D01B6114610803190A2DBA
:1019FA00610A031D082D0030D1000030D0000030EC
:101A0A00CF000030CE00D017122D0030D1000030A8
:101A1A00D0000030CF000030CE0055088039D60003
:101A2A005608DB065508D6005607D7005708E000C7
:101A3A00D41B6014600803192F2D600A031D2D2D75
:101A4A000030D5000030D4000030D3000030D2007E
:101A5A00D417372D0030D5000030D4000030D30021
:101A6A000030D2006008031D6108031D452D0030B7
:101A7A00D1000030D0000030CF000030CE00080086
:101A8A004E08D6005608F00054080A168A1585240E
:101A9A000A128A15710883120313E7007008E60018
:101AAA006608D600D701D801D9015908DF005808BD
:101ABA00DE005708DD005608DC006708D600D701AB
:101ACA00D801D9015908E5005808E4005708E3008D
:101ADA005608E2004F08D6005608F00053080A16C6
:101AEA008A1585240A128A15710883120313E700DE
:101AFA007008E6006608D600D701D801D901560851
:101B0A00DC07570803110318013E031DDD075808B7
:101B1A0003110318013E031DDE07590803110318B8
:101B2A00013E031DDF076708D600D701D801D90196
:101B3A005608E207570803110318013E031DE3077D
:101B4A00580803110318013E031DE407590803113D
:101B5A000318013E031DE5075008D6005608F00099
:101B6A0052080A168A1585240A128A1571088312E0
:101B7A000313E7007008E6006608D600D701D8010B
:101B8A00D9015608DC07570803110318013E031D43
:101B9A00DD07580803110318013E031DDE07590823
:101BAA0003110318013E031DDF076708D600D7019A
:101BBA00D801D9015608E207570803110318013E54
:101BCA00031DE307580803110318013E031DE40728
:101BDA00590803110318013E031DE5070830D60012
:101BEA000310DC0DDD0DDE0DDF0DD60BF52D4F08D4
:101BFA00D6005608F00052080A168A1585240A12D9
:101C0A008A15710883120313E7007008E600660854
:101C1A00D6006708D700D801D9015608DC0757084B
:101C2A0003110318013E031DDD07580803110318A9
:101C3A00013E031DDE07590803110318013E031D67
:101C4A00DF074E08D6005608F00053080A168A1510
:101C5A0085240A128A15710883120313E700700893
:101C6A00E6006608D6006708D700D801D9015608E9
:101C7A00DC07570803110318013E031DDD07580846
:101C8A0003110318013E031DDE0759080311031847
:101C9A00013E031DDF070830D6000310DC0DDD0D01
:101CAA00DE0DDF0DD60B522E4E08D6005608F00078
:101CBA0052080A168A1585240A128A15710883128F
:101CCA000313E7007008E6006608D6006708D70025
:101CDA00D801D9015608DC07570803110318013E39
:101CEA00031DDD07580803110318013E031DDE0713
:101CFA00590803110318013E031DDF074F08D600D8
:101D0A005608F00054080A168A1585240A128A15FC
:101D1A00710883120313E7007008E6006608D6000C
:101D2A006708D700D801D9015608E20757080311F6
:101D3A000318013E031DE307580803110318013E67
:101D4A00031DE407590803110318013E031DE507A3
:101D5A005008D6005608F00053080A168A1585243A
:101D6A000A128A15710883120313E7007008E60045
:101D7A006608D6006708D700D801D9015608E207D5
:101D8A00570803110318013E031DE30758080311FE
:101D9A000318013E031DE407590803110318013E05
:101DAA00031DE5075008D6005608F00054080A1625
:101DBA008A1585240A128A15710883120313E7000B
:101DCA007008E6006608D6006708D700D801D9016E
:101DDA0008300310D60DD70DD80DD90DFF3E031DBF
:101DEA00EE2E5608E207570803110318013E031D99
:101DFA00E307580803110318013E031DE4075908B5
:101E0A0003110318013E031DE5075C08D6005D08AF
:101E1A00D7005E08D8005F08D90018300310D90C23
:101E2A00D80CD70CD60CFF3E031D132F5608E20719
:101E3A00570803110318013E031DE307580803114D
:101E4A000318013E031DE407590803110318013E54
:101E5A00031DE5070830D6000310DC0DDD0DDE0D8D
:101E6A00DF0DD60B312F61086007D600D701D70DD9
:101E7A005608823EE60057080318013EFF3EE70077
:101E8A00E41B622F0130D6000310E20DE30DE40DCE
:101E9A00E50DD60B492FDF1B62140130D600031063
:101EAA00DC0DDD0DDE0DDF0DD60B542FFF30E607FE
:101EBA000318E70AFF30E707452FE001DF1F7B2FF2
:101ECA00FF305C05D600FF305D05D700FF305E05A8
:101EDA00D8007F305F05D9005908580457045604C2
:101EEA0003196218792F7B2FE001E00A60080319B1
:101EFA00AD2F0130E207003003180130E30700304C
:101F0A0003180130E407003003180130E507651CA7
:101F1A00AD2F6208D6006308D7006408D8006508A8
:101F2A00D9000130DA00590DD90CD80CD70CD60CCF
:101F3A00DA0B982F5908E5005808E4005708E3001F
:101F4A005608E2000130E6070318E70A0030E707FF
:101F5A006708803AFF0080307F02031DB62FFF30EA
:101F6A006602031CC32F7F3083120313E5008030FF
:101F7A00E4000030E3000030E200F32F8312031381
:101F8A006708803AFF0080307F02031DCE2F0130A0
:101F9A0066020318DC2F003083120313E5000030B9
:101FAA00E4000030E3000030E200DB01F32F83128B
:101FBA0003136608D6005608E100FF30E205FF3039
:101FCA00E3057F30E4050030E5056118E417610890
:101FDA00D6000310560CD7005708E5005B08D60058
:101FEA005608E5046508D1006408D0006308CF00EC
:101FFA006208CE0008008030831203139F008030ED
:10200A00831603139F00831203131F1408008316F9
:10201A000313DE007108DF00E001E1016108F80046
:10202A006008F7005F08F6005E08F50000300A163F
:10203A008A155B270A168A11780883160317DF00A8
:10204A007708DE007608DD007508DC0003300A1622
:10205A008A15A8240A168A11700883160313DE004B
:10206A007108DF00E001E1016108F8006008F7008B
:10207A005F08F6005E08F50000300A168A155B272D
:10208A000A168A11780883160317E3007708E20014
:10209A007608E1007508E00004300A168A15A824BB
:1020AA000A168A11700883160313DE007108DF000E
:1020BA00E001E1016108F8006008F7005F08F60036
:1020CA005E08F50000300A168A155B270A168A117F
:1020DA00780883160317E7007708E6007608E50014
:1020EA007508E400CC01CD01013083160317CC0733
:1020FA000318CD0A0030CD07670883120313A30023
:10210A0083160317660883120313A20083160317A4
:10211A00650883120313A100831603176408831248
:10212A000313A000831603175B0883120313A70087
:10213A00831603175A0883120313A600831603177C
:10214A00590883120313A50083160317580883122C
:10215A000313A4000A168A113E2383120A128A1153
:10216A004828831203136D0883160313A000013055
:10217A000310A00DFF3E031DBD280310200D83127E
:10218A0003136C0784000A128A1500200A168A11A2
:10219A0083160313A1000A128A1500200A168A114F
:1021AA00A2000A128A1500200A168A11A3000A122E
:1021BA008A1500200A168A11A4002408A8002308F8
:1021CA00A7002208A6002108A500831203136D08A0
:1021DA006E0403198229FF30ED070318EE0AFF3057
:1021EA00EE076D0883160313A00001300310A00D3B
:1021FA00FF3E031DFB280310200D831203136C07F7
:10220A0084000A128A1500200A168A1183160313FB
:10221A00A1000A128A1500200A168A11A2000A12BF
:10222A008A1500200A168A11A3000A128A150020AC
:10223A000A168A11A400240883120313A300831622
:10224A000313230883120313A2008316031322081D
:10225A0083120313A10083160313210883120313A5
:10226A00A00083160313280883120313D1008316D0
:10227A000313270883120313D000831603132608B7
:10228A0083120313CF008316031325088312031343
:10229A00CE006B08D5006A08D4006908D300680824
:1022AA00D2000A128A15EB240A168A118312031322
:1022BA005108A7005008A6004F08A5004E08A40020
:1022CA000A168A113E230A168A1183120313230857
:1022DA0083160313A8008312031322088316031319
:1022EA00A70083120313210883160313A60083127F
:1022FA000313200883160313E928831603132808F7
:10230A0083120313EB0083160313270883120313A4
:10231A00EA0083160313260883120313E9008316BF
:10232A000313250883120313E8000800831203131A
:10233A003B088039BC003C08C5003B08BC003C0790
:10234A00BD003D08CC00BA1B4C144C080319BB292C
:10235A004C0A031DB8290030BB000030BA00003017
:10236A00B9000030B800BA17BB01C3290030BB005E
:10237A000030BA000030B9000030B80037088039A0
:10238A00BC003C08C5063708BC003C07BD003D0838
:10239A00CD00B61B4D144D080319E1294D0A031D42
:1023AA00DE290030B7000030B6000030B50000303A
:1023BA00B400B617B701E9290030B7000030B600FB
:1023CA000030B5000030B400370836043504340450
:1023DA00031D082A0030BB000030BA000030B900E3
:1023EA000030B8008030BA047F30BB044508BC0016
:1023FA003C08BB043B08B7003A08B6003908B500E8
:10240A003808B40008004C08031D142A0030B7002D
:10241A000030B6000030B5000030B40008004C08A7
:10242A00BC00BD013D08BF004D083C02BE00031CB4
:10243A00BF033E087F3EC6003F080318013E003E28
:10244A00C7003B08C4003A08C3003908C20038086C
:10245A00C1000030BB000030BA000030B9000030C3
:10246A00B8000030CB000030CA000030C90000308C
:10247A00C800CD011A304D020318872A4D080319E6
:10248A00632A0130BC000310C10DC20DC30DC40D77
:10249A00BC0B482A0130BC000310B80DB90DBA0DA7
:1024AA00BB0DBC0B512ACB1B38140130BC000310E6
:1024BA00C80DC90DCA0DCB0DBC0B5C2A37084402E6
:1024CA00031D712A36084302031D712A3508420288
:1024DA00031D712A34084102031C822A4B1734084F
:1024EA00C1023508031C350FC2023608031C360F19
:1024FA00C3023708031C370FC4020130BC003C0872
:10250A00CD073F2A4408430442044104031D4814EA
:10251A00BA1BAA2A0130BC000310B80DB90DBA0DB6
:10252A00BB0DBC0B912ACB1B38140130BC00031025
:10253A00C80DC90DCA0DCB0DBC0B9C2AFF30C607AE
:10254A000318C70AFF30C7078D2ACD01CB1FC32A3C
:10255A00FF304805BC00FF304905BD00FF304A0581
:10256A00BE007F304B05BF003F083E043D043C04DB
:10257A0003193818C12AC32ACD01CD0A4D080319F7
:10258A00F52A0130B807003003180130B9070030C6
:10259A0003180130BA07003003180130BB073B1C8F
:1025AA00F52A3808BC003908BD003A08BE003B08C5
:1025BA00BF000130C0003F0DBF0CBE0CBD0CBC0CEF
:1025CA00C00BE02A3F08BB003E08BA003D08B9002C
:1025DA003C08B8000130C6070318C70A0030C7070D
:1025EA004708803AFF0080307F02031DFE2AFF3031
:1025FA004602031C0E2BFF3083120313C600003061
:10260A00C7000030BB000030BA000030B90000300B
:10261A00B800831203134708803AFF0080307F0214
:10262A00031D192B013046020318282B83120313AA
:10263A00C601C7010030BB000030BA000030B90043
:10264A000030B800C501831203134608BC003C08D9
:10265A00CC004C1C322BBA17362B7F30BC003C08FE
:10266A00BA054C08BC0003103C0CBD003D08BB0079
:10267A00FB298312031323088039A8002808F900CC
:10268A002308A8002807A9002908FB00A21B7B141D
:10269A007B0803195E2B7B0A031D5B2B0030A3000A
:1026AA000030A2000030A1000030A000A217A30150
:1026BA00662B0030A3000030A2000030A1000030D9
:1026CA00A00027088039A8002808FA007A087906A5
:1026DA00031D79172708A8002807A9002908FA0066
:1026EA00A61B7A147A080319882B7A0A031D852BEC
:1026FA000030A7000030A6000030A5000030A4007A
:10270A00A617A701902B0030A7000030A6000030C2
:10271A00A5000030A4007B087A020318D62B791F83
:10272A009A2B8030A8002808F9067B08A8002808F8
:10273A00FC007A08A8002808FB007C08A8002808E2
:10274A00FA002008A8002808FC002408A800280885
:10275A00A0007C08A8002808A4002108A8002808CE
:10276A00FC002508A8002808A1007C08A800280861
:10277A00A5002208A8002808FC002608A8002808A6
:10278A00A2007C08A8002808A6002308A800280898
:10279A00FC002708A8002808A3007C08A80028082D
:1027AA00A700FC017A08A800A9012908AB007B0848
:1027BA002802AA00031CAB032B08803AFF008030D2
:1027CA007F02031DEA2B1A302A02031C272C8312CC
:1027DA00031323082204210420040319F62B0130D1
:1027EA00F72B0030A8002808FC000030A3000030B6
:1027FA00A2000030A1000030A0007A08A800280832
:10280A00FB002B2C7C1C142C7C0883120313A800BD
:10281A000310280C0138A9002908FC00162C031003
:10282A00FC0C831203132018FC170130A800230D97
:10283A00A30CA20CA10CA00CA80B1C2C0130A80004
:10284A002808FB077A087B02031C072C791B702CCB
:10285A007B08031D3B2C003083120313A3000030B6
:10286A00A2000030A1000030A00008008312031368
:10287A002408A007250803110318013E031DA10718
:10288A00260803110318013E031DA2072708031196
:10289A000318013E031DA307231C142D7C1C5E2C68
:1028AA007C08A8000310280C0138A9002908FC009C
:1028BA00602C0310FC0C2018FC170130A800230D13
:1028CA00A30CA20CA10CA00CA80B642C0130A8002C
:1028DA002808FB07142D831203132308803AFF00EC
:1028EA002708803A7F02031D842C26082202031D32
:1028FA00842C25082102031D842C24082002031895
:10290A00DC2CFF30A800FF30A900FF30AA00FF30FE
:10291A00AB002408AC002508AD002608AE00270845
:10292A00AF002008AC022108031C210F9D2C9E2C0D
:10293A00AD022208031C220FA32CA42CAE022308EA
:10294A00031C230FA92CAA2CAF022C08A8072D08B8
:10295A0003182D0FB12CB22CA9072E0803182E0F1D
:10296A00B72CB82CAA072F0803182F0AAB072B0875
:10297A00A3002A08A2002908A1002808A000803084
:10298A00A8002808F906FC09FC0A7C08031DEA2CA1
:10299A000130A007003003180130A10700300318E6
:1029AA000130A207003003180130A307EA2C2408DB
:1029BA00A0022508031C250FA1022608031C260FC6
:1029CA00A2022708031C270FA302230822042104BA
:1029DA002004031D122D7C08031D122D0030A300B4
:1029EA000030A2000030A1000030A0000800013031
:1029FA00A8000310A00DA10DA20DA30DA80BFE2C7B
:102A0A00FC1B20147C1C0B2D03140C2D0310FC0D35
:102A1A007B080319122D0130FB02A21FFC2CFA01BC
:102A2A00FC1F1F2D7C087F39031920181D2D1F2D0F
:102A3A00FA01FA0A7A080319522D0130A007003068
:102A4A0003180130A107003003180130A207003033
:102A5A0003180130A307231C522D2008A8002108BF
:102A6A00A9002208AA002308AB000130AC002B0DF4
:102A7A00AB0CAA0CA90CA80CAC0B3C2D2B08A30080
:102A8A002A08A2002908A1002808A0007B0A031925
:102A9A00522D0130A8002808FB077B0A031D7B087A
:102AAA00031D622D0030A3000030A2000030A100F7
:102ABA000030A0007B080319F9017B1C662DA217C0
:102ACA006A2D7F30A8002808A2057B08A8000310F9
:102ADA00280CA9002908A300F91F0800A317080059
:102AEA00831603132C0883120313B70083160313E8
:102AFA002B0883120313B600831603132A088312C2
:102B0A000313B50083160313290883120313B400B1
:102B1A000A168A15CD240A168A1183120313370856
:102B2A0083160313BD008312031336088316031397
:102B3A00BC0083120313350883160313BB008312E8
:102B4A000313340883160313BA003D0883120313D0
:102B5A00BB00831603133C0883120313BA008316BF
:102B6A0003133B0883120313B900831603133A08AD
:102B7A0083120313B8000030BF000030BE000030DB
:102B8A00BD000030BC000A168A1530250A168A11C3
:102B9A00031CDA2D003083160313AC000030AB009F
:102BAA000030AA000030A90008003F30F30080304E
:102BBA00F2000030F1000030F000831603133D08E4
:102BCA00F7003C08F6003B08F5003A08F4000A163C
:102BDA008A15C8260A168A110318F52D0130F62D12
:102BEA000030FD007D0883160313B500350803196C
:102BFA00392E3D0883120313B700831603133C08CA
:102C0A0083120313B600831603133B0883120313BC
:102C1A00B500831603133A0883120313B4003F3036
:102C2A00BB008030BA000030B9000030B8000A1684
:102C3A008A119B210A168A118312031337088316F5
:102C4A000313BD0083120313360883160313BC0053
:102C5A0083120313350883160313BB00831203136D
:102C6A00340883160313BA003D0883120313D100F4
:102C7A00831603133C0883120313D000831603132D
:102C8A003B0883120313CF00831603133A088312F7
:102C9A000313CE00831603133D0883120313D500D2
:102CAA00831603133C0883120313D40083160313F9
:102CBA003B0883120313D300831603133A088312C3
:102CCA000313D2000A128A15EB240A168A118312F8
:102CDA000313510883160313B90083120313500810
:102CEA0083160313B800831203134F0883160313C2
:102CFA00B700831203134E0883160313B60039086C
:102D0A0083120313EB008316031338088312031389
:102D1A00EA0083160313370883120313E9008316A4
:102D2A000313360883120313E8001930FD007D08E7
:102D3A00EC000430ED000030EE000A168A11B620CD
:102D4A000A168A11831203136B0883160313B00041
:102D5A00831203136A0883160313AF008312031343
:102D6A00690883160313AE008312031368088316D7
:102D7A000313AD00390883120313EB008316031300
:102D8A00380883120313EA008316031337088312E1
:102D9A000313E90083160313360883120313E800AA
:102DAA000130FD007D08EC000530ED000030EE003A
:102DBA000A168A11B6200A168A11831203136B089F
:102DCA0083160313B400831203136A0883160313CA
:102DDA00B30083120313690883160313B200831224
:102DEA000313680883160313B1003408831203130C
:102DFA00BB0083160313330883120313BA00831626
:102E0A000313320883120313B9008316031331081C
:102E1A0083120313B80083160313300883120313B3
:102E2A00B700831603132F0883120313B600831601
:102E3A0003132E0883120313B500831603132D08F8
:102E4A0083120313B4000A168A119B210A168A11E7
:102E5A00831203133708D1003608D0003508CF0093
:102E6A003408CE00831603133D0883120313D500DA
:102E7A00831603133C0883120313D4008316031327
:102E8A003B0883120313D300831603133A088312F1
:102E9A000313D2000A128A15EB240A168A11831226
:102EAA000313510883160313BD008312031350083A
:102EBA0083160313BC00831203134F0883160313EC
:102ECA00BB00831203134E0883160313BA00350896
:102EDA000319AA2F3D0883120313EB008316031369
:102EEA003C0883120313EA00831603133B08831278
:102EFA000313E900831603133A0883120313E80045
:102F0A003F30EF00C930EE000F30ED00DB30EC004F
:102F1A000A168A1540240A168A11831203136B08AB
:102F2A0083160313BD00831203136A08831603135F
:102F3A00BC0083120313690883160313BB008312B0
:102F4A000313680883160313BA002C08F3002B082E
:102F5A00F2002A08F1002908F0000030F7000030DA
:102F6A00F6000030F5000030F4000A168A15C8266B
:102F7A000A168A11031CCC2F831603133D08AC00D2
:102F8A003C08AB003B08AA003A08A90008008316CF
:102F9A0003133D0883120313B300831603133C087B
:102FAA0083120313B200831603133B08831203131D
:102FBA00B100831603133A0883120313B0000A16EA
:102FCA008A15102483120313330883160313AC00E3
:102FDA0083120313320883160313AB0083120313FD
:102FEA00310883160313AA008312031330088316C9
:062FFA000313A90008000A
:1038200083120313330832043104300403190800EF
:103830008030B30608007E088A007F0882001B24BF
:103840000A168A158000840A04087D0603190034CC
:10385000FF0A0319FE0A1F2CC0340034F934003467
:10386000A4340034B0340034993400349234003439
:1038700082340034F834003480340034903400341E
:10388000803083120313EB066F08A3006E08A200BA
:103890006D08A1006C08A0006B08A7006A08A600CC
:1038A0006908A5006808A4000A168A113E2383123D
:1038B00003132308EB002208EA002108E90020088E
:1038C000E8000800FB01FC0183120313201C6E2C8E
:1038D0002208FB070318FC0A2308FC070130031029
:1038E000A20DA30DFF3E031D6F2C01300310A10C90
:1038F000A00CFF3E031D762C20082104031D642C20
:103900007C08A1007B08A0000800F800F401F50184
:103910007008F200F3017208F6007308F700781CD3
:10392000972C7608F4070318F50A7708F507013095
:103930000310F60DF70DFF3E031D982C0310F80C35
:103940007808031D8F2C7508F1007408F00008003A
:10395000F4007408F20002300310F20DFF3E031D64
:10396000AC2C0310720DF3007308831203139F0431
:103970000D30F300FB30F200F20BBC2CF30BBC2C2F
:10398000C12C831203131F151F19C42C1E08F1002C
:10399000831603131E08F000080083120313370870
:1039A000F3003608F2003508F1003408F00000306A
:1039B000F7000030F6000030F5000030F4000A1681
:1039C0008A15C8260A168A150318080083120313DD
:1039D0003708B3003608B2003508B1003408B0002B
:1039E0000A168A151024831203133308B70032080D
:1039F000B6003108B5003008B40008007008710442
:103A000003192B2DF501F50AF11B122D01300310BE
:103A1000F00DF10DFF3E031D072D0130F400740879
:103A2000F507042D71087302031D182D700872022A
:103A3000031C202D7008F2027108031CF303F3022B
:103A400001300310F10CF00CFF3E031D212D01305D
:103A5000F502031D122D7308F1007208F000080032
:103A60000030831203133805C00000303905C1004F
:103A700080303A05C2007F303B05C3004308420452
:103A800041044004031D4C2D0030BB000030BA003F
:103A90000030B9000030B80000303C05C0000030F4
:103AA0003D05C10080303E05C2007F303F05C300A8
:103AB0004308420441044004031D662D0030BF004A
:103AC0000030BE000030BD000030BC003F083B06A7
:103AD000031D742D3E083A06031D742D3D0839065A
:103AE000031D742D3C0838060319782D03100800B7
:103AF00003140800831603135908C1005808C000B6
:103B00005708BF005608BE000A128A15F7210A1688
:103B10008A15831603134108DD004008DC003F08C6
:103B2000DB003E08DA005D0883120313EB00831606
:103B300003135C0883120313EA00831603135B0864
:103B400083120313E900831603135A088312031325
:103B5000E8003F30EF00C930EE000F30ED00DB3001
:103B6000EC000A168A154024831203136B0883168F
:103B70000313D900831203136A0883160313D800B2
:103B800083120313690883160313D70083120313E8
:103B9000680883160313D60008000310720D730D16
:103BA000F4007408FA007A08031DDF2D0030F300DA
:103BB0000030F2000030F1000030F0000800700822
:103BC000F4007108F5007208F6007308F7001F3062
:103BD0000310F70CF60CF50CF40CFF3E031DE82D5A
:103BE0007408F8007808F900F217FF30F005FF308C
:103BF000F105FF30F2050030F3059630FA02FA1FA6
:103C0000162E7A08803A973E031CD62D01300310F9
:103C1000F30CF20CF10CF00CFF3E031D072E0130EB
:103C2000F4007408FA070319292E062E20307A02B0
:103C30000318D62D7A080319292E0130F400031039
:103C4000F00DF10DF20DF30DF40B1F2E0130FA0201
:103C50001A2E790803190800F009F109F209F3098D
:103C6000F00A0319F10A0319F20A0319F30A08000A
:103C700083160317CC01CD019030840010308316D9
:103C80000313DE000408DF001430E0005E08840047
:103C900083170008E100DE0A5F08840061088000E5
:103CA000DF0AE00B462E8701831203138701831678
:103CB0000313880183120313880183160313061468
:103CC0000A168A1100200A168A15831603174D0852
:103CD000803AFF0080307F02031D702E32304C028C
:103CE0000A168A11031C792800300A168A15A8249E
:103CF0000A168A15700883160313DE007108DF00A8
:103D0000E001E1016108F8006008F7005F08F600D3
:103D10005E08F50000300A168A155B270A168A1518
:103D2000780883160317D7007708D6007608D500E1
:103D30007508D40001300A168A15A8240A168A15B7
:103D4000700883160313DE007108DF00E001E10153
:103D50006108F8006008F7005F08F6005E08F500EB
:103D600000300A168A155B270A168A15780883160A
:103D70000317DB007708DA007608D9007508D80049
:103D800002300A168A15A82470080A168A110C280F
:103D900000307005F80000307105F90080307205C0
:103DA000FA007F307305FB007B087A0479047804FD
:103DB000031DE22E0030F3000030F2000030F1006D
:103DC0000030F00000307405F80000307505F9008F
:103DD00080307605FA007F307705FB007B087A0497
:103DE00079047804031DFC2E0030F7000030F60043
:103DF0000030F5000030F400F31F222F0030F800EF
:103E00000030F9000030FA008030FB007008F80242
:103E10007108031C710F0D2F0E2FF9027208031C7D
:103E2000720F132F142FFA027308031C730F192F2C
:103E30001A2FFB027B08F3007A08F2007908F100E0
:103E40007808F000F71F482F0030F8000030F90024
:103E50000030FA008030FB007408F8027508031C7B
:103E6000750F332F342FF9027608031C760F392F84
:103E70003A2FFA027708031C770F3F2F402FFB02DF
:103E80007B08F7007A08F6007908F5007808F40056
:103E90008030F3068030F70677087302031D0800B0
:103EA00076087202031D080075087102031D0800E0
:103EB00074087002080083120313A0002008031D79
:103EC000F81F722F7509A2007609A3007709A400D4
:103ED0007809A500A20A0319A30A0319A40A031961
:103EE000A50A7A2F7808A5007708A4007608A30011
:103EF0007508A2007808770476047504031D892FDD
:103F00000030F8000030F7000030F6000030F50017
:103F100008009630F9007908A100FE302505031944
:103F2000BA2F0130F9007908A10701300310A50C60
:103F3000A40CA30CA20CFF3E031D962F8D2F013065
:103F4000F9007908A1070130A207003003180130F9
:103F5000A307003003180130A40700300318013014
:103F6000A50701300310A50CA40CA30CA20CFF3E66
:103F7000031DB22FFF3025050319CE2F9F2F0230CE
:103F80002102031CD02F0130A1020130F9000310DF
:103F9000A20DA30DA40DA50DF90BC72FA41FBF2FB4
:103FA0002118DA2FFF30A205FF30A3057F30A405CA
:103FB000FF30A5050310A10C2108F900FA01FB014F
:103FC000FC0118300310F90DFA0DFB0DFC0DFF3E3E
:103FD000031DE22F7908A2047A08A3047B08A40435
:103FE0007C08A5042008031DF81FF72FA517250836
:103FF000F8002408F7002308F6002208F50008005E
:02400E003A3F37
:00000001FF
