:020000040000FA
:060000000A128A11F82F1C
:10000800F000831203130C1E0528700899000800DD
:10001800831203133708F3003608F2003508F1009D
:100028003408F0000030F7000030F6000030F5002A
:100038000030F4000A168A15BB240A128A11031824
:100048000800831203133708B3003608B2003508D6
:10005800B1003408B0000A168A15BC2283120313B3
:100068003308B7003208B6003108B5003008B400CC
:10007800080083160313860106140A128A150A203B
:100088000A128A110A168A15C7220A128A112D30F5
:100098000A168A15DF220A128A1183160317B2017B
:1000A800B30109300A128A1104200A128A11013098
:1000B80083160317B2070318B30A0030B3073308CF
:1000C800803AFF0080307F02031D6C280A3032021C
:1000D800031C552872300A168A15DF220A128A1163
:1000E80050300A168A15DF220A128A11831603175E
:1000F800B401B50109300A128A1104200A128A11C2
:10010800013083160317B4070318B50A0030B50782
:100118003508803AFF0080307F02031D95280A3099
:100128003402031C7E2872300A168A15DF220A124E
:100138008A11831603173108803AFF0080307F0246
:10014800031DA82803303002031C6F290A128A15E0
:100158000A200A128A1100300A128A1516200A1279
:100168008A11700883160313DE007108DF00E001AE
:10017800E1016108F8006008F7005F08F6005E0812
:10018800F50000300A168A154E250A128A117808D9
:1001980083160317C3007708C2007608C1007508E4
:1001A800C00001300A128A1516200A128A11700836
:1001B80083160313DE007108DF00E001E101610826
:1001C800F8006008F7005F08F6005E08F5000030E8
:1001D8000A168A154E250A128A11780883160317FB
:1001E800C7007708C6007608C5007508C400023045
:1001F8000A128A1516200A128A1170088316031328
:10020800DE007108DF00E001E1016108F800600824
:10021800F7005F08F6005E08F50000300A168A1538
:100228004E250A128A11780883160317CB0077081F
:10023800CA007608C9007508C80004300A128A1571
:1002480016200A128A11700883160313DE0071083B
:10025800DF00E001E1016108F8006008F7005F08CD
:10026800F6005E08F50000300A168A154E250A12B7
:100278008A11780883160317CF007708CE0076080E
:10028800CD007508CC0005300A128A1516200A120E
:100298008A11700883160313DE007108DF00E0017D
:1002A800E1016108F8006008F7005F08F6005E08E1
:1002B800F50000300A168A154E250A128A117808A8
:1002C80083160317D3007708D2007608D100750883
:1002D800D000B001B101013083160317B00703182D
:1002E800B10A0030B107530883120313A300831621
:1002F8000317520883120313A20083160317510829
:1003080083120313A10083160317500883120313E3
:10031800A00083160317470883120313A700831648
:100328000317460883120313A6008316031745080C
:1003380083120313A50083160317440883120313BB
:10034800A4000A168A113E230A128A118312031383
:100358002308D1002208D0002108CF002008CE00B1
:1003680083160317530883120313A3008316031776
:10037800520883120313A20083160317510883122D
:100388000313A10083160317500883120313A00058
:1003980083160317470883120313A700831603174E
:1003A800460883120313A600831603174508831211
:1003B8000313A50083160317440883120313A4002C
:1003C8000A168A113E230A128A118312031323087C
:1003D800D5002208D4002108D3002008D2000A1230
:1003E8008A15EB240A128A11831203135108831603
:1003F8000317A70083120313500883160317A600D8
:10040800831203134F0883160317A50083120313DF
:100418004E0883160317A4004F0883120313A30082
:10042800831603174E0883120313A20083160317BB
:100438004D0883120313A100831603174C08831277
:100448000313A00083160317430883120313A7009E
:1004580083160317420883120313A6008316031793
:10046800410883120313A50083160317400883125B
:100478000313A4000A168A113E230A128A11831252
:1004880003132308D1002208D0002108CF00200838
:10049800CE00831603174F0883120313A300831695
:1004A80003174E0883120313A200831603174D087F
:1004B80083120313A100831603174C088312031336
:1004C800A00083160317430883120313A70083169B
:1004D8000317420883120313A60083160317410863
:1004E80083120313A500831603174008831203130E
:1004F800A4000A168A113E230A128A1183120313D2
:100508002308D5002208D4002108D3002008D200EF
:100518000A128A15EB240A128A118312031351084E
:1005280083160317AB0083120313500883160317AF
:10053800AA00831203134F0883160317A900831216
:1005480003134E0883160317A80027088312031302
:10055800A30083160317260883120313A200831629
:100568000317250883120313A10083160317240811
:1005780083120313A000831603172B088312031397
:10058800A700831603172A0883120313A6008316ED
:100598000317290883120313A500831603172808D5
:1005A80083120313A4000A168A113E230A128A1121
:1005B80083120313230883160317AF008312031350
:1005C800220883160317AE0083120313210883162B
:1005D8000317AD0083120313200883160317AC001A
:1005E8004B0883120313D100831603174A0883129A
:1005F8000313D00083160317490883120313CF008F
:1006080083160317480883120313CE0083160317B3
:100618004B0883120313D500831603174A08831265
:100628000313D40083160317490883120313D30056
:1006380083160317480883120313D2000A128A1577
:10064800EB240A128A11831203135108A3005008DD
:10065800A2004F08A1004E08A000831603172F0818
:1006680083120313A700831603172E08831203139C
:10067800A600831603172D0883120313A5008316FB
:1006880003172C0883120313A4000A168A113E23A9
:100698000A128A1183120313230883160313A30073
:1006A80083120313220883160313A2008312031371
:1006B800210883160313A10083120313200883164D
:1006C8000313A0000A128A153B200A128A11831606
:1006D8000313230883160317D7008316031322086E
:1006E80083160317D60083160313210883160317EE
:1006F800D50083160313200883160317D400570860
:1007080083120313B70083160317560883120313C3
:10071800B60083160317550883120313B500831612
:100728000317540883120313B400831603174308EE
:1007380083120313BB0083160317420883120313A3
:10074800BA0083160317410883120313B9008316EE
:100758000317400883120313B8000A168A119B2155
:100768000A128A1183120313370883160317DB0052
:1007780083120313360883160317DA008312031350
:10078800350883160317D900831203133408831618
:100798000317D8005B0883160313D90083160317C1
:1007A8005A0883160313D8008316031759088316AB
:1007B8000313D70083160317580883160313D600AC
:1007C8000A168A1104200A128A118316031359087B
:1007D80083160317DF0083160313580883160317BD
:1007E800DE0083160313570883160317DD008316EC
:1007F8000313560883160317DC00423083120313D1
:10080800D1006530D0002830CF00F630CE008316F6
:1008180003175F0883120313D500831603175E08B6
:1008280083120313D400831603175D08831203137E
:10083800D300831603175C0883120313D2000A122D
:100848008A15EB240A128A1183120313510883169E
:10085800031793008312031350088316031792009B
:10086800831203134F08831603179100831203138F
:100878004E08831603179000570883120313B70016
:1008880083160317560883120313B600831603173B
:10089800550883120313B5008316031754088312EF
:1008A8000313B40083160317470883120313BB000E
:1008B80083160317460883120313BA008316031717
:1008C800450883120313B9008316031744088312DB
:1008D8000313B8000A168A119B210A128A1183127F
:1008E8000313370883160317DB0083120313360834
:1008F80083160317DA0083120313350883160317C8
:10090800D90083120313340883160317D8005B0831
:1009180083160313D900831603175A088316031383
:10092800D80083160317590883160313D7008316B4
:100938000317580883160313D6000A168A110420D1
:100948000A128A1183160313590883160317DF0046
:1009580083160313580883160317DE008316031340
:10096800570883160317DD008316031356088316EA
:100978000317DC00423083120313D1006530D00026
:100988002830CF00F630CE00831603175F08831295
:100998000313D500831603175E0883120313D400CC
:1009A800831603175D0883120313D30083160317F6
:1009B8005C0883120313D2000A128A15EB240A1268
:1009C8008A118312031351088316031797008312A1
:1009D80003135008831603179600831203134F0856
:1009E800831603179500831203134E088316031703
:1009F8009400570883120313B70083160317560889
:100A080083120313B60083160317550883120313C2
:100A1800B50083160317540883120313B400831612
:100A280003174B0883120313BB00831603174A08E6
:100A380083120313BA00831603174908831203139A
:100A4800B90083160317480883120313B8000A165F
:100A58008A119B210A128A118312031337088316FD
:100A68000317DB0083120313360883160317DA0013
:100A780083120313350883160317D900831203134F
:100A8800340883160317D8005B0883160313D900AC
:100A9800831603175A0883160313D80083160317FF
:100AA800590883160313D7008316031758088316AB
:100AB8000313D6000A168A1104200A128A11831613
:100AC8000313590883160317DF0083160313580806
:100AD80083160317DE0083160313570883160317BC
:100AE800DD0083160313560883160317DC00423013
:100AF80083120313D1006530D0002830CF00F630C0
:100B0800CE00831603175F0883120313D5008316DC
:100B180003175E0883120313D400831603175D08B6
:100B280083120313D300831603175C08831203137D
:100B3800D2000A128A15EB240A128A1183120313AF
:100B48005108831603179B0083120313500883165A
:100B580003179A00831203134F088316031799008B
:100B6800831203134E08831603179800570883123D
:100B78000313B70083160317560883120313B6002E
:100B880083160317550883120313B500831603173A
:100B9800540883120313B400831603174F088312F3
:100BA8000313BB00831603174E0883120313BA00FE
:100BB800831603174D0883120313B900831603170E
:100BC8004C0883120313B8000A168A119B210A12D3
:100BD8008A1183120313370883160317DB00831265
:100BE8000313360883160317DA0083120313350834
:100BF80083160317D90083120313340883160317C7
:100C0800D8005B0883160313D900831603175A0804
:100C180083160313D8008316031759088316031382
:100C2800D70083160317580883160313D6000A162D
:100C38008A1104200A128A1183160313590883168D
:100C48000317DF0083160313580883160317DE0003
:100C580083160313570883160317DD00831603133F
:100C6800560883160317DC00423083120313D100A1
:100C78006530D0002830CF00F630CE008316031739
:100C88005F0883120313D500831603175E088312C7
:100C98000313D400831603175D0883120313D300CC
:100CA800831603175C0883120313D2000A128A15ED
:100CB800EB240A128A1183120313510883160317AF
:100CC8009F00831203135008831603179E00831294
:100CD80003134F08831603179D00831203134E084E
:100CE800831603179C00570883120313B700831653
:100CF8000317560883120313B60083160317550803
:100D080083120313B50083160317540883120313C1
:100D1800B40083160317530883120313BB0083160A
:100D28000317520883120313BA00831603175108D6
:100D380083120313B9008316031750088312031391
:100D4800B8000A168A119B210A128A11831203130A
:100D5800370883160317DB0083120313360883163C
:100D68000317DA0083120313350883160317D90013
:100D780083120313340883160317D8005B088316FD
:100D88000313D900831603175A0883160313D800D0
:100D980083160317590883160313D70083160317FE
:100DA800580883160313D6000A168A1104200A125B
:100DB8008A1183160313590883160317DF00831655
:100DC8000313580883160317DE0083160313570806
:100DD80083160317DD0083160313560883160317BB
:100DE800DC00423083120313D1006530D000283074
:100DF800CF00F630CE00831603175F088312031363
:100E0800D500831603175E0883120313D4008316D4
:100E180003175D0883120313D300831603175C08B6
:100E280083120313D2000A128A15EB240A128A11BC
:100E380083120313510883160317A30083120313A5
:100E4800500883160317A200831203134F08831652
:100E58000317A100831203134E0883160317A0007B
:100E68006A300A168A15DF220A128A1183160317B6
:100E7800130883160313A800831603171208831692
:100E88000313A70083160317110883160313A6007C
:100E980083160317100883160313A5000A168A156C
:100EA800D8260A128A1183160317430883160313D8
:100EB800A80083160317420883160313A700831696
:100EC8000317410883160313A60083160317400867
:100ED80083160313A5000A168A15D8260A128A1142
:100EE80083160317B601B7013708803AFF00803030
:100EF8007F02031D812F0A3036020318922F093012
:100F08000A128A1104200A128A1101308316031763
:100F1800B6070318B70A0030B707782F72300A16D9
:100F28008A15DF220A128A1181300A168A15DF22F1
:100F38000A128A1183160317170883160313A800C9
:100F480083160317160883160313A70083160317BF
:100F5800150883160313A6008316031714088316AF
:100F68000313A5000A168A15D8260A128A118316B1
:100F78000317470883160313A800831603174608A8
:100F880083160313A7008316031745088316031354
:100F9800A60083160317440883160313A5000A1630
:100FA8008A15D8260A128A1183160317B801B901BF
:100FB8003908803AFF0080307F02031DE52F0A3090
:100FC80038020A168A110318572809300A128A119A
:100FD80004200A128A11013083160317B807031870
:100FE800B90A0030B907DC2F83160313E201E301C5
:080FF80083010A128A113D2851
:101014008030831203139F008030831603139F00D4
:10102400831203131F140800F4007408F200023042
:101034000310F20DFF3E031D1A280310720DF30076
:101044007308831203139F040D30F300FB30F20086
:10105400F20B2A28F30B2A282F28831203131F15B7
:101064001F1932281E08F100831603131E08F0000E
:1010740008008316031323088039A4002408A80059
:101084002308A4002407A5002508AE00A21B2E14E3
:101094002E08A400A5012408B3002508B400FF30DD
:1010A4002005B900FF302105BA007F302205BB00BE
:1010B40000302305BC003308340403196628BB1729
:1010C400330A3404031D6E280030BC000030BB001A
:1010D4000030BA000030B90033083404031D7B2803
:1010E4000030A3000030A2000030A1000030A000B6
:1010F40008002808031997280030B8004030B700CA
:101104000030B6000030B5008030B704FF30B804BA
:101114002130E2000030E3003808A3003708A200C1
:101124003608A1003508A0000800330A3404031D62
:10113400AC287F30B8008030B7000030B6000030F3
:10114400B5003808A3003708A2003608A100350806
:10115400A00008008130B3070318B40AFF30B407B5
:1011640033080139A4002408AE000130FF00340D17
:10117400B40CB30CFF0BB9287F30B3070318B40ABF
:101184000030B4070310390DAA003A0DAB003B0D33
:10119400AC003C0DAD000030BC000030BB000030A2
:1011A400BA000030B9000130B2000030B1000030A4
:1011B400B0000030AF002E080319E9280130A40064
:1011C4000310AA0DAB0DAC0DAD0DA40BE228A901C3
:1011D40019302902031860292F08B9043008BA0409
:1011E4003108BB043208BC043C082D02031D042949
:1011F4003B082C02031D04293A082B02031D042971
:1012040039082A02031C29293908AA023A08031CAE
:101214003A0FAB023B08031C3B0FAC023C08031C17
:101224003C0FAD022F08B907300803110318013E23
:10123400031DBA07310803110318013E031DBB0740
:10124400320803110318013E031DBC0739292F0975
:10125400A4003009A5003109A6003209A70024081A
:10126400B9052508BA052608BB052708BC052F08BB
:10127400A4003008A5003108A6003208A7000130F8
:101284000310A70CA60CA50CA40CFF3E031D4229B9
:101294002708B2002608B1002508B0002408AF00D2
:1012A4000130A4000310AA0DAB0DAC0DAD0DA40BC1
:1012B40054290130A4002408A907EA283908A40005
:1012C4003A08A5003B08A6003C08A700013003101B
:1012D400A70CA60CA50CA40CFF3E031D6929270826
:1012E400BC002608BB002508BA002408B900013058
:1012F4003905AF0000303A05B00000303B05B100BD
:1013040000303C05B2003908A4003A08A5003B08A7
:10131400A6003C08A70001300310A70CA60CA50CDE
:10132400A40CFF3E031D8E292708BC002608BB0021
:101334002508BA002408B9002F08B907300803119A
:101344000318013E031DBA07310803110318013EB7
:10135400031DBB07320803110318013E031DBC071C
:101364003C1CD3293908A4003A08A5003B08A60070
:101374003C08A70001300310A70CA60CA50CA40C74
:10138400FF3E031DBD292708BC002608BB00250815
:10139400BA002408B9000130B3070318B40A0030B6
:1013A400B407FF303905B500FF303A05B6007F3089
:1013B4003B05B70000303C05B8003308A4002408FE
:1013C400AE002E18B7172E08A4000310240CA50095
:1013D4002508B8007F30A4002408B8053808A30005
:1013E4003708A2003608A1003508A00008008316BB
:1013F4000313410883120313B70083160313400831
:1014040083120313B600831603133F0883120313D6
:10141400B500831603133E0883120313B4000A12A3
:101424008A110C200A128A158312031337088316B3
:101434000313C90083120313360883160313C80069
:1014440083120313350883160313C700831203138F
:10145400340883160313C6003F30F3008030F200D3
:101464000030F1000030F0004908F7004808F600A9
:101474004708F5004608F4000A168A15BB240A1228
:101484008A150318542A213083160313E20000300E
:10149400E3000030C1000030C0000030BF00003065
:1014A400BE00080083160313410883120313D100FE
:1014B40083160313400883120313D0008316031307
:1014C4003F0883120313CF00831603133E088312CD
:1014D4000313CE0083160313410883120313D500AC
:1014E40083160313400883120313D40083160313D3
:1014F4003F0883120313D300831603133E08831299
:101504000313D2000A128A15EB240A128A158312D5
:1015140003135108EB005008EA004F08E9004E0895
:10152400E8003F30EF008030EE000030ED00003086
:10153400EC000A168A15FB220A128A158312031379
:101544006B0883160313A300831203136A0883161C
:101554000313A20083120313690883160313A10063
:1015640083120313680883160313A0000A128A1552
:101574003B200A128A15831603132308D10022087C
:10158400D0002108CF002008CE00410883120313A5
:10159400B70083160313400883120313B60083169F
:1015A40003133F0883120313B500831603133E0885
:1015B40083120313B4000A128A110C200A128A152A
:1015C40083120313370883160313C900831203130A
:1015D400360883160313C8008312031335088316D1
:1015E4000313C70083120313340883160313C600BE
:1015F4004908F3004808F2004708F1004608F000E3
:101604003F30F7003530F600C230F5008F30F4007B
:101614000A168A15BB240A128A150318742B83161A
:101624000313510883120313B700831603135008DE
:1016340083120313B600831603134F088312031394
:10164400B500831603134E0883120313B4008316E4
:101654000313410883120313BB00831603134008CA
:1016640083120313BA00831603133F088312031370
:10167400B900831603133E0883120313B8000A1635
:101684008A119B210A128A158312031337088316C1
:101694000313D50083120313360883160313D400EF
:1016A40083120313350883160313D3008312031321
:1016B400340883160313D2005508AC005408AB0059
:1016C4005308AA005208A9000A168A117525831620
:1016D40003132C08C1002B08C0002A08BF002908E6
:1016E400BE000800831603134108F3004008F2000B
:1016F4003F08F1003E08F0000030F7000030F6002B
:101704000030F5000030F4000A168A15BB240A12D2
:101714008A1503184D2C83160313510883120313DF
:10172400B30083160313500883120313B200831605
:1017340003134F0883120313B100831603134E08D7
:1017440083120313B0000A168A15BC220A128A15E2
:10175400831203133308BB003208BA003108B900FE
:101764003008B80083160313410883120313B7002B
:1017740083160313400883120313B600831603135E
:101784003F0883120313B500831603133E08831224
:101794000313B4000A168A119B210A128A158312B4
:1017A4000313370883160313D50083120313360873
:1017B40083160313D400831203133508831603130B
:1017C400D30083120313340883160313D20055087D
:1017D400AC005408AB005308AA005208A9000A162A
:1017E4008A1175250A128A15831603132C08CD0055
:1017F4002B08CC002A08CB002908CA003F308312EA
:101804000313EF00C930EE000F30ED00DB30EC00C5
:10181400831603134D0883120313EB00831603137B
:101824004C0883120313EA00831603134B08831234
:101834000313E900831603134A0883120313E80011
:101844000A168A15FB220A128A15831203136B08DF
:10185400B3006A08B2006908B1006808B0000A164B
:101864008A15BC2283120313330883160313C100A1
:1018740083120313320883160313C0008312031365
:10188400310883160313BF00831203133008831631
:101894000313BE00080083160313410883120313C5
:1018A400B70083160313400883120313B60083168C
:1018B40003133F0883120313B500831603133E0872
:1018C40083120313B4008316031351088312031302
:1018D400BB0083160313500883120313BA00831644
:1018E40003134F0883120313B900831603134E081E
:1018F40083120313B8000A168A119B210A128A154F
:1019040083120313370883160313D50083120313BA
:10191400360883160313D400831203133508831681
:101924000313D30083120313340883160313D20062
:101934005508AC005408AB005308AA005208A9008B
:101944000A168A1175250A128A15831603132C08A0
:10195400CD002B08CC002A08CB002908CA004D086A
:1019640083120313EB00831603134C08831203132F
:10197400EA00831603134B0883120313E90083164A
:1019840003134A0883120313E8003F30EF00C93001
:10199400EE000F30ED00DB30EC000A168A15FB2256
:1019A400831203136B0883160313C10083120313FA
:1019B4006A0883160313C00083120313690883168D
:1019C4000313BF0083120313680883160313BE00B6
:1019D40008008312031351088039D6005608DB002F
:1019E4005108D6005607D7005708E100D01B6114F0
:1019F400610803190A2D610A031D082D0030D10066
:101A04000030D0000030CF000030CE00D017122DAF
:101A14000030D1000030D0000030CF000030CE00C4
:101A240055088039D6005608DB065508D6005607F7
:101A3400D7005708E000D41B6014600803192F2D49
:101A4400600A031D2D2D0030D5000030D400003075
:101A5400D3000030D200D417372D0030D500003029
:101A6400D4000030D3000030D2006008031D6108A8
:101A7400031D452D0030D1000030D0000030CF00D0
:101A84000030CE0008004E08D6005608F000540876
:101A94000A168A151D230A128A1571088312031364
:101AA400E7007008E6006608D600D701D801D9011E
:101AB4005908DF005808DE005708DD005608DC002E
:101AC4006708D600D701D801D9015908E50058089C
:101AD400E4005708E3005608E2004F08D600560811
:101AE400F00053080A168A151D230A128A15710874
:101AF40083120313E7007008E6006608D600D701D6
:101B0400D801D9015608DC07570803110318013E10
:101B1400031DDD07580803110318013E031DDE07EA
:101B2400590803110318013E031DDF076708D60097
:101B3400D701D801D9015608E20757080311031841
:101B4400013E031DE307580803110318013E031D5A
:101B5400E407590803110318013E031DE507500863
:101B6400D6005608F00052080A168A151D230A12D8
:101B74008A15710883120313E7007008E6006608EB
:101B8400D600D701D801D9015608DC07570803113C
:101B94000318013E031DDD07580803110318013E15
:101BA400031DDE07590803110318013E031DDF0757
:101BB4006708D600D701D801D9015608E2075708AB
:101BC40003110318013E031DE3075808031103180A
:101BD400013E031DE407590803110318013E031DC8
:101BE400E5070830D6000310DC0DDD0DDE0DDF0D3A
:101BF400D60BF52D4F08D6005608F00052080A16E9
:101C04008A151D230A128A15710883120313E7002B
:101C14007008E6006608D6006708D700D801D90125
:101C24005608DC07570803110318013E031DDD079E
:101C3400580803110318013E031DDE075908031158
:101C44000318013E031DDF074E08D6005608F000B6
:101C540053080A168A151D230A128A15710883125D
:101C64000313E7007008E6006608D6006708D7008B
:101C7400D801D9015608DC07570803110318013E9F
:101C8400031DDD07580803110318013E031DDE0779
:101C9400590803110318013E031DDF070830D6005D
:101CA4000310DC0DDD0DDE0DDF0DD60B522E4E08BC
:101CB400D6005608F00052080A168A151D230A1287
:101CC4008A15710883120313E7007008E60066089A
:101CD400D6006708D700D801D9015608DC07570891
:101CE40003110318013E031DDD07580803110318EF
:101CF400013E031DDE07590803110318013E031DAD
:101D0400DF074F08D6005608F00054080A168A1553
:101D14001D230A128A15710883120313E700700841
:101D2400E6006608D6006708D700D801D90156082E
:101D3400E207570803110318013E031DE30758087F
:101D440003110318013E031DE40759080311031886
:101D5400013E031DE5075008D6005608F00053085D
:101D64000A168A151D230A128A1571088312031391
:101D7400E7007008E6006608D6006708D700D801B7
:101D8400D9015608E207570803110318013E031D41
:101D9400E307580803110318013E031DE40759081B
:101DA40003110318013E031DE5075008D600560829
:101DB400F00054080A168A151D230A128A157108A0
:101DC40083120313E7007008E6006608D60067086C
:101DD400D700D801D90108300310D60DD70DD80D7E
:101DE400D90DFF3E031DEE2E5608E20757080311D6
:101DF4000318013E031DE307580803110318013EAD
:101E0400031DE407590803110318013E031DE507E8
:101E14005C08D6005D08D7005E08D8005F08D900CA
:101E240018300310D90CD80CD70CD60CFF3E031D68
:101E3400132F5608E207570803110318013E031D28
:101E4400E307580803110318013E031DE40759086A
:101E540003110318013E031DE5070830D6000310E3
:101E6400DC0DDD0DDE0DDF0DD60B312F61086007B3
:101E7400D600D701D70D5608823EE600570803184E
:101E8400013EFF3EE700E41B622F0130D600031041
:101E9400E20DE30DE40DE50DD60B492FDF1B6214B3
:101EA4000130D6000310DC0DDD0DDE0DDF0DD60B89
:101EB400542FFF30E6070318E70AFF30E707452FE2
:101EC400E001DF1F7B2FFF305C05D600FF305D058E
:101ED400D700FF305E05D8007F305F05D900590870
:101EE40058045704560403196218792F7B2FE00114
:101EF400E00A60080319AD2F0130E207003003182F
:101F04000130E307003003180130E4070030031800
:101F14000130E507651CAD2F6208D6006308D700C1
:101F24006408D8006508D9000130DA00590DD90CCD
:101F3400D80CD70CD60CDA0B982F5908E5005808A2
:101F4400E4005708E3005608E2000130E6070318EE
:101F5400E70A0030E7076708803AFF0080307F0215
:101F6400031DB62FFF306602031CC32F7F3083127C
:101F74000313E5008030E4000030E3000030E200A9
:101F8400F32F831203136708803AFF0080307F0227
:101F9400031DCE2F013066020318DC2F003083129C
:101FA4000313E5000030E4000030E3000030E200F9
:101FB400DB01F32F831203136608D6005608E100F1
:101FC400FF30E205FF30E3057F30E4050030E5052E
:101FD4006118E4176108D6000310560CD70057089F
:101FE400E5005B08D6005608E5046508D1006408DE
:0C1FF400D0006308CF006208CE00080097
:10200800831603135908C1005808C0005708BF00B9
:102018005608BE000A128A15F9210A168A11831673
:1020280003134108DD004008DC003F08DB003E08E0
:10203800DA005D0883120313EB00831603135C08B0
:1020480083120313EA00831603135B088312031336
:10205800E900831603135A0883120313E8003F307C
:10206800EF00C930EE000F30ED00DB30EC000A164F
:102078008A15FB22831203136B0883160313D900F6
:10208800831203136A0883160313D80083120313F9
:10209800690883160313D70083120313680883168D
:1020A8000313D600080072300A168A15DF220A16B2
:1020B8008A118B300A168A15DF220A168A118316AE
:1020C80003171B0883160313A800831603171A089F
:1020D80083160313A700831603171908831603131F
:1020E800A60083160317180883160313A5000A16FB
:1020F8008A15D8260A168A11831603174B088316E1
:102108000313A800831603174A0883160313A700AE
:1021180083160317490883160313A60083160317AB
:10212800480883160313A5000A168A15D8260A1626
:102138008A1183160317BA01BB013B08803AFF00D6
:1021480080307F02031DAA280A303A020318BB28F0
:1021580009300A128A1104200A168A1101308316DE
:102168000317BA070318BB0A0030BB07A12872304F
:102178000A168A15DF220A168A1166300A168A1587
:10218800DF220A168A11831603171F088316031302
:10219800A800831603171E0883160313A7008316C7
:1021A80003171D0883160313A600831603171C08BC
:1021B80083160313A5000A168A15D8260A168A114B
:1021C800831603174F0883160313A80083160317F3
:1021D8004E0883160313A700831603174D088316AA
:1021E8000313A600831603174C0883160313A500D0
:1021F8000A168A15D8260A168A1183160317BC01EF
:10220800BD013D08803AFF0080307F02031D0E2982
:102218000A303C0203181F2909300A128A110420C7
:102228000A168A11013083160317BC070318BD0A62
:102238000030BD07052972300A168A15DF220A16F2
:102248008A1174300A168A15DF220A168A11831633
:102258000317230883160313A800831603172208FD
:1022680083160313A7008316031721088316031385
:10227800A60083160317200883160313A5000A1661
:102288008A15D8260A168A11831603175308831647
:102298000313A80083160317520883160313A70015
:1022A80083160317510883160313A6008316031712
:1022B800500883160313A5000A168A15D8260A168D
:1022C8008A1183160317BE01BF013F08803AFF0039
:1022D80080307F02031D72290A303E0203188329C9
:1022E80009300A128A1104200A168A11013083164D
:1022F8000317BE070318BF0A0030BF0769297230E9
:102308000A168A15DF220A168A111A308316031351
:10231800E0005E30DF006D30DE00DE0B9129DF0B60
:102328009129E00B912998290A128A119D28831274
:1023380003133B088039BC003C08C5003B08BC00BF
:102348003C07BD003D08CC00BA1B4C144C080319CF
:10235800BB294C0A031DB8290030BB000030BA0065
:102368000030B9000030B800BA17BB01C3290030EB
:10237800BB000030BA000030B9000030B8003708A0
:102388008039BC003C08C5063708BC003C07BD00C6
:102398003D08CD00B61B4D144D080319E1294D0A1F
:1023A800031DDE290030B7000030B6000030B5004C
:1023B8000030B400B617B701E9290030B700003083
:1023C800B6000030B5000030B400370836043504D4
:1023D8003404031D082A0030BB000030BA00003066
:1023E800B9000030B8008030BA047F30BB0445081B
:1023F800BC003C08BB043B08B7003A08B6003908E3
:10240800B5003808B40008004C08031D142A003031
:10241800B7000030B6000030B5000030B400080046
:102428004C08BC00BD013D08BF004D083C02BE0081
:10243800031CBF033E087F3EC6003F080318013E49
:10244800003EC7003B08C4003A08C3003908C20070
:102458003808C1000030BB000030BA000030B900B5
:102468000030B8000030CB000030CA000030C9008E
:102478000030C800CD011A304D020318872A4D08D4
:102488000319632A0130BC000310C10DC20DC30D2E
:10249800C40DBC0B482A0130BC000310B80DB90D9F
:1024A800BA0DBB0DBC0B512ACB1B38140130BC0034
:1024B8000310C80DC90DCA0DCB0DBC0B5C2A37081B
:1024C8004402031D712A36084302031D712A350888
:1024D8004202031D712A34084102031C822A4B1749
:1024E8003408C1023508031C350FC2023608031C24
:1024F800360FC3023708031C370FC4020130BC0073
:102508003C08CD073F2A4408430442044104031D04
:102518004814BA1BAA2A0130BC000310B80DB90D23
:10252800BA0DBB0DBC0B912ACB1B38140130BC0073
:102538000310C80DC90DCA0DCB0DBC0B9C2AFF306A
:10254800C6070318C70AFF30C7078D2ACD01CB1F5E
:10255800C32AFF304805BC00FF304905BD00FF30E5
:102568004A05BE007F304B05BF003F083E043D04CE
:102578003C0403193818C12AC32ACD01CD0A4D08D5
:102588000319F52A0130B807003003180130B907DC
:10259800003003180130BA07003003180130BB07B8
:1025A8003B1CF52A3808BC003908BD003A08BE00B3
:1025B8003B08BF000130C0003F0DBF0CBE0CBD0C76
:1025C800BC0CC00BE02A3F08BB003E08BA003D081F
:1025D800B9003C08B8000130C6070318C70A003024
:1025E800C7074708803AFF0080307F02031DFE2A94
:1025F800FF304602031C0E2BFF3083120313C60064
:102608000030C7000030BB000030BA000030B9000D
:102618000030B800831203134708803AFF00803067
:102628007F02031D192B013046020318282B831241
:102638000313C601C7010030BB000030BA000030E8
:10264800B9000030B800C501831203134608BC0066
:102658003C08CC004C1C322BBA17362B7F30BC0000
:102668003C08BA054C08BC0003103C0CBD003D08F2
:10267800BB00FB298312031323088039A80028080C
:10268800F9002308A8002807A9002908FB00A21BB5
:102698007B147B0803195E2B7B0A031D5B2B003020
:1026A800A3000030A2000030A1000030A000A21753
:1026B800A301662B0030A3000030A2000030A10067
:1026C8000030A00027088039A8002808FA007A08F6
:1026D8007906031D79172708A8002807A9002908E3
:1026E800FA00A61B7A147A080319882B7A0A031DA4
:1026F800852B0030A7000030A6000030A500003070
:10270800A400A617A701902B0030A7000030A60050
:102718000030A5000030A4007B087A020318D62BED
:10272800791F9A2B8030A8002808F9067B08A80092
:102738002808FC007A08A8002808FB007C08A800E4
:102748002808FA002008A8002808FC002408A80087
:102758002808A0007C08A8002808A4002108A800D0
:102768002808FC002508A8002808A1007C08A80063
:102778002808A5002208A8002808FC002608A800A8
:102788002808A2007C08A8002808A6002308A8009A
:102798002808FC002708A8002808A3007C08A8002F
:1027A8002808A700FC017A08A800A9012908AB009D
:1027B8007B082802AA00031CAB032B08803AFF0001
:1027C80080307F02031DEA2B1A302A02031C272CB3
:1027D8008312031323082204210420040319F62B6F
:1027E8000130F72B0030A8002808FC000030A300B7
:1027F8000030A2000030A1000030A0007A08A80034
:102808002808FB002B2C7C1C142C7C088312031337
:10281800A8000310280C0138A9002908FC00162C70
:102828000310FC0C831203132018FC170130A800B6
:10283800230DA30CA20CA10CA00CA80B1C2C01307E
:10284800A8002808FB077A087B02031C072C791BC1
:10285800702C7B08031D3B2C003083120313A3004C
:102868000030A2000030A1000030A0000800831250
:1028780003132408A007250803110318013E031DAC
:10288800A107260803110318013E031DA207270804
:1028980003110318013E031DA307231C142D7C1CE0
:1028A8005E2C7C08A8000310280C0138A900290810
:1028B800FC00602C0310FC0C2018FC170130A80049
:1028C800230DA30CA20CA10CA00CA80B642C0130A6
:1028D800A8002808FB07142D831203132308803A45
:1028E800FF002708803A7F02031D842C2608220255
:1028F800031D842C25082102031D842C2408200292
:102908000318DC2CFF30A800FF30A900FF30AA0014
:10291800FF30AB002408AC002508AD002608AE0047
:102928002708AF002008AC022108031C210F9D2CAA
:102938009E2CAD022208031C220FA32CA42CAE024D
:102948002308031C230FA92CAA2CAF022C08A807C4
:102958002D0803182D0FB12CB22CA9072E08031827
:102968002E0FB72CB82CAA072F0803182F0AAB076D
:102978002B08A3002A08A2002908A1002808A00003
:102988008030A8002808F906FC09FC0A7C08031D09
:10299800EA2C0130A007003003180130A1070030ED
:1029A80003180130A207003003180130A307EA2CEE
:1029B8002408A0022508031C250FA1022608031CD1
:1029C800260FA2022708031C270FA30223082204AC
:1029D80021042004031D122D7C08031D122D003034
:1029E800A3000030A2000030A1000030A0000800C1
:1029F8000130A8000310A00DA10DA20DA30DA80B76
:102A0800FE2CFC1B20147C1C0B2D03140C2D031016
:102A1800FC0D7B080319122D0130FB02A21FFC2CB0
:102A2800FA01FC1F1F2D7C087F39031920181D2D62
:102A38001F2DFA01FA0A7A080319522D0130A0074E
:102A4800003003180130A107003003180130A20735
:102A5800003003180130A307231C522D2008A800BA
:102A68002108A9002208AA002308AB000130AC0005
:102A78002B0DAB0CAA0CA90CA80CAC0B3C2D2B08ED
:102A8800A3002A08A2002908A1002808A0007B0AA0
:102A98000319522D0130A8002808FB077B0A031DE3
:102AA8007B08031D622D0030A3000030A200003017
:102AB800A1000030A0007B080319F9017B1C662DDA
:102AC800A2176A2D7F30A8002808A2057B08A80055
:102AD8000310280CA9002908A300F91F0800A31750
:102AE8000800831603132C0883120313B7008316F8
:102AF80003132B0883120313B600831603132A0843
:102B080083120313B50083160313290883120313D2
:102B1800B4000A128A110C200A168A1183120313B0
:102B2800370883160313BD00831203133608831670
:102B38000313BC0083120313350883160313BB0069
:102B480083120313340883160313BA003D08831253
:102B58000313BB00831603133C0883120313BA0044
:102B6800831603133B0883120313B9008316031358
:102B78003A0883120313B8000030BF000030BE00CB
:102B88000030BD000030BC000A168A1540230A1622
:102B98008A11031CDA2D003083160313AC000030B1
:102BA800AB000030AA000030A90008003F30F30055
:102BB8008030F2000030F1000030F000831603137B
:102BC8003D08F7003C08F6003B08F5003A08F40019
:102BD8000A168A15BB240A168A110318F52D013026
:102BE800F62D0030FD007D0883160313B500350867
:102BF8000319392E3D0883120313B70083160313F4
:102C08003C0883120313B600831603133B08831290
:102C18000313B500831603133A0883120313B40091
:102C28003F30BB008030BA000030B9000030B80037
:102C38000A168A119B210A168A1183120313370870
:102C480083160313BD008312031336088316031378
:102C5800BC0083120313350883160313BB008312C9
:102C68000313340883160313BA003D0883120313B1
:102C7800D100831603133C0883120313D000831674
:102C880003133B0883120313CF00831603133A0878
:102C980083120313CE00831603133D088312031314
:102CA800D500831603133C0883120313D40083163C
:102CB80003133B0883120313D300831603133A0844
:102CC80083120313D2000A128A15EB240A168A11FA
:102CD80083120313510883160313B90083120313D5
:102CE800500883160313B800831203134F08831682
:102CF8000313B700831203134E0883160313B60099
:102D0800390883120313EB00831603133808831260
:102D18000313EA0083160313370883120313E90029
:102D280083160313360883120313E8001930FD00D5
:102D38007D08EC000430ED000030EE000A168A151C
:102D4800F3250A168A11831203136B0883160313DB
:102D5800B000831203136A0883160313AF008312AB
:102D68000313690883160313AE008312031368085C
:102D780083160313AD00390883120313EB0083167F
:102D88000313380883120313EA0083160313370862
:102D980083120313E90083160313360883120313FF
:102DA800E8000130FD007D08EC000530ED00003042
:102DB800EE000A168A15F3250A168A1183120313E0
:102DC8006B0883160313B400831203136A0883166F
:102DD8000313B30083120313690883160313B200A5
:102DE80083120313680883160313B100340883128F
:102DF8000313BB0083160313330883120313BA00AB
:102E080083160313320883120313B90083160313BE
:102E1800310883120313B800831603133008831292
:102E28000313B700831603132F0883120313B60086
:102E3800831603132E0883120313B5008316031396
:102E48002D0883120313B4000A168A119B210A164F
:102E58008A11831203133708D1003608D0003508C9
:102E6800CF003408CE00831603133D0883120313E2
:102E7800D500831603133C0883120313D40083166A
:102E880003133B0883120313D300831603133A0872
:102E980083120313D2000A128A15EB240A168A1128
:102EA80083120313510883160313BD0083120313FF
:102EB800500883160313BC00831203134F088316AC
:102EC8000313BB00831203134E0883160313BA00BF
:102ED80035080319AA2F3D0883120313EB00831644
:102EE80003133C0883120313EA00831603133B08F9
:102EF80083120313E900831603133A08831203139A
:102F0800E8003F30EF00C930EE000F30ED00DB3055
:102F1800EC000A168A15FB220A168A11831203137B
:102F28006B0883160313BD00831203136A08831604
:102F38000313BC0083120313690883160313BB0031
:102F480083120313680883160313BA002C08F300CE
:102F58002B08F2002A08F1002908F0000030F700D9
:102F68000030F6000030F5000030F4000A168A152B
:102F7800BB240A168A11031CCC2F831603133D08A1
:102F8800AC003C08AB003B08AA003A08A9000800BE
:102F9800831603133D0883120313B3008316031328
:102FA8003C0883120313B200831603133B088312F1
:102FB8000313B100831603133A0883120313B000F6
:102FC8000A168A15BC2283120313330883160313C7
:102FD800AC0083120313320883160313AB00831269
:102FE8000313310883160313AA008312031330084E
:102FF80083160313A900080018308A000408840AFD
:103008008207003406343C34043442347D349F341F
:103018006A3442345C3490340134423460344D3480
:10302800BB3440345134EC3447343E34DE348D34D0
:103038001F34BB3406343C3404344234C03459346D
:103048008B3442347434043444344234F9349B3479
:103058004F3441340034003480343F3455344134E3
:103068005234543420344D346F34643475346C34F1
:103078006534203449346E346934743469346134C5
:103088006C3469347A3465346434203461346E3491
:103098006434203461346334743469347634653488
:1030A8000034533455344E342034533445344E347C
:1030B80053344F345234203457344F3452344B3411
:1030C80049344E3447342E342E342E3400342034D0
:1030D8004E3445344734203458342034413458343D
:1030E800493453343A342034003420344E3445348F
:1030F8004734203459342034413458344934533413
:103108003A34003420345934203441345834493462
:1031180053343A342034003420345A34203441347F
:0C3128005834493453343A342034003415
:10357800831203133308320431043004031908009A
:103588008030B306080083160313071387178130AA
:10359800990018151812831203139817831603132A
:1035A800981683120313181683160313181383121D
:1035B800031318130800F200720884000A168A150B
:1035C80000200A168A15003A0319080072088400B8
:1035D8000A168A1500200A168A150A128A1104206A
:1035E8000A168A150130F1007108F207E02A8030C6
:1035F80083120313EB066F08A3006E08A2006D0880
:10360800A1006C08A0006B08A7006A08A60069085A
:10361800A5006808A4000A168A113E238312031322
:103628002308EB002208EA002108E9002008E80046
:103638000800F800F401F5017008F200F3017208BF
:10364800F6007308F700781C2F2B7608F407031888
:10365800F50A7708F50701300310F60DF70DFF3E60
:10366800031D302B0310F80C7808031D272B750851
:10367800F1007408F00008000030831203133805C5
:10368800C00000303905C10080303A05C2007F30E3
:103698003B05C3004308420441044004031D5C2B5E
:1036A8000030BB000030BA000030B9000030B8006C
:1036B80000303C05C00000303D05C10080303E05AB
:1036C800C2007F303F05C300430842044104400460
:1036D800031D762B0030BF000030BE000030BD0057
:1036E8000030BC003F083B06031D842B3E083A0609
:1036F800031D842B3D083906031D842B3C0838061E
:103708000319882B0310080003140800F601F31F9F
:10371800942BF209F309F20A0319F30AF601F60ADF
:10372800F11F9B2BF009F109F00A0319F10A70083F
:1037380071040319C82BF501F50AF11BAF2B0130F1
:103748000310F00DF10DFF3E031DA42B0130F40012
:103758007408F507A12B71087302031DB52B7008B7
:103768007202031CBD2B7008F2027108031CF303DC
:10377800F30201300310F10CF00CFF3E031DBE2BC9
:103788000130F502031DAF2B76080319D02BF2097F
:10379800F309F20A0319F30A7308F1007208F0003A
:1037A8000800F601F11FDF2BF009F109F00A0319EF
:1037B800F10AF601F60AF31FEA2BF209F309F20AF5
:1037C8000319F30A0130F4007408F606F701F8014A
:1037D800700871040319212CF501F50AF11B002C5E
:1037E80001300310F00DF10DFF3E031DF52B0130E4
:1037F800F4007408F507F22B01300310F70DF80DEB
:10380800FF3E031D012C71087302031D0D2C700867
:103818007202031C162C7008F2027108031CF303D1
:10382800F302771401300310F10CF00CFF3E031D76
:10383800172C0130F502031D002C76080319292CDA
:10384800F709F809F70A0319F80A7808F100770860
:10385800F00008000310831203136A0D6B0D831622
:103868000313A000200883120313ED006D08031D45
:10387800462C0030EB000030EA000030E900003050
:10388800E8000800680883160313A00083120313D6
:10389800690883160313A100831203136A088316A9
:1038A8000313A200831203136B0883160313A300E8
:1038B8001F300310A30CA20CA10CA00CFF3E031D8B
:1038C8005D2C2008A400240883120313EC00EA17D7
:1038D800FF30E805FF30E905FF30EA050030EB0569
:1038E8009630ED02ED1F912C6D08803A973E031C2F
:1038F8003D2C01300310EB0CEA0CE90CE80CFF3E00
:10390800031D7E2C013083160313A00020088312A8
:103918000313ED070319AC2C7D2C20306D0203181E
:103928003D2C6D080319AC2C013083160313A0003D
:10393800031083120313E80DE90DEA0DEB0D83164E
:103948000313A00B9C2C013083120313ED02952C5A
:103958006C0803190800E809E909EA09EB09E80A0B
:103968000319E90A0319EA0A0319EB0A08000030E7
:103978007005F80000307105F90080307205FA0012
:103988007F307305FB007B087A0479047804031DF3
:10399800D52C0030F3000030F2000030F100003088
:1039A800F00000307405F80000307505F90080302B
:1039B8007605FA007F307705FB007B087A047904E6
:1039C8007804031DEF2C0030F7000030F6000030BB
:1039D800F5000030F400F31F152D0030F80000301A
:1039E800F9000030FA008030FB007008F802710816
:1039F800031C710F002D012DF9027208031C720FB0
:103A0800062D072DFA027308031C730F0C2D0D2DBC
:103A1800FB027B08F3007A08F2007908F1007808C5
:103A2800F000F71F3B2D0030F8000030F90000309F
:103A3800FA008030FB007408F8027508031C750F43
:103A4800262D272DF9027608031C760F2C2D2D2DF7
:103A5800FA027708031C770F322D332DFB027B08FF
:103A6800F7007A08F6007908F5007808F400803045
:103A7800F3068030F70677087302031D08007608FE
:103A88007202031D080075087102031D08007408FE
:103A98007002080083120313A0002008031DF81FFA
:103AA800652D7509A2007609A3007709A400780995
:103AB800A500A20A0319A30A0319A40A0319A50A4F
:103AC8006D2D7808A5007708A4007608A30075086E
:103AD800A2007808770476047504031D7C2D003055
:103AE800F8000030F7000030F6000030F50008005C
:103AF8009630F9007908A100FE3025050319AD2D8F
:103B08000130F9007908A10701300310A50CA40CB5
:103B1800A30CA20CFF3E031D892D802D0130F90056
:103B28007908A1070130A207003003180130A30764
:103B3800003003180130A407003003180130A5072E
:103B480001300310A50CA40CA30CA20CFF3E031D0E
:103B5800A52DFF3025050319C12D922D0230210214
:103B6800031CC32D0130A1020130F9000310A20D7E
:103B7800A30DA40DA50DF90BBA2DA41FB22D211864
:103B8800CD2DFF30A205FF30A3057F30A405FF30FF
:103B9800A5050310A10C2108F900FA01FB01FC019D
:103BA80018300310F90DFA0DFB0DFC0DFF3E031D37
:103BB800D52D7908A2047A08A3047B08A4047C08FC
:103BC800A5042008031DF81FEA2DA5172508F800ED
:103BD8002408F7002308F6002208F50008008312DD
:103BE80003136D0883160313A00001300310A00D02
:103BF800FF3E031DFA2D0310200D831203136C07DB
:103C080084000A168A1500200A168A1583160313DB
:103C1800A1000A168A1500200A168A15A2000A169B
:103C28008A1500200A168A15A3000A168A1500208C
:103C38000A168A15A4002408A8002308A700220849
:103C4800A6002108A500831203136D086E0403194A
:103C5800BF2EFF30ED070318EE0AFF30EE076D08A0
:103C680083160313A00001300310A00DFF3E031DAF
:103C7800382E0310200D831203136C0784000A16D4
:103C88008A1500200A168A1583160313A1000A163E
:103C98008A1500200A168A15A2000A168A1500201D
:103CA8000A168A15A3000A168A1500200A168A150C
:103CB800A400240883120313A30083160313230804
:103CC80083120313A200831603132208831203131B
:103CD800A10083160313210883120313A00083167F
:103CE8000313280883120313D1008316031327082C
:103CF80083120313D00083160313260883120313B9
:103D0800CF0083160313250883120313CE006B0814
:103D1800D5006A08D4006908D3006808D2000A12DE
:103D28008A15EB240A168A15831203135108A70073
:103D38005008A6004F08A5004E08A4000A168A11CC
:103D48003E230A168A1583120313230883160313C6
:103D5800A80083120313220883160313A7008312F3
:103D68000313210883160313A600831203132008E4
:103D780083160313262E83160313280883120313AE
:103D8800EB0083160313270883120313EA00831634
:103D98000313260883120313E90083160313250867
:103DA80083120313E80008008316031328088312FC
:103DB8000313EB0083160313270883120313EA0087
:103DC80083160313260883120313E90083160313CB
:103DD800250883120313E8000A168A152E240A16EA
:103DE8008A1583120313690883160313B400831218
:103DF8000313680883160313B3003308F500340867
:103E0800F6000030F61BFF30F700F80001300A1604
:103E18008A154E250A168A15780883120313EB00B3
:103E28007708EA007608E9007508E80083160313A6
:103E3800280883120313EF0083160313270883123D
:103E48000313EE0083160313260883120313ED00F1
:103E580083160313250883120313EC000A168A1528
:103E6800FB220A168A15831203136B0883160313A1
:103E7800AC00831203136A0883160313AB00831282
:103E88000313690883160313AA008312031368082F
:103E980083160313A9002C0883120313D500831675
:103EA80003132B0883120313D400831603132A0861
:103EB80083120313D30083160313290883120313F1
:103EC800D2004230D100C830D0000030CF000030DE
:103ED800CE000A128A15EB240A168A1583120313D8
:103EE8005108EB005008EA004F08E9004E08E800C6
:103EF8000A168A152E240A168A15831203136908CE
:103F080083160313B200831203136808831603137E
:103F1800B1000A30F0000030F1003408F300330833
:103F2800F2000A168A158A230A168A15710883165A
:103F38000313AE007008AD000A30F0000030F10045
:103F48003408F3003308F2000A168A15D5230A1636
:103F58008A15710883160313B4007008B3000A3079
:103F6800F0000030F1003208F3003108F2000A16C0
:103F78008A158A230A168A15710883160313B00056
:103F88007008AF000A30F0000030F1003208F3008A
:103F98003108F2000A168A15D5230A168A157108FF
:103FA80083160313B2007008B1003308303E0A12BA
:103FB8008A1104200A168A15831603132D08303E29
:103FC8000A128A1104200A168A152E300A128A113A
:103FD80004200A168A15831603133108303E0A1284
:103FE8008A1104200A168A15831603132F08303EF7
:083FF8000A128A1104200800DE
:02400E007A3FF7
:00000001FF
