:020000040000FA
:100000000A128A11E42FF201831603130817F30171
:100010008316031308138312031308130330F0002D
:10002000F00B102883160313081783120313081FFD
:1000300026280130F000730A1F280310F00DFF3E40
:10004000031D1D287008F1007108F2046330F000F0
:10005000F00B28282B280130F0007008F307083037
:100060007302031C082872080800473084000A3015
:10007000FF0083138001840AFF0B39281030F00041
:100080002730F100831203134608F3004508F200FD
:100090000A128A1502230A128A11710883120313A5
:1000A000D0007008CF001030F0002730F100460873
:1000B000F3004508F2000A128A1595220A128A11E5
:1000C000710883120313CE007008CD00E830F000F1
:1000D0000330F1004E08F3004D08F2000A128A15B1
:1000E00095220A128A11710883120313CC0070083A
:1000F000CB00E830F0000330F1004E08F3004D086B
:10010000F2000A128A1502230A128A117108831258
:100110000313CE007008CD006430F0000030F10011
:100120004C08F3004B08F2000A128A1595220A12B5
:100130008A11710883120313CA007008C900643061
:10014000F0000030F1004C08F3004B08F2000A12F6
:100150008A1502230A128A11710883120313CC0034
:100160007008CB000A30F0000030F1004A08F300BC
:100170004908F2000A128A1595220A128A1171089A
:1001800083120313C8007008C7000A30F000003063
:10019000F1004A08F3004908F2000A128A15022306
:1001A0000A128A11710883120313CA007008C90069
:1001B0004F085004031D25294D084E04031DFE2839
:1001C0004B08303E0A128A15A7210A128A112E30D6
:1001D0000A128A15A7210A128A11831203134908E9
:1001E000303E0A128A15A7210A128A1183120313BC
:1001F0004708303E0A128A15A72108004D08303EF4
:100200000A128A15A7210A128A11831203134B08B6
:10021000303E0A128A15A7210A128A112E300A12BC
:100220008A15A7210A128A11831203134908303E46
:100230000A128A15A7210A128A118312031347088A
:10024000303E0A128A15A72108004F08303E0A12D4
:100250008A15A7210A128A11831203134D08303E12
:100260000A128A15A7210A128A11831203134B0856
:10027000303E0A128A15A7210A128A112E300A125C
:100280008A15A7210A128A11831203134908303EE6
:100290000A128A15A7210A128A118312031347082A
:1002A000303E0A128A15A72108008312031323087F
:1002B0008039A8002808AD002308A8002807A90055
:1002C0002908B300A21B3314330803197429330A15
:1002D000031D72290030A3000030A2000030A100ED
:1002E0000030A000A2177C290030A3000030A2003B
:1002F0000030A1000030A00027088039A80028089D
:10030000AD062708A8002807A9002908B200A61BE7
:100310003214320803199929320A031D9729003033
:10032000A7000030A6000030A5000030A400A617EA
:10033000A1290030A7000030A6000030A500003041
:10034000A4003208031D3308031DAF290030A300A9
:100350000030A2000030A1000030A00008002008FA
:10036000A8002808F00026080A128A1541220A125D
:100370008A11710883120313B9007008B800380895
:10038000A800A901AA01AB012B08B1002A08B000FE
:100390002908AF002808AE003908A800A901AA0161
:1003A000AB012B08B7002A08B6002908B5002808B9
:1003B000B4002108A8002808F00025080A128A15B0
:1003C00041220A128A11710883120313B9007008BE
:1003D000B8003808A800A901AA01AB012808AE0797
:1003E000290803110318013E031DAF072A08031152
:1003F0000318013E031DB0072B0803110318013E2B
:10040000031DB1073908A800A901AA01AB012808FA
:10041000B407290803110318013E031DB5072A0874
:1004200003110318013E031DB6072B08031103181F
:10043000013E031DB7072208A8002808F000240881
:100440000A128A1541220A128A11710883120313B3
:10045000B9007008B8003808A800A901AA01AB01CA
:100460002808AE07290803110318013E031DAF0732
:100470002A0803110318013E031DB0072B080311BE
:100480000318013E031DB1073908A800A901AA01FC
:10049000AB012808B407290803110318013E031D06
:1004A000B5072A0803110318013E031DB6072B08E0
:1004B00003110318013E031DB7070830A8000310FD
:1004C000AE0DAF0DB00DB10DA80B5F2A2108A8002D
:1004D0002808F00024080A128A1541220A128A11FB
:1004E000710883120313B9007008B8003808A80017
:1004F0003908A900AA01AB012808AE072908031191
:100500000318013E031DAF072A0803110318013E1B
:10051000031DB0072B0803110318013E031DB1078B
:100520002008A8002808F00025080A128A15412290
:100530000A128A11710883120313B9007008B800F7
:100540003808A8003908A900AA01AB012808AE079D
:10055000290803110318013E031DAF072A080311E0
:100560000318013E031DB0072B0803110318013EB9
:10057000031DB1070830A8000310AE0DAF0DB00D7C
:10058000B10DA80BBC2A2008A8002808F0002408F8
:100590000A128A1541220A128A1171088312031362
:1005A000B9007008B8003808A8003908A900AA01E5
:1005B000AB012808AE07290803110318013E031DEB
:1005C000AF072A0803110318013E031DB0072B08CB
:1005D00003110318013E031DB1072108A8002808D4
:1005E000F00026080A128A1541220A128A1171089F
:1005F00083120313B9007008B8003808A80039083E
:10060000A900AA01AB012808B4072908031103189F
:10061000013E031DB5072A0803110318013E031DFF
:10062000B6072B0803110318013E031DB707220864
:10063000A8002808F00025080A128A1541220A128B
:100640008A11710883120313B9007008B8003808C2
:10065000A8003908A900AA01AB012808B407290895
:1006600003110318013E031DB5072A0803110318DF
:10067000013E031DB6072B0803110318013E031D9D
:10068000B7072208A8002808F00026080A128A15D1
:1006900041220A128A11710883120313B9007008EB
:1006A000B8003808A8003908A900AA01AB01083031
:1006B0000310A80DA90DAA0DAB0DFF3E031D582B6D
:1006C0002808B407290803110318013E031DB507C4
:1006D0002A0803110318013E031DB6072B08031156
:1006E0000318013E031DB7072E08A8002F08A90014
:1006F0003008AA003108AB0018300310AB0CAA0C6C
:10070000A90CA80CFF3E031D7D2B2808B40729085F
:1007100003110318013E031DB5072A08031103182E
:10072000013E031DB6072B0803110318013E031DEC
:10073000B7070830A8000310AE0DAF0DB00DB10D16
:10074000A80B9B2B33083207A800A901A90D280884
:10075000823EB80029080318013EFF3EB900B61BCF
:10076000CC2B0130A8000310B40DB50DB60DB70D9C
:10077000A80BB32BB11B34140130A8000310AE0D2D
:10078000AF0DB00DB10DA80BBE2BFF30B80703188D
:10079000B90AFF30B907AF2BB201B11FE52BFF300B
:1007A0002E05A800FF302F05A900FF303005AA0054
:1007B0007F303105AB002B082A04290428040319D3
:1007C0003418E32BE52BB201B20A32080319172CB7
:1007D0000130B407003003180130B50700300318AA
:1007E0000130B607003003180130B707371C172C4B
:1007F0003408A8003508A9003608AA003708AB005D
:100800000130AC002B0DAB0CAA0CA90CA80CAC0B46
:10081000022C2B08B7002A08B6002908B5002808C2
:10082000B4000130B8070318B90A0030B907390815
:10083000803AFF0080307F02031D202CFF303802F9
:10084000031C2D2C7F3083120313B7008030B600B9
:100850000030B5000030B4005D2C8312031339085A
:10086000803AFF0080307F02031D382C01303802AF
:100870000318462C003083120313B7000030B60073
:100880000030B5000030B400AD015D2C83120313BD
:100890003808A8002808B300FF30B405FF30B505BC
:1008A0007F30B6050030B7053318B6173308A800F7
:1008B0000310280CA9002908B7002D08A800280853
:1008C000B7043708A3003608A2003508A100340891
:1008D000A0000800FF3083160313880085018601FD
:1008E000003083120313DB000030DA000030D9003F
:1008F0000030D8000A128A15FC230A128A110A1243
:100900008A1564220A128A11003A0319A02C803039
:100910000A128A153E230A128A1118300A128A1501
:100920001F220A128A11C0300A128A153E230A12A7
:100930008A113B300A128A151F220A128A117F2C53
:100940002A300A128A151F220A128A110A128A15DF
:1009500064220A128A114E300A128A15C7220A121C
:100960008A1100300A128A15C7220A128A11003031
:100970000A128A15C7220A128A117F300A128A15B2
:10098000C7220A128A110A128A1564220A128A11CF
:10099000CC300A128A15C7220A128A1144300A1270
:1009A0008A15C7220A128A110A128A1103200A1212
:1009B0008A11FF3A031DEC2C0D3083120313D30070
:1009C000AF30D200B530D100D10BE42CD20BE42CE7
:1009D000D30BE42CEB2CD42C0A128A1564220A12B5
:1009E0008A11CC300A128A15C7220A128A11BE3027
:1009F0000A128A15C7220A128A110A128A110320C2
:100A00000A128A1183120313D100D2015108DC00AB
:100A10005208DD000A128A1103200A128A11831279
:100A20000313D100D2015108DE005208DF00DE1F9F
:100A3000B42E5F08E3005E08E20008300310E20D08
:100A4000E30DFF3E031D1E2D5C086204E2005D08FD
:100A50006304E3006208FF3EE20063080318013EFE
:100A6000FF3EE300E209E30904300310E30CE20C6B
:100A7000FF3E031D352D6308F1006208F00064306D
:100A8000F2000030F3000A128A15DC210A128A11E2
:100A9000710883120313E3007008E2005D08E100AF
:100AA0005C08E0006008FF3EE00061080318013EBA
:100AB000FF3EE100E009E1090F306005E000003091
:100AC0006105E1006008F0006108F100F201F30146
:100AD00000300A128A151E250A128A117308831221
:100AE0000313A7007208A6007108A5007008A400EF
:100AF0004030A300C830A2000030A1000030A000A8
:100B00000A128A1155210A128A118312031323082B
:100B1000BD002208BC002108BB002008BA000A1250
:100B20008A158F230A128A11831203133B08E100EE
:100B30003A08E00060086207F00061080318610AE3
:100B40006307F100F201F30100300A128A151E2535
:100B50000A128A11730883120313E7007208E60071
:100B60007108E5007008E4006B08EF006A08EE0009
:100B70006908ED006808EC006708AB006608AA0089
:100B80006508A9006408A8006F08AF006E08AE00F1
:100B90006D08AD006C08AC000A128A15FD210A121E
:100BA0008A11831203132B08D7002A08D6002908BC
:100BB000D5002808D4006F08AB006E08AA006D08A5
:100BC000A9006C08A8006708AF006608AE006508B9
:100BD000AD006408AC000A128A15FD210A128A11C0
:100BE000831203132B08DB002A08DA002908D90036
:100BF0002808D8004130F300A030F2000030F100A6
:100C00000030F0005708F7005608F6005508F500C8
:100C10005408F4000A128A158B240A128A11031C44
:100C20002A2E4130F300A030F2000030F1000030F5
:100C3000F000831203135B08F7005A08F600590806
:100C4000F5005808F4000A128A158B240A128A113A
:100C50000318742E831203136708EB006608EA007A
:100C60006508E9006408E80080300A128A153E230E
:100C70000A128A114C300A128A151F220A128A118E
:100C8000C0300A128A153E230A128A1161300A12F4
:100C90008A151F220A128A11831203136B08BD00E2
:100CA0006A08BC006908BB006808BA000A128A1505
:100CB0008F230A128A11831203133B08C6003A08D5
:100CC000C50005300A128A1135200A128A11DF3058
:100CD0000A128A15A7210A128A115B300A128A1594
:100CE0001F220A128A117F2C80300A128A153E2395
:100CF0000A128A114C300A128A151F220A128A110E
:100D0000C0300A128A153E230A128A1161300A1273
:100D10008A151F220A128A11831203136F08BD005D
:100D20006E08BC006D08BB006C08BA000A128A1578
:100D30008F230A128A11831203133B08C6003A0854
:100D4000C50005300A128A1135200A128A11DF30D7
:100D50000A128A15A7210A128A115B300A128A1513
:100D60001F220A128A117F2C5E08D200D1015C0872
:100D70005107F0005D0803185D0A5207F100F20107
:100D8000F30100300A128A151E250A128A1173080F
:100D900083120313E7007208E6007108E50070088B
:100DA000E4004030A300C830A2000030A1000030B1
:100DB000A0006708A7006608A6006508A5006408EB
:100DC000A4000A128A1155210A128A1183120313F0
:100DD0002308E7002208E6002108E5002008E400D7
:100DE0006B08EF006A08EE006908ED006808EC0087
:100DF0006708AB006608AA006508A9006408A80097
:100E00006F08AF006E08AE006D08AD006C08AC0056
:100E10000A128A15FD210A128A11831203132B0864
:100E2000D7002A08D6002908D5002808D4006F0862
:100E3000AB006E08AA006D08A9006C08A80067083E
:100E4000AF006608AE006508AD006408AC000A1289
:100E50008A15FD210A128A11831203132B08DB0065
:100E60002A08DA002908D9002808D8004130F30000
:100E7000A030F2000030F1000030F0005708F70019
:100E80005608F6005508F5005408F4000A128A15B1
:100E90008B240A128A11031C662F4130F300A03004
:100EA000F2000030F1000030F000831203135B0801
:100EB000F7005A08F6005908F5005808F4000A121D
:100EC0008A158B240A128A110318AA2F831203137E
:100ED0006708EB006608EA006508E9006408E800B6
:100EE00080300A128A153E230A128A1101300A1232
:100EF0008A151F220A128A11C0300A128A153E234F
:100F00000A128A11831203136B08BD006A08BC0021
:100F10006908BB006808BA000A128A158F230A12F2
:100F20008A11831203133B08C6003A08C500053036
:100F30000A128A1135200A128A11DF300A128A1524
:100F4000A7210A128A115B300A128A151F220A127F
:100F50008A117F2C80300A128A153E230A128A11C8
:100F600001300A128A151F220A128A11C0300A1291
:100F70008A153E230A128A11831203136F08BD00DB
:100F80006E08BC006D08BB006C08BA000A128A1516
:100F90008F230A128A11831203133B08C6003A08F2
:100FA000C50005300A128A1135200A128A11DF3075
:100FB0000A128A15A7210A128A115B300A128A15B1
:100FC0001F220A128A117F2C83120313E801E90100
:100FD000EA01EB01EC01ED01EE01EF0183160313D1
:100FE000A001A101A201A301A401A501A601A701DD
:100FF000A801A901AA01AB0183010A128A116A2C76
:1010000008308A000408840A8207003454344534C6
:101010004D345034453452344134543455345234C0
:101020004534203449344E342034433445344C3430
:101030004334493455345334003450346C346534BB
:10104000613473346534203443346F346E346E3419
:101050006534633474342034203420340034203434
:1010600020342034203420342034203420342034E0
:1010700020342034203420342034203420340034F0
:10108000543465346D3470342D34533465346E34D7
:10109000733465342034503472346F3462346534C0
:1010A00000344334693472346334753469347434CD
:1010B0002034443469346734653473347434003410
:1010C0004334203420342034203400342D34003490
:10134E00F800013083160313AA000030AB0083129D
:10135E000313061478080A128A153E230800F201B8
:10136E00F301F201F30171087302031DC029700825
:10137E007202031808000130F2070318F30A003056
:10138E00F307BA29F40083120313061086107408AB
:10139E00860006152C30F0000130F1000A128A1575
:1013AE00B6218312031306110800F401F501701C17
:1013BE00E6297208F4070318F50A7308F5070130D9
:1013CE000310F20DF30DFF3E031DE729013003104C
:1013DE00F10CF00CFF3E031DEE2970087104031D85
:1013EE00DE297508F1007408F000080080308312C1
:1013FE000313AB062F08F3002E08F2002D08F100A0
:10140E002C08F0002B08F7002A08F6002908F50032
:10141E002808F4000A128A15C125730883120313D3
:10142E00AB007208AA007108A9007008A800080095
:10143E00FB00F901FA0179087B0784000A128A156C
:10144E0000200A128A15003A0319080079087B0752
:10145E0084000A128A1500200A128A150A128A15A9
:10146E00A7210A128A150130F9070318FA0A00306B
:10147E00FA07222AF800F401F5017008F200F301D0
:10148E007208F6007308F700781C532A7608F407E2
:10149E000318F50A7708F50701300310F60DF70D5E
:1014AE00FF3E031D542A0310F80C7808031D4B2A27
:1014BE007508F1007408F000080083160313081372
:1014CE008312031308130430F1001C30F000F00BEC
:1014DE006E2AF10B6E2A0000831603130817633071
:1014EE00F000F00B782A7B2A83120313081B8A2A3A
:1014FE000430F1001C30F000F00B832AF10B832A2C
:10150E000000003008000430F1001C30F000F00B39
:10151E008E2AF10B8E2A000001300800700871042B
:10152E000319C22AF501F50AF11BA92A013003108D
:10153E00F00DF10DFF3E031D9E2A0130F4007408DC
:10154E00F5079B2A71087302031DAF2A70087202F9
:10155E00031CB72A7008F2027108031CF303F3028E
:10156E0001300310F10CF00CFF3E031DB82A0130C0
:10157E00F502031DA92A7308F1007208F000080095
:10158E00F100831603130817F2010130F000720AFE
:10159E00D22A0310F00DFF3E031DD02A70087105EC
:1015AE000319EB2A8316031308138312031308136C
:1015BE00E02AE12A00008316031308176330F000B7
:1015CE00F00BE72AEA2AF92A83160313081383126B
:1015DE00031308136330F000F00BF32AF62A831678
:1015EE00031308170130F0007008F207083072027A
:1015FE0003180800CC2AF501F601700871040319CE
:10160E00392BF701F70AF11B182B01300310F00DDF
:10161E00F10DFF3E031D0D2B0130F4007408F7078A
:10162E000A2B01300310F50DF60DFF3E031D192B8D
:10163E0071087302031D252B70087202031C2E2BDA
:10164E007008F2027108031CF303F30275140130E3
:10165E000310F10CF00CFF3E031D2F2B0130F7028F
:10166E00031D182B7608F1007508F0000800F6002F
:10167E00831603132A082B040319482BAA01AB0166
:10168E004B2B831203130610831286107608F40078
:10169E007408F700F030F4007408F7050F30F4000A
:1016AE00740886057708F4007408860406152C3035
:1016BE00F0000130F1000A128A15B6210A128A15BD
:1016CE008312031306117608F40003300310F40D91
:1016DE00FF3E031D6D2B0310740DF5007508F7000A
:1016EE00F030F4007408F7050F30F4007408860526
:1016FE007708F4007408860406152C30F0000130CB
:10170E00F1000A128A15B62183120313061108007E
:10171E000310831203133C0D3D0DBE003E08C400A2
:10172E004408031DA32B0030BD000030BC00003068
:10173E00BB000030BA0008003A08BE003B08BF00EC
:10174E003C08C0003D08C1001F300310C10CC00C86
:10175E00BF0CBE0CFF3E031DAC2B3E08C200420860
:10176E00C300BC17FF30BA05FF30BB05FF30BC0508
:10177E000030BD059630C402C41FDA2B4408803AEF
:10178E00973E031C9A2B01300310BD0CBC0CBB0CF6
:10179E00BA0CFF3E031DCB2B0130BE003E08C40722
:1017AE000319ED2BCA2B2030440203189A2B440840
:1017BE000319ED2B0130BE000310BA0DBB0DBC0D8D
:1017CE00BD0DBE0BE32B0130C402DE2B4308031903
:1017DE000800BA09BB09BC09BD09BA0A0319BB0A3C
:1017EE000319BC0A0319BD0A08002C30F0000130A1
:1017FE00F1000A128A15B6210A128A1530300A1221
:10180E008A15C9210A128A152C30F0000130F10018
:10181E000A128A15B6210A128A1530300A128A1552
:10182E00C9210A128A152C30F0000130F1000A127B
:10183E008A15B6210A128A1530300A128A15C92164
:10184E000A128A152C30F0000130F1000A128A15A6
:10185E00B6210A128A1520300A128A15C9210A12D7
:10186E008A152C30F0000130F1000A128A15B621CB
:10187E000A128A150C300A128A153E230A128A158C
:10188E002C30F0000130F1000A128A15B6210A122E
:10189E008A1504300A128A153E230A128A152C3034
:1018AE00F0000130F1000A128A15B6210A128A15CB
:1018BE0085300A128A153E230A128A152C30F00042
:1018CE000130F1000A128A15B6210A128A15063065
:1018DE000A128A153E230A128A152C30F0000130A6
:1018EE00F1000A128A15B6210A128A1501300A125F
:1018FE008A153E230A128A152C30F0000130F100B1
:10190E000A128A15B621080000307005F800003062
:10191E007105F90080307205FA007F307305FB0007
:10192E007B087A0479047804031DA52C0030F3009B
:10193E000030F2000030F1000030F000003074058D
:10194E00F80000307505F90080307605FA007F301A
:10195E007705FB007B087A0479047804031DBF2CFD
:10196E000030F7000030F6000030F5000030F400D3
:10197E00F31FE52C0030F8000030F9000030FA00BB
:10198E008030FB007008F8027108031C710FD02C18
:10199E00D12CF9027208031C720FD62CD72CFA0226
:1019AE007308031C730FDC2CDD2CFB027B08F30089
:1019BE007A08F2007908F1007808F000F71F0B2D75
:1019CE000030F8000030F9000030FA008030FB00E3
:1019DE007408F8027508031C750FF62CF72CF90223
:1019EE007608031C760FFC2CFD2CFA027708031CDC
:1019FE00770F022D032DFB027B08F7007A08F60005
:101A0E007908F5007808F4008030F3068030F70688
:101A1E0077087302031D080076087202031D080082
:101A2E0075087102031D0800740870020800F800A2
:101A3E007808031DF31F332D7009FA007109FB009E
:101A4E007209FC007309FD00FA0A0319FB0A031957
:101A5E00FC0A0319FD0A3B2D7308FD007208FC00F9
:101A6E007108FB007008FA007308720471047004A8
:101A7E00031D4A2D0030F3000030F2000030F1005B
:101A8E000030F00008009630F4007408F900FE30C3
:101A9E007D0503197B2D0130F4007408F907013020
:101AAE000310FD0CFC0CFB0CFA0CFF3E031D572D16
:101ABE004E2D0130F4007408F9070130FA0700309A
:101ACE0003180130FB07003003180130FC0700300B
:101ADE0003180130FD0701300310FD0CFC0CFB0C4C
:101AEE00FA0CFF3E031D732DFF307D0503198F2D5C
:101AFE00602D02307902031C912D0130F902013064
:101B0E00F4000310FA0DFB0DFC0DFD0DF40B882DEA
:101B1E00FC1F802D79189B2DFF30FA05FF30FB0539
:101B2E007F30FC05FF30FD050310F90C7908F40039
:101B3E00F501F601F70118300310F40DF50DF60D51
:101B4E00F70DFF3E031DA32D7408FA047508FB0460
:101B5E007608FC047708FD047808031DF31FB82DE2
:101B6E00FD177D08F3007C08F2007B08F1007A086F
:101B7E00F00008007308803983120313A0002008B8
:101B8E00F8007308A0002007A1002108FA00F21B3C
:101B9E007A147A080319E12D7A0A031DDE2D00301E
:101BAE00F3000030F2000030F1000030F000F217C8
:101BBE00F301E92D0030F3000030F2000030F100A7
:101BCE000030F00077088039A0002008F90079086D
:101BDE007806031D78177708A0002007A1002108BA
:101BEE00F900F61B7914790803190B2E790A031DD7
:101BFE00082E0030F7000030F6000030F5000030FF
:101C0E00F400F617F701132E0030F7000030F6003F
:101C1E000030F5000030F4007A0879020318592ECE
:101C2E00781F1D2E8030A0002008F8067A08A0002C
:101C3E002008FB007908A0002008FA007B08A0000D
:101C4E002008F9007008A0002008FB007408A0000E
:101C5E002008F0007B08A0002008F4007108A00006
:101C6E002008FB007508A0002008F1007B08A000EA
:101C7E002008F5007208A0002008FB007608A000DE
:101C8E002008F2007B08A0002008F6007308A000D0
:101C9E002008FB007708A0002008F3007B08A000B6
:101CAE002008F700FB017908A000A1012108A3007C
:101CBE007A082002A200031CA3032308803AFF0027
:101CCE0080307F02031D6D2E1A302202031CAA2EB5
:101CDE0073087204710470040319772E0130782E84
:101CEE00003083120313A0002008FB000030F30025
:101CFE000030F2000030F1000030F0007908A00052
:101D0E002008FA00AE2E7B1C972E7B08831203133D
:101D1E00A0000310200C0138A1002108FB00992E11
:101D2E000310FB0C7018FB17013083120313A00075
:101D3E00730DF30CF20CF10CF00CA00B9F2E013076
:101D4E00A0002008FA0779087A02031C8A2E781B55
:101D5E00F32E7A08031DBC2E0030F3000030F20083
:101D6E000030F1000030F00008007408F00775082C
:101D7E0003110318013E031DF10776080311031822
:101D8E00013E031DF207770803110318013E031DE0
:101D9E00F307731C992F7B1CDF2E7B088312031312
:101DAE00A0000310200C0138A1002108FB00E12E39
:101DBE000310FB0C7018FB17013083120313A000E5
:101DCE00730DF30CF20CF10CF00CA00BE72E01309E
:101DDE00A0002008FA07992F7308803AFF007708B1
:101DEE00803A7F02031D052F76087202031D052F10
:101DFE0075087102031D052F7408700203185F2FFA
:101E0E00FF3083120313A000FF30A100FF30A200A9
:101E1E00FF30A3007408A4007508A5007608A6007C
:101E2E007708A7007008A4027108031C710F202FF9
:101E3E00212FA5027208031C720F262F272FA60230
:101E4E007308031C730F2C2F2D2FA7022408A00735
:101E5E0025080318250F342F352FA1072608031840
:101E6E00260F3A2F3B2FA20727080318270AA3078E
:101E7E002308F3002208F2002108F1002008F000E8
:101E8E008030A0002008F806FB09FB0A7B08031D22
:101E9E006D2F0130F007003003180130F1070030CC
:101EAE0003180130F207003003180130F3076D2FCD
:101EBE007408F0027508031C750FF1027608031CF6
:101ECE00760FF2027708031C770FF3027308720481
:101EDE0071047004031D972F7B08031D972F00308C
:101EEE00F3000030F2000030F1000030F000080086
:101EFE00013083120313A0000310F00DF10DF20D4B
:101F0E00F30DA00B832FFB1B70147B1C902F03145F
:101F1E00912F0310FB0D7A080319972F0130FA0247
:101F2E00F21F7F2FF901FB1FA42F7B087F390319A6
:101F3E007018A22FA42FF901F90A79080319D92FC5
:101F4E000130F007003003180130F107003003189C
:101F5E000130F207003003180130F307731CD92F3C
:101F6E00700883120313A0007108A1007208A2006A
:101F7E007308A3000130A400230DA30CA20CA10C26
:101F8E00A00CA40BC32F2308F3002208F200210893
:101F9E00F1002008F0007A0A0319D92F0130A000B1
:101FAE002008FA077A0A031D7A08031DE92F00306C
:101FBE00F3000030F2000030F1000030F0007A083B
:101FCE000319F8017A1CED2FF217F32F7F308312CD
:101FDE000313A0002008F2057A0883120313A00051
:101FEE000310200CA1002108F300F81F0800F317BE
:021FFE000800D9
:02400E007A3FF7
:00000001FF
