:060000000A128A11F82F1C
:100010004A08CE004B08CF004C08D00003104F0D0B
:10002000500DD1005108D7005708031D202800307B
:10003000CD000030CC000030CB000030CA000800FA
:100040004A08CE004B08CF004C08D00017300310F0
:10005000D00CCF0CCE0CFF3E031D27284E08D1003C
:100060005108D200CB17FF30CA05FF30CB05003056
:10007000CC054A08D3004B08D4004C08D500D60163
:100080008E30D702D71F59285708803A8F3E031C5D
:10009000172801300310D60CD50CD40CD30CFF3E1E
:1000A000031D4A280130CE004E08D70703196C28DB
:1000B00049281830570203181728570803196C28C5
:1000C0000130CE000310D30DD40DD50DD60DCE0BBF
:1000D00062280130D7025D28520803197A28D30913
:1000E000D409D509D609D30A0319D40A0319D50AA4
:1000F0000319D60A5608CD005508CC005408CB0089
:100100005308CA0008005408AA005508AB00560856
:10011000AC000A128A150D220A128A1183122A08CB
:10012000E2002B08E3002C08E40064086304620486
:10013000031DA1280030D4000030D5000030D600C7
:1001400008000030F0008030F1003F30F20062081B
:10015000F3006308F4006408F5000A128A155822B7
:100160000A128A110318B6280130B728003083120A
:10017000D7005708DE005E080319D5286208AA00D8
:100180006308AB006408AC000030AD008030AE0006
:100190003F30AF000A128A1505240A128A112A0874
:1001A000E2002B08E3002C08E4006208BA006308B0
:1001B000BB006408BC006208BD006308BE006408A0
:1001C000BF000A128A159E240A128A113A08DF001B
:1001D0003B08E0003C08E1005F08CA006008CB0073
:1001E0006108CC001330D7005708CD000430CE0092
:1001F0000030CF000A128A1595230A128A114A0884
:10020000D8004B08D9004C08DA005F08CA00600823
:10021000CB006108CC000130D7005708CD00053075
:10022000CE000030CF000A128A1595230A128A11D7
:100230004A08DB004B08DC004C08DD005B08AD0021
:100240005C08AE005D08AF005808AA005908AB0072
:100250005A08AC000A128A1505240A128A112A08C3
:10026000BA002B08BB002C08BC006208BD00630864
:10027000BE006408BF000A128A159E240A128A1161
:100280003A08E2003B08E3003C08E4005E0803197A
:1002900060296208CA006308CB006408CC001030F3
:1002A000CD00C930CE003F30CF000A128A15AB21F5
:1002B0000A128A114A08E2004B08E3004C08E400E5
:1002C0005408F0005508F1005608F2000030F30021
:1002D0000030F4000030F5000A128A1558220A1284
:1002E0008A11031C7B2983126208D4006308D5009D
:1002F0006408D600080083126208A7006308A800FB
:100300006408A9000A128A1547212708D400280882
:10031000D5002908D60008006508AA006608AB00C9
:100320006708AC000A128A150D220A128A1183127C
:100330002A088316A60083122B088316A7008312AF
:100340002C088316A8000030F0008030F1003F3008
:10035000F2002608F3002708F4002808F5000A1226
:100360008A1558220A128A110318C32921308316CC
:10037000EB000030EC0000308312E5000030E600B6
:100380000030E700080083126508BA006608BB0069
:100390006708BC006508BD006608BE006708BF00AE
:1003A0000A128A159E240A128A113A08CA003B08CA
:1003B000CB003C08CC000030CD008030CE003F3078
:1003C000CF000A128A15AB210A128A114A08831635
:1003D000A30083124B088316A40083124C088316D3
:1003E000A50023088312D000831624088312D100AD
:1003F000831625088312D2000A128A1507260A12CC
:100400008A1150088316AC00831251088316AD0080
:10041000831252088316AE0083126508AA0066088C
:10042000AB006708AC000A128A150D220A128A1165
:1004300083122A088316A60083122B088316A700AE
:1004400083122C088316A8002608F0002708F10064
:100450002808F200C330F3003530F4003F30F500D7
:100460000A128A1558220A128A1103186E2A831654
:100470002C088312AA0083162D088312AB00831662
:100480002E088312AC006508AD006608AE00670850
:10049000AF000A128A1505240A128A112A08831647
:1004A000AF0083122B088316B00083122C0883162A
:1004B000B1002F088312D400831630088312D500B0
:1004C000831631088312D6000A128A118320540839
:1004D000E5005508E6005608E700080083126508A5
:1004E000F0006608F1006708F2000030F300003009
:1004F000F4000030F5000A128A1558220A128A11F7
:100500000318F22A83162C088312A70083162D08DD
:100510008312A80083162E088312A9000A128A15D6
:1005200047210A128A112708AD002808AE002908C1
:10053000AF006508AA006608AB006708AC000A12A5
:100540008A1505240A128A112A088316AF0083121D
:100550002B088316B00083122C088316B1002F08D5
:100560008312D400831630088312D5008316310815
:100570008312D6000A128A1183200A128A115408A3
:100580008316A900831255088316AA008312560801
:100590008316AB0010308312CD00C930CE003F303F
:1005A000CF00831629088312CA0083162A088312F3
:1005B000CB0083162B088312CC000A128A15AB21BC
:1005C0000A128A114A08A7004B08A8004C08A90083
:1005D0000A128A1547212708E5002808E60029089D
:1005E000E700080083126508AA006608AB006708E8
:1005F000AC0083162C088312AD0083162D088312DD
:10060000AE0083162E088312AF000A128A15052445
:100610000A128A112A088316AF0083122B08831648
:10062000B00083122C088316B1002F088312D40067
:10063000831630088312D500831631088312D60042
:100640000A128A1183200A128A1154088316A900FB
:10065000831255088316AA00831256088316AB002E
:1006600029088312CA0083162A088312CB00831636
:100670002B088312CC001030CD00C930CE003F30A3
:10068000CF000A128A15AB214A08E5004B08E600A4
:100690004C08E70008008316860106140A128A1522
:1006A0004F210A128A110A128A1569210A128A1127
:1006B00022300A128A158F210A128A110D300A126D
:1006C0008A153F210A128A1146300A128A158F2193
:1006D0000A128A110D300A128A153F210A128A1154
:1006E0000A128A154F210A128A1100300A128A153D
:1006F000EA210A128A117108F9007008F8000A123A
:100700008A157B210A128A1178088316D30079088A
:10071000D4007A08D50001300A128A15EA210A129B
:100720008A117108F9007008F8000A128A157B21F5
:100730000A128A1178088316D6007908D7007A0839
:10074000D80002300A128A15EA210A128A117108A9
:10075000F9007008F8000A128A157B210A128A1122
:1007600078088316D9007908DA007A08DB000330AC
:100770000A128A15EA210A128A117108F900700812
:10078000F8000A128A157B210A128A11780883164A
:10079000DC007908DD007A08DE0004300A128A15D0
:1007A000EA210A128A117108F9007008F8000A1289
:1007B0008A157B210A128A1178088316DF007908CE
:1007C000E0007A08E1005F08F8006008F9006108BD
:1007D000FA005608FB005708FC005808FD000A12F2
:1007E0008A15FA260A128A1178088312BA00790843
:1007F000BB007A08BC0083165F08F8006008F900A7
:100800006108FA005608FB005708FC005808FD0074
:100810000A128A15FA260A128A1178088312BD0074
:100820007908BE007A08BF000A128A159E240A12AF
:100830008A113A088316C40083123B088316C50048
:1008400083123C088316C6005C08F8005D08F900B6
:100850005E08FA005308FB005408FC005508FD0030
:100860000A128A15FA260A128A1178088312BA0027
:100870007908BB007A08BC0083165C08F8005D08A4
:10088000F9005E08FA005308FB005408FC00550804
:10089000FD000A128A15FA260A128A1178088312B4
:1008A000BD007908BE007A08BF000A128A159E248E
:1008B0000A128A113A088316C70083123B0883166E
:1008C000C80083123C088316C9004408F800450894
:1008D000F9004608FA004708FB004808FC004908F0
:1008E000FD000A128A15FA260A128A117808831660
:1008F000CA007908CB007A08CC0059088312BA00E4
:1009000083165A088312BB0083165B088312BC004F
:10091000831659088312BD0083165A088312BE003D
:1009200083165B088312BF000A128A159E240A12DE
:100930008A113A08F8003B08F9003C08FA008316CF
:100940004A08FB004B08FC004C08FD000A128A15FF
:10095000FA260A128A1178088316CD007908CE008B
:100960007A08CF004D088312D00083164E088312F8
:10097000D10083164F088312D2000A128A15072667
:100980000A128A1150088316D00083125108831668
:10099000D100831252088316D2000030F800803054
:1009A000F9003F30FA005008FB005108FC005208E3
:1009B000FD000A128A15FA260A128A11780883168F
:1009C000E2007908E3007A08E40062088312AA00D2
:1009D000831663088312AB00831664088312AC008D
:1009E000831653088312AD00831654088312AE0099
:1009F000831655088312AF000A128A1505240A12BD
:100A00008A112A088316E50083122B088316E60054
:100A100083122C088316E70065088312E80083160A
:100A200066088312E900831667088312EA000A1237
:100A30008A1531220A128A1168088316E800831287
:100A400069088316E90083126A088316EA002930D0
:100A50008312BA006530BB004230BC0083166808C0
:100A60008312BD00831669088312BE0083166A08CC
:100A70008312BF000A128A159E240A128A113A08AC
:100A80008316B50083123B088316B60083123C0818
:100A90008316B70062088312AA00831663088312C4
:100AA000AB00831664088312AC00831656088312C9
:100AB000AD00831657088312AE00831658088312C0
:100AC000AF000A128A1505240A128A112A08831611
:100AD000E50083122B088316E60083122C08831688
:100AE000E70065088312E800831666088312E900B0
:100AF000831667088312EA000A128A1531220A1245
:100B00008A1168088316E800831269088316E900D1
:100B100083126A088316EA0029308312BA0065300E
:100B2000BB004230BC00831668088312BD008316E8
:100B300069088312BE0083166A088312BF000A1276
:100B40008A159E240A128A113A088316B800831265
:100B50003B088316B90083123C088316BA0062086A
:100B60008312AA00831663088312AB0083166408FD
:100B70008312AC00831659088312AD0083165A08FD
:100B80008312AE0083165B088312AF000A128A1527
:100B900005240A128A112A088316E50083122B08FD
:100BA0008316E60083122C088316E700650883127B
:100BB000E800831666088312E9008316670883122B
:100BC000EA000A128A1531220A128A11680883166D
:100BD000E800831269088316E90083126A08831605
:100BE000EA0029308312BA006530BB004230BC00F5
:100BF000831668088312BD00831669088312BE003D
:100C000083166A088312BF000A128A159E240A12EC
:100C10008A113A088316BB0083123B088316BC0076
:100C200083123C088316BD0062088312AA00831653
:100C300063088312AB00831664088312AC0083162A
:100C40005C088312AD0083165D088312AE00831624
:100C50005E088312AF000A128A1505240A128A114F
:100C60002A088316E50083122B088316E6008312F8
:100C70002C088316E70065088312E80083166608CF
:100C80008312E900831667088312EA000A128A15A4
:100C900031220A128A1168088316E8008312690853
:100CA0008316E90083126A088316EA00293083124A
:100CB000BA006530BB004230BC008316680883125E
:100CC000BD00831669088312BE0083166A0883126A
:100CD000BF000A128A159E240A128A113A08831646
:100CE000BE0083123B088316BF0083123C088316A4
:100CF000C00062088312AA00831663088312AB0047
:100D0000831664088312AC0083165F088312AD005B
:100D1000831660088312AE00831661088312AF0049
:100D20000A128A1505240A128A112A088316E50078
:100D300083122B088316E60083122C088316E70023
:100D400065088312E800831666088312E90083169B
:100D500067088312EA000A128A1531220A128A11E0
:100D600068088316E800831269088316E900831275
:100D70006A088316EA0029308312BA006530BB0086
:100D80004230BC00831668088312BD0083166908D0
:100D90008312BE0083166A088312BF000A128A15E6
:100DA0009E240A128A113A088316C10083123B0856
:100DB0008316C20083123C088316C30060300A12F7
:100DC0008A158F210A128A11831635088312D800DA
:100DD000831636088312D900831637088312DA0087
:100DE0000A128A1552250A128A110D300A128A1522
:100DF0003F210A128A11831653088312D8008316E2
:100E000054088312D900831655088312DA000A1297
:100E10008A1552250A128A110D300A128A153F21AD
:100E20000A128A1177300A128A158F210A128A1142
:100E3000831638088312D800831639088312D90024
:100E400083163A088312DA000A128A1552250A120A
:100E50008A110D300A128A153F210A128A1183164F
:100E600056088312D800831657088312D9008316B8
:100E700058088312DA000A128A1552250A128A11BA
:100E80000D300A128A153F210A128A1181300A1286
:100E90008A158F210A128A1183163B088312D80003
:100EA00083163C088312D90083163D088312DA00AA
:100EB0000A128A1552250A128A110D300A128A1551
:100EC0003F210A128A1183165C088312D800831608
:100ED0005D088312D90083165E088312DA000A12B5
:100EE0008A1552250A128A110D300A128A153F21DD
:100EF0000A128A115C300A128A158F210A128A118D
:100F000083163E088312D80083163F088312D90047
:100F1000831640088312DA000A128A1552250A1233
:100F20008A110D300A128A153F210A128A1183167E
:100F30005F088312D800831660088312D9008316D5
:100F400061088312DA000A128A1552250A128A11E0
:100F50000D300A128A153F210A128A116A300A12CC
:100F60008A158F210A128A11831641088312D8002C
:100F7000831642088312D900831643088312DA00CD
:100F80000A128A1552250A128A110D300A128A1580
:100F90003F210A128A11831659088312D80083163A
:100FA0005A088312D90083165B088312DA000A12EA
:100FB0008A1552250A128A110D300A128A153F210C
:100FC0000A128A111A3083160313B4005E30B3007C
:100FD0006D30B200B20BEA2FB30BEA2FB40BEA2F3D
:100FE000F12F0D300A128A153F210A128A116A2B3D
:100FF00083160313EB01EC0183010A128A114B2BB8
:1010000008308A000408840A820700343C3404341F
:1010100042349F346A3442349034013442344D3483
:10102000BB344034EC3447343E348E341F34BB344C
:101030003C34043442345A348B344234043444341F
:1010400042349C344F344134003480343F3455347E
:1010500041345234543420344D346F346434753454
:101060006C346534203449346E34693474346934F2
:1010700061346C3469347A346534643420346134D6
:101080006E346434203461346334743469347634B7
:1010900065340A340034533455344E3420345334D8
:1010A00045344E3453344F345234203457344F3453
:1010B00052344B3449344E3447342E342E342E348B
:1010C000003420344E3445344734203458342034EE
:1010D00041345834493453343A34203400342034C1
:1010E0004E34453447342034593420344134583454
:1010F000493453343A3400342034593420344134A0
:101100005834493453343A342034003420345A3477
:10111000203441345834493453343A342034003480
:10127E00F000831203130C1E402970089900080019
:10128E00290828042704031908008030A90608003D
:10129E00803083129F00803083169F0083121F14AC
:1012AE000800F300F201731C60297008F100710848
:1012BE00F2070310F00D0310F30C7308031D5A29E7
:1012CE0072080800831607138717813099001815C6
:1012DE0018128312981783169816831218168316EF
:1012EE0018138312181308007808F0007908F1001B
:1012FE00F2018E30FB007B08F300F4010A128A150E
:10130E0029237008F8007108F9007208FA00080025
:10131E00F200720884000A128A1500200A128A1539
:10132E00003A03190800720884000A128A15002078
:10133E000A128A150A128A153F210A128A150130DD
:10134E00F1007108F20790294C084B044A04031966
:10135E00B2298030CC064D08F8004E08F9004F082F
:10136E00FA004A08FB004B08FC004C08FD000A126C
:10137E008A15FA2678088312CA007908CB007A08F3
:10138E00CC000800FD01F91FD329F809F909F80A64
:10139E000319F90AFD01FD0A7808F0007908F10039
:1013AE00F2018E30FB007B08F3007D08FC007C0808
:1013BE00F4000A128A1529237008F8007108F90042
:1013CE007208FA000800F4007408F20002300310EC
:1013DE00F20DFF3E031DEE290310720DF30073088C
:1013EE0083129F040D30F300FB30F200F20BFD2947
:1013FE00F30BFD29022A831203131F151F19052A49
:10140E001E08F10083161E08F00008002A08F000DE
:10141E002B08F1002C08F2000030F3000030F4002D
:10142E000030F5000A128A1558220A128A1503187E
:10143E00080083122A08A7002B08A8002C08A90070
:10144E000A128A1547212708AA002808AB00290886
:10145E00AC0008006808E5006908E6006A08E700C5
:10146E000A128A118C210A128A156508EB00660889
:10147E00EC006708ED006B08CA006C08CB006D0825
:10148E00CC001030CD00C930CE003F30CF000A1254
:10149E008A15AB214A08E8004B08E9004C08EA001F
:1014AE000800F21F672A7008003CF0007108031C48
:1014BE00710F003CF1007208031C720F803CF200A9
:1014CE00F51F762A7308003CF3007408031C740F92
:1014DE00003CF4007508031C750F803CF50080304D
:1014EE00F2068030F50675087202031D08007408B6
:1014FE007102031D0800730870020800F601F31F45
:10150E008F2AF209F309F20A0319F30AF601F60A11
:10151E00F11F962AF009F109F00A0319F10A700871
:10152E0071040319C32AF501F50AF11BAA2A013029
:10153E000310F00DF10DFF3E031D9F2A0130F40044
:10154E007408F5079C2A71087302031DB02A7008EF
:10155E007202031CB82A7008F2027108031CF3030E
:10156E00F30201300310F10CF00CFF3E031DB92AFB
:10157E000130F502031DAA2A76080319CB2AF209B7
:10158E00F309F20A0319F30A7308F1007208F00066
:10159E000800F601F11FDA2AF009F109F00A031921
:1015AE00F10AF601F60AF31FE52AF209F309F20A27
:1015BE000319F30A0130F4007408F606F701F80176
:1015CE007008710403191C2BF501F50AF11BFB2A97
:1015DE0001300310F00DF10DFF3E031DF02A013016
:1015EE00F4007408F507ED2A01300310F70DF80D1D
:1015FE00FF3E031DFC2A71087302031D082B7008A1
:10160E007202031C112B7008F2027108031CF30303
:10161E00F302771401300310F10CF00CFF3E031DA2
:10162E00122B0130F502031DFB2A76080319242B19
:10163E00F709F809F70A0319F80A7808F10077088C
:10164E00F000080073080319312B7208710470043E
:10165E00031D442B0030F0000030F1000030F2008A
:10166E0008000130F5007508F30701300310F20C85
:10167E00F10CF00CFF3E031D3D2BFE3072050319DD
:10168E005F2B382B0130F5007508F3070130F0079A
:10169E00003003180130F107003003180130F20753
:1016AE0001300310F20CF10CF00CFF3E031D582B11
:1016BE00FF3072050319722B492B02307302031C83
:1016CE00742B0130F30201300310F00DF10DF20D09
:1016DE00FF3E031D6B2BF11F642B73187C2BFF3009
:1016EE00F0057F30F105FF30F2050310F30C73089F
:1016FE00F500F601F70110300310F50DF60DF70D9C
:10170E00FF3E031D832B7508F0047608F10477085D
:10171E00F204740803190800F21708000330D00011
:10172E005008F0004E080A128A1558210A128A151E
:10173E004D0784000A128A1500200A128A15D1005C
:10174E000A128A1500200A128A15D2000A128A1568
:10175E0000200A128A15D3004E084F040319FE2BDF
:10176E000330D0005008F000FF30CE070318CF0A28
:10177E00FF30CF074E080A128A1558210A128A1511
:10178E004D0784000A128A1500200A128A15F800E5
:10179E000A128A1500200A128A15F9000A128A15F1
:1017AE0000200A128A15FA005108BA005208BB002E
:1017BE005308BC004A08BD004B08BE004C08BF00D1
:1017CE000A128A159E240A128A153A08FB003B0853
:1017DE00FC003C08FD000A128A15FA260A128A1528
:1017EE0078088312D1007908D2007A08B22B5108FA
:1017FE00CA005208CB005308CC0008002D08B000D8
:10180E002E08B1002F08B2000310310D320DB300B7
:10181E003308B8003808031D1B2C0030AA00003016
:10182E00AB000030AC0008002A08B0002B08B10055
:10183E002C08B2000310310D320DB3003308B9007D
:10184E003908031D312C0030AA000030AB000030E7
:10185E00AC0008000030B5000030B6000030B70014
:10186E0089303907B0003008B8022F08B0003008B0
:10187E00B9002C08B0003008B9068030B00030082E
:10188E00B905AE17FF30AD05FF30AE050030AF0520
:10189E00AB17FF30AA05FF30AB050030AC05183092
:1018AE00B0003008B40001300310B50DB60DB70D01
:1018BE00FF3E031D5B2C2C082F02031D6C2C2B08E6
:1018CE002E02031D6C2C2A082D02031C792C2A08CB
:1018DE00AD022B08031C2B0FAE022C08031C2C0A86
:1018EE00AF02351401300310AD0DAE0DAF0DFF3E3E
:1018FE00031D7A2C0130B402031D5A2C3508F0005A
:10190E003608F1003708F2003808B0003008F3004E
:10191E003908B1003108F4000A128A15292370081B
:10192E008312AA007108AB007208AC0008003A08D6
:10193E00C0003B08C1003C08C2000310410D420D1F
:10194E00C3004308C4004408031DB42C0030BA0081
:10195E000030BB000030BC0008003D08C0003E084F
:10196E00C1003F08C2000310410D420DC3004308E1
:10197E00C9004908031DCA2C0030BA000030BB0054
:10198E000030BC00080049087B3EC0004008C40778
:10199E003C08C0004008C9003F08C0004008C90606
:1019AE008030C0004008C905BB17BE17FF30BD050B
:1019BE00FF30BE050030BF050030C5000030C60048
:1019CE000030C7000730C0004008C8003A1CFD2C8C
:1019DE003D08C5073E08031103183E0A031DC6073E
:1019EE003F08031103183F0A031DC70701300310F8
:1019FE00BC0CBB0CBA0CFF3E031DFE2C01300310B9
:101A0E00BD0DBE0DBF0DFF3E031D062D0130C802DC
:101A1E00031DED2C0930C0004008C8003A1C252DCE
:101A2E003D08C5073E08031103183E0A031DC607ED
:101A3E003F08031103183F0A031DC70701300310A7
:101A4E00BC0CBB0CBA0CFF3E031D262D013003103F
:101A5E00C70CC60CC50CFF3E031D2E2D0130C8024F
:101A6E00031D152D4508F0004608F1004708F20049
:101A7E004408C0004008F3004908C1004108F400C2
:101A8E000A128A15292370088312BA007108BB0046
:101A9E007208BC0008005808CA005908CB005A0842
:101AAE00CC000A128A1108200A128A154B08E5008A
:101ABE004A08E4006508F9006408F8000A128A155D
:101ACE00C9210A128A1578088312CA007908CB0038
:101ADE007A08CC005808CD005908CE005A08CF001D
:101AEE000A128A15AB210A128A154A08DB004B0826
:101AFE00DC004C08DD005B08BD005C08BE005D0824
:101B0E00BF000030BA00C830BB004230BC000A1221
:101B1E008A159E240A128A153A08CA003B08CB0081
:101B2E003C08CC000A128A1108200A128A154B08AA
:101B3E00E3004A08E2000A30F0000030F1006508C8
:101B4E00F3006408F2000A128A1585220A128A1519
:101B5E007108DF007008DE000A30F0000030F1007E
:101B6E006508F3006408F2000A128A15D0220A12E0
:101B7E008A157108E5007008E4000A30F0000030A4
:101B8E00F1006308F3006208F2000A128A1585223A
:101B9E000A128A157108E1007008E0000A30F000A0
:101BAE000030F1006308F3006208F2000A128A1591
:101BBE00D0220A128A157108E3007008E200640848
:101BCE00303E0A128A153F210A128A155E08303EEF
:101BDE000A128A153F210A128A152E300A128A1508
:101BEE003F210A128A156208303E0A128A153F21D9
:101BFE000A128A156008303E0A128A153F21080023
:101C0E000030F0000030F1000030F2005008F30018
:101C1E005108F4005208F5000A128A1558220A12C9
:101C2E008A15031C3B2E83125008F0005108F10058
:101C3E005208F2000030F3000030F4000030F500DE
:101C4E000A128A1558220A128A150318332E2130C9
:101C5E008316EB000030EC0000308312D000003011
:101C6E00D1000030D200080083125008D90051086C
:101C7E00DA005208DB005008C83CE0005108031C93
:101C8E00510F6E3CE1005208031C520FBE3CE200A5
:101C9E0001300310E20CE10CE00CFF3E031D502E50
:101CAE000030D3008030D4000030D5005308D90264
:101CBE005408031C540F642E652EDA025508031CBB
:101CCE00550ADB020430D3005308DC005908BA0071
:101CDE005A08BB005B08BC006008BD006108BE006E
:101CEE006208BF000A128A159E240A128A153A0843
:101CFE00DD003B08DE003C08DF006008BA0061082A
:101D0E00BB006208BC005D08BD005E08BE005F0837
:101D1E00BF000A128A159E240A128A153A08DD009F
:101D2E003B08DE003C08DF006008BA006108BB001B
:101D3E006208BC005D08BD005E08BE005F08BF0003
:101D4E000A128A159E240A128A153A08DD003B08EB
:101D5E00DE003C08DF000030BA00C030BB003F3070
:101D6E00BC006008BD006108BE006208BF000A1218
:101D7E008A159E240A128A153A08E0003B08E100F3
:101D8E003C08E2005D08CA005E08CB005F08CC008C
:101D9E006008CD006108CE006208CF000A128A15D5
:101DAE00AB210A128A154A08E0004B08E1004C08E4
:101DBE00E2000130DC02031D6D2E5008BA005108FE
:101DCE00BB005208BC006008BD006108BE0062087E
:101DDE00BF000A128A159E243A08D0003B08D10093
:101DEE003C08D200080078088312A0007908A100F0
:101DFE007A08A2000310210D220DA3002308A600CD
:101E0E007B08A0007C08A1007D08A2000310210D14
:101E1E00220DA3002308A50026080319222F25084A
:101E2E0026020318292F2508A0002608A002193023
:101E3E002002031C292F7B08F8007C08F9007D087E
:101E4E00FA000800250803190800260825020318C1
:101E5E00382F2608A0002508A002193020020318EA
:101E6E0008000630A0002008A400FA1BA417FD1BD2
:101E7E002417F917FF30F805FF30F9050030FA0581
:101E8E00FC17FF30FB05FF30FC050030FD05250873
:101E9E0026020318782F01300310FB0DFC0DFD0DEB
:101EAE00FF3E031D532F0130A502250826060319F8
:101EBE00732F0130A402240807390319732F522FF0
:101ECE0001300310FA0CF90CF80CFF3E031D682FBD
:101EDE000130A0002008A607260825060319A12F09
:101EEE00672F260825020318A12F01300310F80DC5
:101EFE00F90DFA0DFF3E031D7D2F0130A6022508B8
:101F0E00260603199D2F0130A40224080739031950
:101F1E009D2F7C2F01300310FD0CFC0CFB0CFF3EA3
:101F2E00031D922F0130A0002008A50726082506C4
:101F3E00031D912FA41FB32FFF30F806FF30F906B3
:101F4E00FF30FA060130F807003003180130F907A8
:101F5E00003003180130FA07241FC52FFF30FB068F
:101F6E00FF30FC06FF30FD060130FB070030031882
:101F7E000130FC07003003180130FD07A40178087A
:101F8E00FB07790803110318790A031DFC077A0869
:101F9E00031103187A0A031DFD07FD1FE82FFF30FA
:101FAE00FB06FF30FC06FF30FD060130FB0700305C
:101FBE0003180130FC07003003180130FD07A4019F
:101FCE00A40A7B08F0007C08F1007D08F2002608C8
:101FDE00A0002008F3002408A1002108F4000A1232
:101FEE008A1529237008F8007108F9007208FA00A2
:021FFE000800D9
:02400E007A3FF7
:00000001FF
