:020000040000FA
:060000000A128A11F02F24
:100C660000300A128A1169260A128A1101300A1204
:100C76008A11692608007E088A007F0882003E26BF
:100C86000A128A118000840A04087D0603190034BA
:100C9600FF0A0319FE0A422EF000701C562E83121C
:100CA60003130816592E831203130812F01C5D2E27
:100CB60088165E2E8812701D622E0817632E081382
:100CC600F01D672E8817080088130800F3008312AA
:100CD6000313081173080A128A114F260A128A1181
:100CE6008312031388151A30F200F830F100F10B65
:100CF6007A2EF20B7A2E0000831203138811080055
:100D06003134323433343434353436343734383499
:100D1600393430343134323433343434353436348F
:100D26000034543448344934533420344934533429
:100D360020345534503445344E34443452344134DE
:100D4600003483120313A200A001A1012008220788
:100D5600FD007D088400831300080319080020089D
:100D66002207FD007D08840000080A128A11C626A3
:100D76000A128A11013083120313A0070318A10A6D
:100D86000030A107A92EF40074080F39F10071088C
:100D9600F2007408F039F1007108F30083120313AE
:100DA60008157308F10004300310F10CFF3E031D13
:100DB600D72E71080A128A114F260A128A11831237
:100DC60003138815881172080A128A114F26831296
:100DD6000313881588110800F7007703031D142FE5
:100DE60074087F3EF5007508FA007A08F5000430AD
:100DF6000310F50CFF3E031DFB2E7508F600760862
:100E0600F8007A080F39F5007508F90078080A1213
:100E16008A1169260A128A1179080A128A11692624
:100E2600080002307706031D08007408BF3EF5006F
:100E36007508FA007A08F50004300310F50CFF3E39
:100E4600031D202F7508F6007608F8007A080F397A
:100E5600F5007508F90078080A128A1169260A123F
:100E66008A1179080A128A116926080000300A12C6
:100E76008A114F260A128A1103300A128A1169262C
:100E86000A128A112130F5007630F400F40B492F4E
:100E9600F50B492F000003300A128A1169260A123F
:100EA6008A114830F5006C30F400F40B582FF50B1E
:100EB600582F000003300A128A1169260A128A1175
:100EC60002300A128A1169260A128A1102300A129F
:100ED6008A1169260A128A1108300A128A116926AD
:100EE6000A128A1100300A128A1169260A128A1118
:100EF6000C300A128A1169260A128A1100300A1267
:100F06008A1169260A128A1106300A128A1169267E
:100F160008002B3084004C3083120313A70004080A
:100F2600A8001130A9002708840083130008AA002E
:100F3600A70A280884002A088000A80AA90B962F69
:100F46003C3084005D30A7000408A8001030A900DA
:100F56002708840083130008AA00A70A280884002B
:100F66002A088000A80AA90BAB2F83160313880151
:100F76000A128A1139270A128A110A128A1133268D
:100F86000A128A11F401F40A01300A128A11EF26B4
:100F96000A128A112B300A128A11A4260A128A1101
:100FA600F401F40A02300A128A11EF260A128A1193
:100FB6003C300A128A11A4260A128A1108308312BA
:100FC6000313A9009D30A8000530A700A70BE92F41
:100FD600A80BE92FA90BE92FC02F83136D30FD0055
:100FE6000630FE008330FF004C3084000A128A115E
:0A0FF600422683010A128A118C2F93
:02400E003A3F37
:00000001FF
