:060000000A128A11EB2F29
:10000A00F30083120313081173080A168A11EA27E8
:10001A000A128A1188151A30F200F830F100F10B31
:10002A001428F20B14280000831203138811080005
:10003A005A08F0005B08F1005C08F2000A128A15FF
:10004A0071230A128A11710883160317E4007008D3
:10005A00E3006408F9006308F8000A128A1576209A
:10006A000A128A11780883120313CA007908CB008E
:10007A007A08CC005A08CD005B08CE005C08CF0095
:10008A000A128A1557200A128A114A088316031778
:10009A00E000831203134B0883160317E10083124F
:1000AA0003134C0883160317E2002C308312031340
:1000BA00DD005D08CA008316031764088312031360
:1000CA00CC0083160317630883120313CB00003096
:1000DA00BA00C830BB004230BC0083160317600860
:1000EA0083120313BD0083160317610883120313D7
:1000FA00BE0083160317620883120313BF000A1295
:10010A008A1586240A128A113A08CD003B08CE00C5
:10011A003C08CF0090300A128A153B250A128A1130
:10012A0090300A128A15392008005408AA00550886
:10013A00AB005608AC000A128A15BB200A128A11B3
:10014A0083122A08E2002B08E3002C08E400640862
:10015A0063046204031DB8280030D4000030D500BF
:10016A000030D60008000030F0008030F1003F3047
:10017A00F2006208F3006308F4006408F5000A124A
:10018A008A1506210A128A110318CD280130CE28B1
:10019A0000308312D7005708DE005E080319EC28E6
:1001AA006208AA006308AB006408AC000030AD0026
:1001BA008030AE003F30AF000A128A15EC230A12D3
:1001CA008A112A08E2002B08E3002C08E4006208DE
:1001DA00BA006308BB006408BC006208BD0063087B
:1001EA00BE006408BF000A128A1586240A128A1100
:1001FA003A08DF003B08E0003C08E1005F08CA005B
:10020A006008CB006108CC001D30D7005708CD002C
:10021A000430CE000030CF000A128A1500230A12D9
:10022A008A114A08D8004B08D9004C08DA005F083E
:10023A00CA006008CB006108CC000B30D700570811
:10024A00CD000530CE000030CF000A128A150023F7
:10025A000A128A114A08DB004B08DC004C08DD0050
:10026A005B08AD005C08AE005D08AF005808AA0044
:10027A005908AB005A08AC000A128A15EC230A1274
:10028A008A112A08BA002B08BB002C08BC00620895
:10029A00BD006308BE006408BF000A128A158624DE
:1002AA000A128A113A08E2003B08E3003C08E4001B
:1002BA005E08031977296208CA006308CB0064083C
:1002CA00CC001030CD00C930CE003F30CF000A122A
:1002DA008A1557200A128A114A08E2004B08E300DD
:1002EA004C08E4005408F0005508F1005608F200E2
:1002FA000030F3000030F4000030F5000A128A15CD
:10030A0006210A128A11031C922983126208D40058
:10031A006308D5006408D600080083126208A700A3
:10032A006308A8006408A9000A168A118927270801
:10033A00D4002808D5002908D60008006508AA00B4
:10034A006608AB006708AC000A128A15BB200A12BD
:10035A008A1183122A088316A60083122B08831691
:10036A00A70083122C088316A8000030F000803002
:10037A00F1003F30F2002608F3002708F4002808AD
:10038A00F5000A128A1506210A128A110318DA29B7
:10039A0021308316B5000030B60000308312E50024
:1003AA000030E6000030E700080083126508BA0052
:1003BA006608BB006708BC006508BD006608BE0089
:1003CA006708BF000A128A1586240A128A113A0897
:1003DA00CA003B08CB003C08CC000030CD0080307E
:1003EA00CE003F30CF000A128A1557200A128A110E
:1003FA004A088316A30083124B088316A4008312AB
:10040A004C088316A50023088312D00083162408FB
:10041A008312D100831625088312D2000A128A1584
:10042A0007260A128A1150088316AC008312510853
:10043A008316AD00831252088316AE008312650834
:10044A00AA006608AB006708AC000A128A15BB202E
:10045A000A128A1183122A088316A60083122B080D
:10046A008316A70083122C088316A8002608F0001A
:10047A002708F1002808F200C330F3003530F400F1
:10048A003F30F5000A128A1506210A128A1103184A
:10049A00852A83162C088312AA0083162D08831234
:1004AA00AB0083162E088312AC006508AD006608FF
:1004BA00AE006708AF000A128A15EC230A128A11E5
:1004CA002A088316AF0083122B088316B000831202
:1004DA002C088316B1002F088312D4008316300823
:1004EA008312D500831631088312D6000A128A11A4
:1004FA009A205408E5005508E6005608E700080067
:10050A0083126508F0006608F1006708F2000030FF
:10051A00F3000030F4000030F5000A128A150621B3
:10052A000A128A110318092B83162C088312A700B2
:10053A0083162D088312A80083162E088312A90099
:10054A000A168A1189270A128A112708AD00280873
:10055A00AE002908AF006508AA006608AB00670864
:10056A00AC000A128A15EC230A128A112A08831689
:10057A00AF0083122B088316B00083122C0883164F
:10058A00B1002F088312D400831630088312D500D5
:10059A00831631088312D6000A128A119A200A1287
:1005AA008A1154088316A900831255088316AA00D3
:1005BA00831256088316AB0010308312CD00C9305F
:1005CA00CE003F30CF00831629088312CA00831653
:1005DA002A088312CB0083162B088312CC000A1236
:1005EA008A1557200A128A114A08A7004B08A80040
:1005FA004C08A9000A168A1189272708E500280845
:10060A00E6002908E700080083126508AA006608C0
:10061A00AB006708AC0083162C088312AD00831662
:10062A002D088312AE0083162E088312AF000A1219
:10063A008A15EC230A128A112A088316AF0083123C
:10064A002B088316B00083122C088316B1002F08DA
:10065A008312D400831630088312D500831631081A
:10066A008312D6000A128A119A200A128A11540891
:10067A008316A900831255088316AA008312560806
:10068A008316AB0029088312CA0083162A0883122C
:10069A00CB0083162B088312CC001030CD00C93052
:1006AA00CE003F30CF000A128A1557204A08E500CB
:1006BA004B08E6004C08E700080000300317B100B9
:1006CA000030B2000030B3000030B4000030B50092
:1006DA000030B6000030B7000030B8000030B90072
:1006EA000030BA000030BB000030BC006108900046
:1006FA0062089100630892005E0893005F08940004
:10070A00600895005B0896005C0897005D089800F1
:10071A005808990059089A005A089B0055089C00E5
:10072A0056089D0057089E00831603138801061475
:10073A000A168A1191270A128A110A128A15EB21BE
:10074A000A128A1100300A128A1597200A128A118F
:10075A007108F9007008F8000A168A11D6270A12D9
:10076A008A11780883120317BD007908BE007A0837
:10077A00BF0001300A128A1597200A128A117108DD
:10078A00F9007008F8000A168A11D6270A128A1187
:10079A00780883120317C0007908C1007A08C200DA
:1007AA0002300A128A1597200A128A117108F90072
:1007BA007008F8000A168A11D6270A128A117808D0
:1007CA0083120317C3007908C4007A08C5000330EE
:1007DA000A128A1597200A128A117108F9007008FC
:1007EA00F8000A168A11D6270A128A117808831283
:1007FA000317C6007908C7007A08C80004300A122D
:10080A008A1597200A128A117108F9007008F800EF
:10081A000A168A11D6270A128A1178088312031730
:10082A00C9007908CA007A08CB004908F8004A08C2
:10083A00F9004B08FA004008FB004108FC00420896
:10084A00FD000A128A15FA260A128A1178088312FA
:10085A000313BA007908BB007A08BC0003174908D9
:10086A00F8004A08F9004B08FA004008FB00410862
:10087A00FC004208FD000A128A15FA260A128A1199
:10088A00780883120313BD007908BE007A08BF00F6
:10089A000A128A1586240A128A113A0803179F0037
:1008AA0003133B080317A00003133C080317A10016
:1008BA004608F8004708F9004808FA003D08FB0016
:1008CA003E08FC003F08FD000A128A15FA260A12A1
:1008DA008A11780883120313BA007908BB007A08D0
:1008EA00BC0003174608F8004708F9004808FA0050
:1008FA003D08FB003E08FC003F08FD000A128A156D
:10090A00FA260A128A11780883120313BD0079089D
:10091A00BE007A08BF000A128A1586240A128A11B2
:10092A003A080317A20003133B080317A300031393
:10093A003C080317A4001F08F8002008F900210842
:10094A00FA002208FB002308FC002408FD000A1212
:10095A008A15FA260A128A11780883120317A50043
:10096A007908A6007A08A70043080313BA000317F8
:10097A0044080313BB00031745080313BC000317FD
:10098A0043080313BD00031744080313BE000317EB
:10099A0045080313BF000A128A1586240A128A110F
:1009AA003A08F8003B08F9003C08FA000317250842
:1009BA00FB002608FC002708FD000A128A15FA2601
:1009CA000A128A11780883120317A8007908A90065
:1009DA007A08AA0028080313D0000317290803136A
:1009EA00D10003172A080313D2000A128A15072610
:1009FA000A128A1150080317AB0003135108031790
:100A0A00AC00031352080317AD000030F800803021
:100A1A00F9003F30FA002B08FB002C08FC002D08D7
:100A2A00FD000A128A15FA260A128A117808831218
:100A3A000317CC007908CD007A08CE004C080313BE
:100A4A00AA0003174D080313AB0003174E0803133C
:100A5A00AC0003173D080313AD0003173E08031348
:100A6A00AE0003173F080313AF000A128A15EC23DE
:100A7A000A128A112A080317CF0003132B08031737
:100A8A00D00003132C080317D1004F080313E80002
:100A9A00031750080313E900031751080313EA0068
:100AAA000A128A15DF200A128A1168080317D2006F
:100ABA00031369080317D30003136A080317D40042
:100ACA0029300313BA006530BB004230BC0003175B
:100ADA0052080313BD00031753080313BE0003177C
:100AEA0054080313BF000A128A1586240A128A11AF
:100AFA003A080317AE0003133B080317AF000313AA
:100B0A003C080317B0004C080313AA0003174D084A
:100B1A000313AB0003174E080313AC000317400876
:100B2A000313AD00031741080313AE00031742086D
:100B3A000313AF000A128A15EC230A128A112A0833
:100B4A000317CF0003132B080317D00003132C0835
:100B5A000317D1004F080313E800031750080313C3
:100B6A00E900031751080313EA000A128A15DF2065
:100B7A000A128A1168080317D200031369080317B7
:100B8A00D30003136A080317D40029300313BA00E9
:100B9A006530BB004230BC00031752080313BD0086
:100BAA00031753080313BE00031754080313BF00A7
:100BBA000A128A1586240A128A113A080317B10002
:100BCA0003133B080317B20003133C080317B300CF
:100BDA004C080313AA0003174D080313AB000317AD
:100BEA004E080313AC00031743080313AD000317A1
:100BFA0044080313AE00031745080313AF000A1293
:100C0A008A15EC230A128A112A080317CF00031344
:100C1A002B080317D00003132C080317D1004F0821
:100C2A000313E800031750080313E90003175108D8
:100C3A000313EA000A128A15DF200A128A116808C9
:100C4A000317D200031369080317D30003136A08B2
:100C5A000317D40029300313BA006530BB004230B1
:100C6A00BC00031752080313BD00031753080313EC
:100C7A00BE00031754080313BF000A128A158624FC
:100C8A000A128A113A080317B40003133B08031720
:100C9A00B50003133C080317B6004C080313AA0057
:100CAA0003174D080313AB0003174E080313AC00D8
:100CBA00031746080313AD00031747080313AE00D2
:100CCA00031748080313AF000A128A15EC230A1205
:100CDA008A112A080317CF0003132B080317D00021
:100CEA0003132C080317D1004F080313E800031756
:100CFA0050080313E900031751080313EA000A1204
:100D0A008A15DF200A128A1168080317D200031312
:100D1A0069080317D30003136A080317D40029309C
:100D2A000313BA006530BB004230BC0003175208F7
:100D3A000313BD00031753080313BE000317540817
:100D4A000313BF000A128A1586240A128A113A0866
:100D5A000317B70003133B080317B80003133C0833
:100D6A000317B9004C080313AA0003174D0803130D
:100D7A00AB0003174E080313AC000317490803130B
:100D8A00AD0003174A080313AE0003174B080313F9
:100D9A00AF000A128A15EC230A128A112A080317CD
:100DAA00CF0003132B080317D00003132C080317D3
:100DBA00D1004F080313E800031750080313E90092
:100DCA00031751080313EA000A128A15DF200A12D0
:100DDA008A1168080317D200031369080317D3009E
:100DEA0003136A080317D40029300313BA006530C5
:100DFA00BB004230BC00031752080313BD0003179F
:100E0A0053080313BE00031754080313BF000A1242
:100E1A008A1586240A128A113A080317BA0003139C
:100E2A003B080317BB0003133C080317BC000A1650
:100E3A008A119A270A128A11F401F40A01300A1255
:100E4A008A15A1210A128A1110300A128A1539202C
:100E5A000A128A11831203172E080313DA000317E2
:100E6A002F080313DB00031730080313DC000A12F0
:100E7A008A111D200A128A1108308316B20032081C
:100E8A00F40001300A128A15A1210A128A111330BC
:100E9A000A128A1539200A128A1183120317310895
:100EAA000313DA00031732080313DB0003173308AE
:100EBA000313DC000A128A111D200A128A11F40196
:100ECA00F40A02300A128A15A1210A128A1116306E
:100EDA000A128A1539200A128A1183120317340852
:100EEA000313DA00031735080313DB000317360868
:100EFA000313DC000A128A111D200A128A11083013
:100F0A008316B2003208F40002300A128A15A121AF
:100F1A000A128A1119300A128A1539200A128A11FC
:100F2A008312031737080313DA0003173808031369
:100F3A00DB00031739080313DC000A128A111D208B
:100F4A000A128A11273083160313B4000D30B30036
:100F5A002530B200B20BAF2FB30BAF2FB40BAF2FAC
:100F6A00B62F0A168A119A270A128A11F401F40A6C
:100F7A0001300A128A15A1210A128A111C300A129A
:100F8A008A1539200A128A11831203173A080313A1
:100F9A00DA0003173B080313DB0003173C080313AB
:100FAA00DC000A128A111D200A128A1127308316C0
:100FBA000313B4000D30B3002530B200B20BE32F97
:100FCA00B30BE32FB40BE32FEA2FA72B831764305D
:100FDA00FD001730FE00A530FF00553084000A16C8
:100FEA008A11C9278316B501B601B701B801830171
:100FFA000A128A11622B08308A000408840A8207BE
:10100A000034013400340A34003464340034E834DF
:10101A000334103427343C34043442349F346A3461
:10102A0042349034013442344D34BB344034EC34CD
:10103A0047343E348E341F34BB343C340434423497
:10104A005A348B3442340434443442349C344F345A
:10105A004134003480343F34253464342E3425340A
:04106A0064340034B6
:10107200FC00FA01FB017A087C07F9007908840078
:1010820083170008031908007A087C07F900790819
:10109200840000080A128A153E220A128A150130BB
:1010A200FA070318FB0A0030FB073C284C084B04E4
:1010B2004A0403195E288030CC064D08F8004E0819
:1010C200F9004F08FA004A08FB004B08FC004C08E4
:1010D200FD000A128A15FA26780883120313CA0041
:1010E2007908CB007A08CC000800FD01F91F80289E
:1010F200F809F909F80A0319F90AFD01FD0A780845
:10110200F0007908F100F2018E30FB007B08F30059
:101112007D08FC007C08F4000A128A1594227008EB
:10112200F8007108F9007208FA000800F400740867
:10113200F20002300310F20DFF3E031D9B28031044
:10114200720DF3007308831203139F040D30F30032
:10115200FB30F200F20BAB28F30BAB28B028831262
:1011620003131F151F19B3281E08F10083161E084A
:10117200F00008002A08F0002B08F1002C08F20009
:101182000030F3000030F4000030F5000A128A1536
:1011920006210A128A150318080083122A08A700DA
:1011A2002B08A8002C08A9000A168A1189272708EB
:1011B200AA002808AB002908AC0008006808E5006E
:1011C2006908E6006A08E7000A128A11A3210A12D6
:1011D2008A156508EB006608EC006708ED006B08ED
:1011E200CA006C08CB006D08CC001030CD00C930AD
:1011F200CE003F30CF000A128A1557204A08E80075
:101202004B08E9004C08EA000800F21F1529700893
:10121200003CF0007108031C710F003CF1007208E1
:10122200031C720F803CF200F51F24297308003C56
:10123200F3007408031C740F003CF4007508031CCF
:10124200750F803CF5008030F2068030F506750897
:101252007202031D080074087102031D080073085E
:10126200700208007808790403196029FD01FD0A5B
:10127200F91B472901300310F80DF90DFF3E031D3C
:101282003C290130FC007C08FD07392979087B02E2
:10129200031D4D2978087A02031C55297808FA02A1
:1012A2007908031CFB03FB0201300310F90CF80C54
:1012B200FF3E031D56290130FD02031D47297B080D
:1012C200F9007A08F8000800F501F60170087104C7
:1012D20003199C29F701F70AF11B7B29013003103E
:1012E200F00DF10DFF3E031D70290130F40074086A
:1012F200F7076D2901300310F50DF60DFF3E031DB2
:101302007C2971087302031D882970087202031C6C
:1013120091297008F2027108031CF303F302751499
:1013220001300310F10CF00CFF3E031D9229013035
:10133200F702031D7B297608F1007508F00008000A
:10134200F7007703031DC62974087F3EF500750870
:10135200FA007A08F50004300310F50CFF3E031D75
:10136200AD297508F6007608F8007A080F39F500FD
:101372007508F90078080A128A1105200A128A15DE
:1013820079080A128A110520080002307706031D27
:1013920008007408BF3EF5007508FA007A08F500E7
:1013A20004300310F50CFF3E031DD2297508F60028
:1013B2007608F8007A080F39F5007508F900780800
:1013C2000A128A1105200A128A1579080A128A114C
:1013D2000520080000300A168A11EA270A128A1527
:1013E20003300A128A1105200A128A152130F500EB
:1013F2007630F400F40BFB29F50BFB2900000330D7
:101402000A128A1105200A128A154830F5006C303A
:10141200F400F40B0A2AF50B0A2A000003300A1220
:101422008A1105200A128A1502300A128A11052031
:101432000A128A1502300A128A1105200A128A1526
:1014420008300A128A1105200A128A1500300A127F
:101452008A1105200A128A150C300A128A110520F7
:101462000A128A1500300A128A1105200A128A15F8
:1014720006300A128A1105200800F40074080F3998
:10148200F1007108F2007408F039F1007108F300FC
:10149200831208157308F10004300310F10CFF3EAB
:1014A200031D4E2A71080A168A11EA270A128A15A2
:1014B20088153330F5008230F6000000FF30F50762
:1014C2000318F60AFF30F6077608803AFF008030EC
:1014D2007F02031D6E2A01307502031C5E2A8312ED
:1014E2000313881172080A168A11EA270A128A154A
:1014F20088153330F7008230F8000000FF30F7071C
:101502000318F80AFF30F8077808803AFF008030A5
:101512007F02031D8E2A01307702031C7E2A83126A
:10152200031388110800730803199C2A72087104B6
:101532007004031DAF2A0030F0000030F1000030CB
:10154200F20008000130F5007508F30701300310BE
:10155200F20CF10CF00CFF3E031DA82AFE307205BE
:101562000319CA2AA32A0130F5007508F3070130CE
:10157200F007003003180130F10700300318013082
:10158200F20701300310F20CF10CF00CFF3E031DC8
:10159200C32AFF3072050319DD2AB42A023073020E
:1015A200031CDF2A0130F30201300310F00DF10DAC
:1015B200F20DFF3E031DD62AF11FCF2A7318E72A28
:1015C200FF30F0057F30F105FF30F2050310F30C18
:1015D2007308F500F601F70110300310F50DF60D52
:1015E200F70DFF3E031DEE2A7508F0047608F1049C
:1015F2007708F204740803190800F2170800033090
:10160200D0005008F0004E080A168A11B4270A12B8
:101612008A154D0784000A128A1500200A128A15BB
:10162200D1000A128A1500200A128A15D2000A1263
:101632008A1500200A128A15D3004E084F04031996
:101642006A2B0330D0005008F000FF30CE07031899
:10165200CF0AFF30CF074E080A168A11B4270A12A2
:101662008A154D0784000A128A1500200A128A156B
:10167200F8000A128A1500200A128A15F9000A12C5
:101682008A1500200A128A15FA005108BA00520877
:10169200BB005308BC004A08BD004B08BE004C0802
:1016A200BF000A128A1586240A128A153A08FB001C
:1016B2003B08FC003C08FD000A128A15FA260A12B1
:1016C2008A15780883120313D1007908D2007A08A8
:1016D2001D2B5108CA005208CB005308CC00080049
:1016E2007008F4007108F5007208F6000310750D19
:1016F200760DF7007708FD007D08031D892B003069
:10170200F3000030F2000030F1000030F000080079
:101712007008F4007108F5007208F6001730031023
:10172200F60CF50CF40CFF3E031D902B7408F70029
:101732007708F800F117FF30F005FF30F1050030AF
:10174200F2057008F9007108FA007208FB00FC014A
:101752008E30FD02FD1FC22B7D08803A8F3E031C96
:10176200802B01300310FC0CFB0CFA0CF90CFF3E31
:10177200031DB32B0130F4007408FD070319D52BA8
:10178200B22B18307D020318802B7D080319D52B4C
:101792000130F4000310F90DFA0DFB0DFC0DF40BF2
:1017A200CB2B0130FD02C62B78080319E32BF90974
:1017B200FA09FB09FC09F90A0319FA0A0319FB0AD7
:1017C2000319FC0A7C08F3007B08F2007A08F10096
:1017D2007908F00008002D08B0002E08B1002F088B
:1017E200B2000310310D320DB3003308B8003808CF
:1017F200031D022C0030AA000030AB000030AC0008
:1018020008002A08B0002B08B1002C08B20003100F
:10181200310D320DB3003308B9003908031D182CFD
:101822000030AA000030AB000030AC0008000030ED
:10183200B5000030B6000030B70089303907B0007B
:101842003008B8022F08B0003008B9002C08B000E8
:101852003008B9068030B0003008B905AE17FF3045
:10186200AD05FF30AE050030AF05AB17FF30AA055E
:10187200FF30AB050030AC051830B0003008B400C2
:1018820001300310B50DB60DB70DFF3E031D422CFE
:101892002C082F02031D532C2B082E02031D532C40
:1018A2002A082D02031C602C2A08AD022B08031CF7
:1018B2002B0FAE022C08031C2C0AAF023514013088
:1018C2000310AD0DAE0DAF0DFF3E031D612C0130B7
:1018D200B402031D412C3508F0003608F100370828
:1018E200F2003808B0003008F3003908B1003108BE
:1018F200F4000A128A159422700883120313AA00B4
:101902007108AB007208AC0008003A08C0003B083E
:10191200C1003C08C2000310410D420DC300430840
:10192200C4004408031D9C2C0030BA000030BB00E8
:101932000030BC0008003D08C0003E08C1003F085E
:10194200C2000310410D420DC3004308C9004908FB
:10195200031DB22C0030BA000030BB000030BC00C6
:10196200080049087B3EC0004008C4073C08C0008C
:101972004008C9003F08C0004008C9068030C000C6
:101982004008C905BB17BE17FF30BD05FF30BE05B5
:101992000030BF050030C5000030C6000030C7006F
:1019A2000730C0004008C8003A1CE52C3D08C507B6
:1019B2003E08031103183E0A031DC6073F08031120
:1019C20003183F0A031DC70701300310BC0CBB0CF0
:1019D200BA0CFF3E031DE62C01300310BD0DBE0DF7
:1019E200BF0DFF3E031DEE2C0130C802031DD52C96
:1019F2000930C0004008C8003A1C0D2D3D08C5073B
:101A02003E08031103183E0A031DC6073F080311CF
:101A120003183F0A031DC70701300310BC0CBB0C9F
:101A2200BA0CFF3E031D0E2D01300310C70CC60C6D
:101A3200C50CFF3E031D162D0130C802031DFD2CEF
:101A42004508F0004608F1004708F2004408C000CB
:101A52004008F3004908C1004108F4000A128A153F
:101A62009422700883120313BA007108BB00720833
:101A7200BC000800D8004B30D0005008D300013021
:101A8200CA07FF304A0784000A128A1500200A1288
:101A92008A15D0005008D90059080319022E2530A2
:101AA20059060319602D5908D000580884005008BF
:101AB200831780000130D0005008D807402DD40190
:101AC2000130CA07FF304A0784000A128A15002033
:101AD2000A128A15D900003A0319022E643A031930
:101AE200762D0D3A0319762D402D53088400831369
:101AF2000008D600840A0008D7000230D00050083F
:101B0200D307D71F8D2D0330D0005008D404D60937
:101B1200D709D60A0319D70AD901D90A5908D00018
:101B22005007013E84000A128A1500200A128A1503
:101B3200D1000A128A1500200A128A15D200520810
:101B42005702031DA62D51085602031CB02D013069
:101B5200D0005008D90705305906031D8F2D5408AF
:101B620003390319BF2D2D30D000580884005008C6
:101B7200831780000130D0005008D8075908D000E0
:101B82005008D500FF30D0005008D507550A031978
:101B9200402D0A30F8000030F9005508D0005007F7
:101BA200013E84000A128A1500200A128A15F000EA
:101BB2000A128A1500200A128A15F1005708F3004A
:101BC2005608F2000A128A1565210A128A1571084E
:101BD200FB007008FA000A128A1533210A128A15CC
:101BE2007808303ED1005108D9005908D000580871
:101BF20084005008831780000130D0005008D807B5
:101C0200C32D580884008317800108000030F000BB
:101C12000030F1000030F2005008F3005108F400E7
:101C22005208F5000A128A1506210A128A15031CA7
:101C32003B2E83125008F0005108F1005208F200C6
:101C42000030F3000030F4000030F5000A128A156B
:101C520006210A128A150318332E21308316B50085
:101C62000030B60000308312D0000030D1000030C6
:101C7200D200080083125008D9005108DA00520835
:101C8200DB005008C83CE0005108031C510F6E3CB9
:101C9200E1005208031C520FBE3CE2000130031067
:101CA200E20CE10CE00CFF3E031D502E0030D3008D
:101CB2008030D4000030D5005308D9025408031CE8
:101CC200540F642E652EDA025508031C550ADB02F6
:101CD2000430D3005308DC005908BA005A08BB008C
:101CE2005B08BC006008BD006108BE006208BF005E
:101CF2000A128A1586240A128A153A08DD003B0860
:101D0200DE003C08DF006008BA006108BB00620820
:101D1200BC005D08BD005E08BE005F08BF000A127D
:101D22008A1586240A128A153A08DD003B08DE006D
:101D32003C08DF006008BA006108BB006208BC0012
:101D42005D08BD005E08BE005F08BF000A128A156A
:101D520086240A128A153A08DD003B08DE003C0898
:101D6200DF000030BA00C030BB003F30BC0060086A
:101D7200BD006108BE006208BF000A128A158624EF
:101D82000A128A153A08E0003B08E1003C08E2002A
:101D92005D08CA005E08CB005F08CC006008CD0079
:101DA2006108CE006208CF000A128A1557200A1273
:101DB2008A154A08E0004B08E1004C08E2000130B5
:101DC200DC02031D6D2E5008BA005108BB005208F8
:101DD200BC006008BD006108BE006208BF000A12B4
:101DE2008A1586243A08D0003B08D1003C08D2006C
:101DF200080078080313A0007908A1007A08A2005D
:101E02000310210D220DA3002308A6007B08A000C9
:101E12007C08A1007D08A2000310210D220DA30061
:101E22002308A50026080319222F250826020318D5
:101E3200292F2508A0002608A00219302002031C21
:101E4200292F7B08F8007C08F9007D08FA000800B9
:101E5200250803190800260825020318382F26082A
:101E6200A0002508A002193020020318080006303D
:101E7200A0002008A400FA1BA417FD1B2417F917C1
:101E8200FF30F805FF30F9050030FA05FC17FF3086
:101E9200FB05FF30FC050030FD052508260203186E
:101EA200782F01300310FB0DFC0DFD0DFF3E031DCD
:101EB200532F0130A502250826060319732F01307E
:101EC200A402240807390319732F522F013003107B
:101ED200FA0CF90CF80CFF3E031D682F0130A0002C
:101EE2002008A607260825060319A12F672F260812
:101EF20025020318A12F01300310F80DF90DFA0D78
:101F0200FF3E031D7D2F0130A60225082606031978
:101F12009D2F0130A4022408073903199D2F7C2F1D
:101F220001300310FD0CFC0CFB0CFF3E031D922F35
:101F32000130A0002008A50726082506031D912FC1
:101F4200A41FB32FFF30F806FF30F906FF30FA0660
:101F52000130F807003003180130F9070030031888
:101F62000130FA07241FC52FFF30FB06FF30FC06A5
:101F7200FF30FD060130FB07003003180130FC077B
:101F8200003003180130FD07A4017808FB07790827
:101F920003110318790A031DFC077A0803110318B9
:101FA2007A0A031DFD07FD1FE82FFF30FB06FF30F5
:101FB200FC06FF30FD060130FB070030031801303C
:101FC200FC07003003180130FD07A401A40A7B08B6
:101FD200F0007C08F1007D08F2002608A00020082D
:101FE200F3002408A1002108F4000A128A159422A1
:0E1FF2007008F8007108F9007208FA00080083
:102F1200290828042704031908008030A90608009C
:102F2200803083129F00803083169F0083121F140B
:102F3200080000300A128A1105200A168A1101308F
:102F42000A128A110520080045343D340034443405
:102F52003D34003443343D34003442343D34003493
:102F620041343D340034F300F201731CBC2F70086D
:102F7200F1007108F2070310F00D0310F30C73084F
:102F8200031DB62F720808007E088A007F0882009F
:102F9200C5270A168A118000840A04087D060319CF
:102FA2000034FF0A0319FE0AC92F7808F0007908D5
:102FB200F100F2018E30FB007B08F300F4010A12EB
:102FC2008A1594227008F8007108F9007208FA0054
:102FD2000800F000701CEF2F0816F02F0812F01CEA
:102FE200F42F8816F52F8812701DF92F0817FA2F63
:0E2FF2000813F01DFE2F881708008813080032
:02400E003A3F37
:00000001FF
