:020000040000FA
:060000000A128A11FC2F18
:100F5A00F201F30173087102031DB52F72087002C2
:100F6A00031C0800F401F5010130F4070318F50A1F
:100F7A000030F5077508803AFF0084307F02031DB0
:100F8A00C82FFC307402031CB92F0130F207031872
:100F9A00F30A0030F307AF2F0730831603139F00BD
:100FAA008901880187018601831203138901880157
:100FBA0087018601E830F0000330F1000A128A1135
:100FCA00AD270A128A11FF30831203138800FF30FB
:100FDA008700FF308600FF308900E830F0000330D8
:100FEA00F1000A128A11AD270A128A11D92F830138
:060FFA000A128A11D12F3A
:02400E007A3FF7
:00000001FF
