:020000040000FA
:100000000A128A11FC2F08000030080073087204DD
:1000100071047004031908008030F3060800F8002A
:10002000F401F5017008F200F3017208F60073089C
:10003000F700781C21287608F4070318F50A7708DA
:10004000F50701300310F60DF70DFF3E031D2228C2
:100050000310F80C7808031D19287508F1007408BE
:10006000F00008008312031355088039DA005A089B
:10007000E2005508DA005A07DB005B08E400D41BF5
:100080006414640803195228640A031D4F280030C1
:10009000D5000030D4000030D3000030D200D41797
:1000A000D5015A280030D5000030D4000030D300EC
:1000B0000030D20059088039DA005A08E30063089A
:1000C0006206031D62175908DA005A07DB005B0855
:1000D000E300D81B6314630803197C28630A031D1B
:1000E00079280030D9000030D8000030D700003027
:1000F000D600D817D90184280030D9000030D800A4
:100100000030D7000030D600640863020318CA2804
:10011000621F8E288030DA005A08E2066408DA008E
:100120005A08E5006308DA005A08E4006508DA00B6
:100130005A08E3005208DA005A08E5005608DA00C7
:100140005A08D2006508DA005A08D6005308DA00C7
:100150005A08E5005708DA005A08D3006508DA00A3
:100160005A08D7005408DA005A08E5005808DA009F
:100170005A08D4006508DA005A08D8005508DA0091
:100180005A08E5005908DA005A08D5006508DA006F
:100190005A08D900E5016308DA00DB015B08DD00DD
:1001A00064085A02DC00031CDD035D08803AFF008E
:1001B00080307F02031DDE281A305C02031C1729E1
:1001C0008312031355085404530452040319EA28F4
:1001D0000130EB280030DA005A08E5000030D50085
:1001E0000030D4000030D3000030D2006308DA00C1
:1001F0005A08E4001D29651C06296508DA00031069
:100200005A0C0138DB005B08E50008290310E50CF7
:100210005218E5170130DA00550DD50CD40CD30C6B
:10022000D20CDA0B0C290130DA005A08E4078312E9
:10023000031363086402031CFB28621B5E29640825
:10024000031D2B290030D5000030D4000030D3002E
:100250000030D20008005608D207570803110318CF
:10026000013E031DD307580803110318013E031D67
:10027000D407590803110318013E031DD507551C67
:10028000002A651C4C296508DA0003105A0C013855
:10029000DB005B08E5004E290310E50C5218E5175A
:1002A0000130DA00550DD50CD40CD30CD20CDA0B7E
:1002B00052290130DA005A08E407002A5508803A2A
:1002C000FF005908803A7F02031D70295808540224
:1002D000031D702957085302031D70295608520246
:1002E0000318C829FF30DA00FF30DB00FF30DC00E4
:1002F000FF30DD005608DE005708DF005808E00038
:100300005908E1005208DE025308031C530F8929E3
:100310008A29DF025408031C540F8F299029E00218
:100320005508031C550F95299629E1025E08DA0746
:100330005F0803185F0F9D299E29DB0760080318DB
:10034000600FA329A429DC0761080318610ADD07EF
:100350005D08D5005C08D4005B08D3005A08D200C1
:100360008030DA005A08E206E509E50A6508031D4F
:10037000D6290130D207003003180130D3070030EE
:1003800003180130D407003003180130D507D629EF
:100390005608D2025708031C570FD3025808031CF3
:1003A000580FD4025908031C590FD502550854049C
:1003B00053045204031DFE296508031DFE29003065
:1003C000D5000030D4000030D3000030D200080047
:1003D0000130DA000310D20DD30DD40DD50DDA0B98
:1003E000EA29E51B5214651CF7290314F8290310A8
:1003F000E50D64080319FE290130E402D41FE82941
:10040000E301E51F0B2A65087F3903195218092AF1
:100410000B2AE301E30A630803193E2A0130D207DD
:10042000003003180130D307003003180130D4071F
:10043000003003180130D507551C3E2A5208DA0057
:100440005308DB005408DC005508DD000130DE00F5
:100450005D0DDD0CDC0CDB0CDA0CDE0B282A5D08F4
:10046000D5005C08D4005B08D3005A08D200640AA7
:1004700003193E2A0130DA005A08E407640A031D12
:100480006408031D4E2A0030D5000030D40000302F
:10049000D3000030D20064080319E201641C522A20
:1004A000D417562A7F30DA005A08D4056408DA00D7
:1004B00003105A0CDB005B08D500E21F0800D517BB
:1004C000080083160313AE00A030A5002508AF0076
:1004D000013083160313AE07FF302E0784000A1283
:1004E0008A150A200A128A11A5002508C4004408AA
:1004F00003190800253044060319802A4408F52F03
:10050000B001B101C92A3115E62A2F0884008313EE
:100510000008B2000030B3000130A5002508AF0785
:1005200032083304031D982A9A30B2008030B30099
:10053000330883120313FF00831603133208840069
:10054000831203130A128A1500200A128A11003A34
:100550000319682A83160313330883120313FF0059
:100560008316031332088400831203130A128A15B8
:1005700000200A128A110A128A1103200A128A1113
:10058000013083160313B2070318B30A0030B30710
:10059000982A0130AE07FF302E0784000A128A1510
:1005A0000A200A128A11C400A500A6012608003AF2
:1005B0000319DB2A682A2508003A0319FB2F663A3B
:1005C0000319832A153A0319852A682A0030300551
:1005D000A50007303105A600250826040319EA2FD7
:1005E0000630B4000030B5002F08840083130008E3
:1005F000C000840A0008C100840A0008C200840AFE
:100600000008C3000430A5002508AF074308F30025
:100610004208F2004108F1004008F0000030F70005
:100620000030F6000030F5000030F4000A168A159C
:100630006D270A128A1103183A2B831603134308F5
:10064000F3004208F2004108F1004008F0000A12ED
:100650008A1106200A128A11730883160313C30035
:100660007208C2007108C1007008C0000330B004F5
:100670000030B10483160313BA01BB014308F30031
:100680004208F2004108F1004008F0000030F70095
:100690000030F6000030F5000030F4000A128A1530
:1006A000B0200A128A1103183E2C0310831603137C
:1006B000420D430D823EBA00FF3003180030BB00EC
:1006C000FF30BA070318BB0AFF30BB070330F00046
:1006D0000030F1003B08F3003A08F2000A168A15D0
:1006E00085240A128A11710883160313BB0070084F
:1006F000BA000A30F7000030F8003B08FA003A0868
:10070000F9000A168A1547260A128A1178088316F4
:100710000313BB007708BA00BB1F942BFF30BA0746
:100720000318BB0AFF30BB073A03FF3A0A128A15C7
:10073000B7240A128A118312031341088316031384
:10074000BF0083120313400883160313BE008312F5
:1007500003133F0883160313BD00831203133E08DF
:1007600083160313BC00430883120313A7008316E8
:100770000313420883120313A600831603134108D0
:1007800083120313A5008316031340088312031377
:10079000A400831603133F0883120313AB008316D0
:1007A00003133E0883120313AA00831603133D08A4
:1007B00083120313A900831603133C088312031347
:1007C000A8000A128A15A2210A128A1183120313A1
:1007D000270883160313BF0083120313260883160A
:1007E0000313BE0083120313250883160313BD00F1
:1007F00083120313240883160313BC003F08F3007D
:100800003E08F2003D08F1003C08F0003F30F700E0
:100810008030F6000030F5000030F4000A168A152A
:100820006D270A128A1103181D2CFF30831603133B
:10083000BA070318BB0AFF303D2C831603133F0889
:10084000F3003E08F2003D08F1003C08F0004130A2
:10085000F7002030F6000030F5000030F4000A16F2
:100860008A156D270A128A11031C3E2C013083164B
:100870000313BA070318BB0A0030BB0706300A1679
:100880008A1157230A128A11831203134108D500D3
:100890004008D4003F08D3003E08D200831603135B
:1008A000430883120313D9008316031342088312EB
:1008B0000313D80083160313410883120313D700D0
:1008C00083160313400883120313D6000A128A11F9
:1008D00032200A128A118312031355088316031358
:1008E000C30083120313540883160313C200831238
:1008F0000313530883160313C10083120313520812
:1009000083160313C0003B08803AFF0080307F024B
:10091000031D8C2C0A303A020318D92C83160313BA
:100920004308F3004208F2004108F1004008F000DB
:100930000030F7000030F6000030F5000030F40021
:100940000A128A15B0200A128A110318422D831642
:100950000313430883120313D400831603134208BE
:1009600083120313D3008316031341088312031366
:10097000D20083160313400883120313D1000A1612
:100980008A1500270A128A1183120313540853048C
:1009900052045104031D422D831603133B08803A71
:1009A000FF0080307F02031DD72C02303A02031C67
:1009B000422D831603133F08F3003E08F2003D0862
:1009C000F1003C08F0004030F7008930F60070304C
:1009D000F5005F30F4000A168A156D270A128A1195
:1009E0000318F42CF730F52CF83083160313BA07EC
:1009F0000318BB0AFF30BB073A080A128A15B7244E
:100A00000A128A1183120313410883160313BF00CD
:100A100083120313400883160313BE0083120313CB
:100A20003F0883160313BD00831203133E08831689
:100A30000313BC004308F3004208F2004108F10030
:100A40004008F0003F08F7003E08F6003D08F500BA
:100A50003C08F4000A128A15F8200A128A11730859
:100A600083160313B9007208B8007108B700700844
:100A7000B6000030C3000030C2000030C1000030BA
:100A8000C000C62D83160313430883120313D4003A
:100A900083160313420883120313D3008316031330
:100AA000410883120313D2008316031340088312F4
:100AB0000313D1000A168A1500270A128A1183121D
:100AC0000313540883160313B90083120313530846
:100AD00083160313B80083120313520883160313FB
:100AE000B70083120313510883160313B6003908A5
:100AF000F3003808F2003708F1003608F000003043
:100B00000A168A1162200A128A11730883120313CB
:100B1000E9007208E8007108E7007008E600831633
:100B20000313430883120313ED00831603134208D3
:100B300083120313EC00831603134108831203137B
:100B4000EB0083160313400883120313EA000A160E
:100B50008A15A6240A128A118312031369088316C0
:100B60000313C30083120313680883160313C20020
:100B700083120313670883160313C1008312031340
:100B8000660883160313C000BA01BB01C401C40A7E
:100B90004408A50001300310A50DFF3E031DCB2D19
:100BA0000310250D693E84000A128A150A200A12D4
:100BB0008A11A6000A128A150A200A128A11A700B1
:100BC0000A128A150A200A128A11A8000A128A1526
:100BD0000A200A128A11A90029083902031DFA2DD8
:100BE00028083802031DFA2D27083702031DFA2DA5
:100BF00026083602031C042E0130A5002508C40770
:100C00000A304406031DC82D03303005A50000300E
:100C10003105A600250826040319142E2D300A12CA
:100C20008A1103200A128A11013083160313C402A9
:100C3000440A0319862E4408A50001300310A50DAF
:100C4000FF3E031D1E2E0310250D693E84000A126F
:100C50008A150A200A128A11F0000A128A150A203F
:100C60000A128A11F1000A128A150A200A128A1140
:100C7000F2000A128A150A200A128A11F3003908B2
:100C8000F7003808F6003708F5003608F4000A16B1
:100C90008A15A2260A128A11730883160313BF004D
:100CA0007208BE007108BD007008BC000030F3007F
:100CB0000030F2000030F1000A30F0003F08F70089
:100CC0003E08F6003D08F5003C08F4000A168A15B7
:100CD000FB250A128A11730883160313BF007208DA
:100CE000BE007108BD007008BC003C08303E0F2EED
:100CF00030300A128A1103200A128A11FF3083163B
:100D00000313BA070318BB0AFF30BB073B08803A3E
:100D1000FF0080307F02031D8F2E01303A0203183E
:100D2000782E831603133508803AFF0080307F0247
:100D3000031D9C2E09303402031CA22E083083169A
:100D40000313A52E831603133408A5002508C40039
:100D50004408A500A6012508B4022608031CB50313
:100D6000B50244080319BA2E2E300A128A11032044
:100D70000A128A118316031344080A128A15B7242B
:100D80000A128A1183120313410883160313AD005C
:100D900083120313400883160313AC00831203135A
:100DA0003F0883160313AB00831203133E08831618
:100DB0000313AA002D0883120313AB008316031339
:100DC0002C0883120313AA00831603132B08831223
:100DD0000313A900831603132A0883120313A80020
:100DE00083160313430883120313A7008316031308
:100DF000420883120313A6008316031341088312CB
:100E00000313A50083160313400883120313A400E1
:100E10000A128A15A2210A128A11831203132708C3
:100E2000D4002608D3002508D2002408D1000A16D1
:100E30008A1500270A128A11831203135408831695
:100E40000313B90083120313530883160313B80066
:100E500083120313520883160313B700831203137C
:100E6000510883160313B6000130C402440A031963
:100E7000E52F4408A50001300310A50DFF3E031D1A
:100E80003C2F0310250D693E84000A128A150A20A2
:100E90000A128A11F0000A128A150A200A128A110F
:100EA000F1000A128A150A200A128A11F2000A12A7
:100EB0008A150A200A128A11F3003908F700380847
:100EC000F6003708F5003608F4000A168A15A2263F
:100ED0000A128A11730883160313BF007208BE003A
:100EE0007108BD007008BC000030F3000030F20053
:100EF0000030F1000A30F0003F08F7003E08F6002D
:100F00003D08F5003C08F4000A168A15FB250A1274
:100F10008A11730883160313BF007208BE0071089C
:100F2000BD007008BC003C08303E0A128A11032044
:100F30000A128A11831603134408A5000130031016
:100F4000A50DFF3E031D9F2F0310250D693E840054
:100F50000A128A150A200A128A11F0000A128A154A
:100F60000A200A128A11F1000A128A150A200A12AE
:100F70008A11F2000A128A150A200A128A11F30055
:100F80003908F7003808F6003708F5003608F4008D
:100F90000A168A15FB250A128A1173088316031391
:100FA000B9007208B8007108B7007008332F3030EC
:100FB0000A128A1103200A128A11FF3083160313C2
:100FC000B4070318B50AFF30B50734083504031910
:100FD000682AD72F03303005A50000303105A60060
:100FE000250826040319682A2D300A128A110320C5
:100FF0000A128A11682A080083010A168A15FA2C37
:10100000FF1B0A2883137F1883170008840A03191B
:10101000FF0A080008308A000408840A82070034A6
:101020000034003480343F34003400342034413400
:1010300000340034C8344234003400347A34443448
:10104000003440341C34463400345034C334473404
:1010500000342434743449348034963418344B3496
:101060002034BC34BE344C3428346B346E344E34AB
:10107000F934023415345034EC347834AD346034FF
:10108000CA34F234493471340034003480343F348B
:10109000CD34CC34CC343D340A34D73423343C34CE
:1010A0006F34123483343A341734B734D13438348B
:1010B000AC34C53427343734BD3437348634353412
:1010C0009534BF34D63433347734CC342B34323483
:1010D0005F34703489343034FF34E634DB342E34FA
:1010E0000834E5343C341E3460344234A2340D34C8
:1010F00001340034003400340A3400340034003445
:101100006434003400340034E834033400340034F0
:101110001034273400340034A034863401340034D1
:10112000403442340F3400348034963498340034E0
:101130000034E134F53405340034CA349A343B3495
:1011400025347334203474346F34203425346634B9
:10115000003428346E3475346C346C3429340034E3
:1011600000307005F80000307105F900803072051C
:10117000FA007F307305FB007B087A047904780459
:10118000031DCA280030F3000030F2000030F100E7
:101190000030F00000307405F80000307505F900EB
:1011A00080307605FA007F307705FB007B087A04F3
:1011B00079047804031DE4280030F7000030F600BD
:1011C0000030F5000030F40077087306031DF228A4
:1011D00076087206031DF22875087106031DF228B1
:1011E000740870060319F628031008000314080099
:1011F0000310720D730DF800780883120313A50015
:101200002508031D0C290030F3000030F2000030E7
:10121000F1000030F00008000310760D770DF800A3
:101220007808A400240803190329F217FF30F005F9
:10123000FF30F105FF30F2050030F305F617FF30FF
:10124000F405FF30F505FF30F6050030F7050030F6
:10125000A3000030A2000030A1000030A0007F30C9
:10126000A502A0302407F8007808A5022030F80075
:101270007808A4000130F8000310A00DA10DA20D04
:10128000A30DF80B3C2977087302031D512976083A
:101290007202031D512975087102031D512974083A
:1012A0007002031C62297408F0027508031C750F94
:1012B000F1027608031C760FF2027708031C770F01
:1012C000F30220140130F8000310F00DF10DF20DBF
:1012D000F30DF80B64290130A402031D3A29A51F60
:1012E00086292508803A9F3E031C032901300310FC
:1012F000A30CA20CA10CA00CFF3E031D772901300A
:10130000F8007808A50703199929762920302502C5
:10131000031803292508031999290130F80003103F
:10132000A00DA10DA20DA30DF80B8F290130A50270
:101330008A292308F3002208F2002108F10020087E
:10134000F00008008312031327088039AC002C0832
:10135000B1002708AC002C07AD002D08B700A61B74
:10136000371437080319C129370A031DBF29003074
:10137000A7000030A6000030A5000030A400A6178A
:10138000C9290030A7000030A6000030A5000030B9
:10139000A4002B088039AC002C08B1062B08AC0047
:1013A0002C07AD002D08B600AA1B36143608031909
:1013B000E629360A031DE4290030AB000030AA00FC
:1013C0000030A9000030A800AA17EE290030AB00B9
:1013D0000030AA000030A9000030A8003608031D24
:1013E0003708031DFC290030A7000030A60000309C
:1013F000A5000030A40008002408AC002C08F00070
:101400002A080A128A110F200A128A1571088312FB
:101410000313BD007008BC003C08AC00AD01AE0178
:10142000AF012F08B5002E08B4002D08B3002C081A
:10143000B2003D08AC00AD01AE01AF012F08BB000A
:101440002E08BA002D08B9002C08B8002508AC00F9
:101450002C08F00029080A128A110F200A128A1596
:10146000710883120313BD007008BC003C08AC0077
:10147000AD01AE01AF012C08B2072D08031103180E
:10148000013E031DB3072E0803110318013E031D7F
:10149000B4072F0803110318013E031DB5073D08CB
:1014A000AC00AD01AE01AF012C08B8072D08031147
:1014B0000318013E031DB9072E0803110318013E4E
:1014C000031DBA072F0803110318013E031DBB07B4
:1014D0002608AC002C08F00028080A128A110F20F8
:1014E0000A128A15710883120313BD007008BC002C
:1014F0003C08AC00AD01AE01AF012C08B2072D08CD
:1015000003110318013E031DB3072E08031103182E
:10151000013E031DB4072F0803110318013E031DEC
:10152000B5073D08AC00AD01AE01AF012C08B8070E
:101530002D0803110318013E031DB9072E080311DE
:101540000318013E031DBA072F0803110318013EBB
:10155000031DBB070830AC000310B20DB30DB40D72
:10156000B50DAC0BAC2A2508AC002C08F0002808FF
:101570000A128A110F200A128A15710883120313A6
:10158000BD007008BC003C08AC003D08AD00AE01D9
:10159000AF012C08B2072D0803110318013E031DEB
:1015A000B3072E0803110318013E031DB4072F08CB
:1015B00003110318013E031DB5072408AC002C08D5
:1015C000F00029080A128A110F200A128A157108E0
:1015D00083120313BD007008BC003C08AC003D083A
:1015E000AD00AE01AF012C08B2072D08031103189E
:1015F000013E031DB3072E0803110318013E031D0E
:10160000B4072F0803110318013E031DB507083066
:10161000AC000310B20DB30DB40DB50DAC0B092B1E
:101620002408AC002C08F00028080A128A110F20A8
:101630000A128A15710883120313BD007008BC00DA
:101640003C08AC003D08AD00AE01AF012C08B2076C
:101650002D0803110318013E031DB3072E080311C3
:101660000318013E031DB4072F0803110318013EA0
:10167000031DB5072508AC002C08F0002A080A1243
:101680008A110F200A128A15710883120313BD00F4
:101690007008BC003C08AC003D08AD00AE01AF01D5
:1016A0002C08B8072D0803110318013E031DB907C4
:1016B0002E0803110318013E031DBA072F0803115A
:1016C0000318013E031DBB072608AC002C08F000E0
:1016D00029080A128A110F200A128A15710883122A
:1016E0000313BD007008BC003C08AC003D08AD0011
:1016F000AE01AF012C08B8072D0803110318013EF5
:10170000031DB9072E0803110318013E031DBA0774
:101710002F0803110318013E031DBB072608AC0068
:101720002C08F0002A080A128A110F200A128A15C2
:10173000710883120313BD007008BC003C08AC00A4
:101740003D08AD00AE01AF0108300310AC0DAD0D8A
:10175000AE0DAF0DFF3E031DA52B2C08B8072D08BD
:1017600003110318013E031DB9072E0803110318C6
:10177000013E031DBA072F0803110318013E031D84
:10178000BB073208AC003308AD003408AE003508A2
:10179000AF0018300310AF0CAE0CAD0CAC0CFF3E1C
:1017A000031DCA2B2C08B8072D0803110318013E8E
:1017B000031DB9072E0803110318013E031DBA07C4
:1017C0002F0803110318013E031DBB070830AC00AE
:1017D0000310B20DB30DB40DB50DAC0BE82B3708EB
:1017E0003607AC00AD01AD0D2C08823EBC002D08C3
:1017F0000318013EFF3EBD00BA1B192C0130AC009E
:101800000310B80DB90DBA0DBB0DAC0B002CB51BF8
:1018100038140130AC000310B20DB30DB40DB50D8A
:10182000AC0B0B2CFF30BC070318BD0AFF30BD0703
:10183000FC2BB601B51F322CFF303205AC00FF3057
:101840003305AD00FF303405AE007F303505AF0005
:101850002F082E042D042C0403193818302C322C98
:10186000B601B60A36080319642C0130B8070030F7
:1018700003180130B907003003180130BA070030EF
:1018800003180130BB073B1C642C3808AC00390836
:10189000AD003A08AE003B08AF000130B0002F0D9C
:1018A000AF0CAE0CAD0CAC0CB00B4F2C2F08BB002A
:1018B0002E08BA002D08B9002C08B8000130BC076A
:1018C0000318BD0A0030BD073D08803AFF00803094
:1018D0007F02031D6D2CFF303C02031C7A2C7F30ED
:1018E00083120313BB008030BA000030B90000300F
:1018F000B800AA2C831203133D08803AFF00803001
:101900007F02031D852C01303C020318932C00300C
:1019100083120313BB000030BA000030B90000305E
:10192000B800B101AA2C831203133C08AC002C08A8
:10193000B700FF30B805FF30B9057F30BA05003079
:10194000BB053718BA173708AC0003102C0CAD00D4
:101950002D08BB003108AC002C08BB043B08A700D5
:101960003A08A6003908A5003808A4000800831228
:101970000313D000D01F5F2ED009D00A5008803A40
:10198000123E031CA92D0A30F7000030F800500861
:10199000F200F301F21BF3036430F0000030F100B9
:1019A0000A168A15B0250A128A157108FA007008FD
:1019B000F9000A168A1547260A128A157708831233
:1019C0000313C20001300310C20DFF3E031DE32CC0
:1019D0000310420D593E84000A128A150A200A1289
:1019E0008A15C3000A128A150A200A128A15C40031
:1019F0000A128A150A200A128A15C5000A128A15C7
:101A00000A200A128A15C6004608A7004508A60043
:101A10004408A5004308A4006430F7000030F80033
:101A20005008F900FA01F91BFA030A168A1547262D
:101A30000A128A15770883120313C70001300310B6
:101A4000C70DFF3E031D1F2D0310470D7D3E840073
:101A50000A128A150A200A128A15C8000A128A1563
:101A60000A200A128A15C9000A128A150A200A12C7
:101A70008A15CA000A128A150A200A128A15CB0092
:101A80004B08AB004A08AA004908A9004808A8006A
:101A90000A128A15A2210A128A1583120313270833
:101AA000CF002608CE002508CD002408CC000A303F
:101AB000F0000030F1005008F200F301F21BF303D4
:101AC0000A168A15B0250A128A15700883120313A4
:101AD000C20001300310C20DFF3E031D6A2D03102A
:101AE000420D353E84000A128A150A200A128A1510
:101AF000C3000A128A150A200A128A15C4000A12A3
:101B00008A150A200A128A15C5000A128A150A20A7
:101B10000A128A15C6004608A7004508A600440810
:101B2000A5004308A4004F08AB004E08AA004D08CA
:101B3000A9004C08A8000A128A15A22183120313D7
:101B40002708C1002608C0002508BF002408BE00E1
:101B500008005008803A753E031C342E0A30F0000D
:101B60000030F1005008F200F301F21BF3030A16F3
:101B70008A15B0250A128A15700883120313C20051
:101B800001300310C20DFF3E031DC12D0310420D95
:101B9000353E84000A128A150A200A128A15C300EB
:101BA0000A128A150A200A128A15C4000A128A1516
:101BB0000A200A128A15C5000A128A150A200A127A
:101BC0008A15C6004608A7004508A6004408A500D7
:101BD0004308A4000A30F7000030F8005008F9006C
:101BE000FA01F91BFA030A168A1547260A128A1502
:101BF000770883120313C70001300310C70DFF3E9F
:101C0000031DFD2D0310470D593E84000A128A154D
:101C10000A200A128A15C8000A128A150A200A1216
:101C20008A15C9000A128A150A200A128A15CA00E2
:101C30000A128A150A200A128A15CB004B08AB003B
:101C40004A08AA004908A9004808A8000A128A15EB
:101C5000A221831203132708C1002608C00025080B
:101C6000BF002408BE0008005008C2000130031065
:101C7000C20DFF3E031D372E0310420D353E84007A
:101C80000A128A150A200A128A15C3000A128A1536
:101C90000A200A128A15C4000A128A150A200A129A
:101CA0008A15C5000A128A150A20C6004608C10016
:101CB0004508C0004408BF004308BE0008005008A3
:101CC000803A123E031C4A2F0A30F7000030F80019
:101CD0005008F200F301F21BF3036430F00000300F
:101CE000F1000A168A15B0250A128A157108FA0041
:101CF0007008F9000A168A1547260A128A1577080D
:101D000083120313C20001300310C20DFF3E031DF6
:101D1000842E0310420D253E84000A128A150A20E3
:101D20000A128A15C3000A128A150A200A128A1595
:101D3000C4000A128A150A200A128A15C5000A125E
:101D40008A150A200A128A15C6004608A700450807
:101D5000A6004408A5004308A4006430F700003042
:101D6000F8005008F900FA01F91BFA030A168A155F
:101D700047260A128A15770883120313C700013019
:101D80000310C70DFF3E031DC02E0310470D493E33
:101D900084000A128A150A200A128A15C8000A123B
:101DA0008A150A200A128A15C9000A128A150A2001
:101DB0000A128A15CA000A128A150A200A128A15FE
:101DC000CB004B08AB004A08AA004908A900480804
:101DD000A8000A128A15A2210A128A158312031377
:101DE0002708CF002608CE002508CD002408CC0007
:101DF0000A30F0000030F1005008F200F301F21B4D
:101E0000F3030A168A15B0250A128A157008831280
:101E10000313C20001300310C20DFF3E031D0B2F40
:101E20000310420D013E84000A128A150A200A128C
:101E30008A15C3000A128A150A200A128A15C400DC
:101E40000A128A150A200A128A15C5000A128A1572
:101E50000A200A128A15C6004608A7004508A600EF
:101E60004408A5004308A4004F08AB004E08AA0090
:101E70004D08A9004C08A8000A128A15A221831255
:101E800003132708C1002608C0002508BF00240846
:101E9000BE0008005008803A753E031CD52F0A305A
:101EA000F0000030F1005008F200F301F21BF303E0
:101EB0000A168A15B0250A128A15700883120313B0
:101EC000C20001300310C20DFF3E031D622F03103C
:101ED000420D013E84000A128A150A200A128A1550
:101EE000C3000A128A150A200A128A15C4000A12AF
:101EF0008A150A200A128A15C5000A128A150A20B4
:101F00000A128A15C6004608A7004508A60044081C
:101F1000A5004308A4000A30F7000030F80050087C
:101F2000F900FA01F91BFA030A168A1547260A1264
:101F30008A15770883120313C70001300310C70DF9
:101F4000FF3E031D9E2F0310470D253E84000A12FD
:101F50008A150A200A128A15C8000A128A150A2050
:101F60000A128A15C9000A128A150A200A128A154D
:101F7000CA000A128A150A200A128A15CB004B08D9
:101F8000AB004A08AA004908A9004808A8000A129C
:101F90008A15A221831203132708C1002608C00056
:101FA0002508BF002408BE0008005008C200013008
:101FB0000310C20DFF3E031DD82F0310420D013E3A
:101FC00084000A128A150A200A128A15C3000A120E
:101FD0008A150A200A128A15C4000A128A150A20D4
:101FE0000A128A15C5000A128A150A20C600460878
:101FF000C1004508C0004408BF004308BE000800F7
:10200200F4007408F0007008F5004328740875069F
:102012000319432820300A128A1103200A168A1152
:1020220008300A128A1103200A168A110130F502B9
:10203200432808300A128A1103200A168A11203016
:102042000A128A1103200A168A1108300A128A110A
:1020520003200A168A110130F5027508740203186A
:1020620043281A2875088400831380010800720827
:10207200F000750884007008831380000130F000BE
:102082007008F5070A128A1104200A168A11F00054
:10209200F1017008F2007108F3007308003A0319A5
:1020A200532838287208083A03190728023A0319F4
:1020B2003328073A03193328183A03192E283828E7
:1020C2000800F8007808031DF31F77287009FA004A
:1020D2007109FB007209FC007309FD00FA0A031979
:1020E200FB0A0319FC0A0319FD0A7F287308FD0085
:1020F2007208FC007108FB007008FA007308720491
:1021020071047004031D8E280030F3000030F200C9
:102112000030F1000030F00008009630F40074083E
:10212200F900FE307D050319BF280130F400740860
:10213200F90701300310FD0CFC0CFB0CFA0CFF3EFE
:10214200031D9B2892280130F4007408F90701301E
:10215200FA07003003180130FB0700300318013082
:10216200FC07003003180130FD0701300310FD0C9D
:10217200FC0CFB0CFA0CFF3E031DB728FF307D055B
:102182000319D328A42802307902031CD528013070
:10219200F9020130F4000310FA0DFB0DFC0DFD0DE8
:1021A200F40BCC28FC1FC4287918DF28FF30FA056D
:1021B200FF30FB057F30FC05FF30FD050310F90CF5
:1021C2007908F400F501F601F70118300310F40D57
:1021D200F50DF60DF70DFF3E031DE7287408FA040E
:1021E2007508FB047608FC047708FD047808031DD3
:1021F200F31FFC28FD177D08F3007C08F2007B0822
:10220200F1007A08F00008007008F8007108F9007F
:102212007208FA000310790D7A0DFB007B08831215
:102222000313A5002508031D1F290030F300003009
:10223200F2000030F1000030F00008007408F800ED
:102242007508F9007608FA000310790D7A0DFB0083
:102252007B08A400240803191629F117FF30F005A2
:10226200FF30F1050030F205F517FF30F405FF30BD
:10227200F5050030F6050030A3000030A200003062
:10228200A1000030A0007F30A50298302407F8009A
:102292007808A5021830F8007808A4000130F80088
:1022A2000310A00DA10DA20DA30DF80B5129760864
:1022B2007202031D622975087102031D62297408E6
:1022C2007002031C6F297408F0027508031C750F55
:1022D200F1027608031C760AF20220140130031080
:1022E200F00DF10DF20DFF3E031D70290130A40225
:1022F200031D4F29A51F92292508803A973E031CEA
:10230200162901300310A30CA20CA10CA00CFF3E55
:10231200031D83290130F8007808A5070319A529B0
:102322008229183025020318162925080319A52920
:102332000130F8000310A00DA10DA20DA30DF80BA2
:102342009B290130A50296292308F3002208F200F6
:102352002108F1002008F000080077088039F80011
:10236200780883120313A4007708F8007807F900AD
:102372007908AB00F61B2B142B080319CE292B0A64
:10238200031DCB290030F7000030F6000030F500C5
:102392000030F400F617F701D6290030F7000030BC
:1023A200F6000030F5000030F40073088039F800C0
:1023B2007808A4067308F8007807F9007908AC00D9
:1023C200F21B2C142C080319F4292C0A031DF129E1
:1023D2000030F3000030F2000030F1000030F00075
:1023E200F217F301FC290030F3000030F200003054
:1023F200F1000030F0007308720471047004031DD0
:102402001B2A0030F7000030F6000030F5000030E3
:10241200F4008030F6047F30F7042408F8007808CE
:10242200F7047708F3007608F2007508F1007408E3
:10243200F00008002B08031D272A0030F3000030AB
:10244200F2000030F1000030F00008002B08F80024
:10245200F9017908FB002C087802FA00031CFB033F
:102462007A087F3EA5007B080318013E003EA600C5
:102472007708A3007608A2007508A1007408A000DE
:102482000030F7000030F6000030F5000030F400B4
:102492000030AA000030A9000030A8000030A700D8
:1024A200AC011A302C020318A02A2C080319762A30
:1024B2000130F8000310A00DA10DA20DA30DF80B21
:1024C2005B2A0130F8000310F40DF50DF60DF70D3F
:1024D200F80B642AAA1B74140130F8000310A70D2C
:1024E200A80DA90DAA0DF80B6F2A73082302031D6C
:1024F200842A72082202031D842A71082102031D04
:10250200842A70082002031C9B2A2A177008A00242
:102512007108031C710F8E2A8F2AA1027208031CF4
:10252200720F942A952AA2027308031C730F9A2A27
:102532009B2AA3020130F8007808AC07522A23082C
:10254200220421042004031D2714F61BC32A013090
:10255200F8000310F40DF50DF60DF70DF80BAA2A8D
:10256200AA1B74140130F8000310A70DA80DA90DC1
:10257200AA0DF80BB52AFF30A5070318A60AFF30EB
:10258200A607A62AAC01AA1FDC2AFF302705F800FD
:10259200FF302805F900FF302905FA007F302A05AF
:1025A200FB007B087A047904780403197418DA2A88
:1025B200DC2AAC01AC0A2C0803190E2B0130F407FB
:1025C200003003180130F507003003180130F60718
:1025D200003003180130F707771C0E2B7408F8003F
:1025E2007508F9007608FA007708FB000130FC0054
:1025F2007B0DFB0CFA0CF90CF80CFC0BF92A7B088E
:10260200F7007A08F6007908F5007808F40001303E
:10261200A5070318A60A0030A6072608803AFF007D
:1026220080307F02031D172BFF302502031C272B4E
:10263200FF3083120313A5000030A6000030F7001C
:102642000030F6000030F5000030F400831203136E
:102652002608803AFF0080307F02031D322B0130B2
:1026620025020318412B83120313A501A601003092
:10267200F7000030F6000030F5000030F400A4014D
:10268200831203132508F8007808AB002B1C4B2B90
:10269200F6174F2B7F30F8007808F6052B08F80064
:1026A2000310780CF9007908F7000E2A831203133D
:1026B200D1006E305102031C692C3F30A70000305C
:1026C200A6000030A5000030A4006430F6000030FF
:1026D200F7005108C200C3014208F8004308F9009C
:1026E2000A168A1535250A168A11760883120313EB
:1026F200C40001300310C40DFF3E031D7B2B0310E9
:10270200440D7D3E84000A128A150A200A168A1197
:10271200C5000A128A150A200A168A11C6000A1270
:102722008A150A200A168A11C7000A128A150A2077
:102732000A168A11C8004808AB004708AA004608D2
:10274200A9004508A8000A128A15A2210A168A11B0
:10275200831203132708D0002608CF002508CE00D5
:102762002408CD000A30F6000030F7005108C200FC
:10277200C3014208F2004308F3006430F000003065
:10278200F1000A168A15C8240A168A117108F9007E
:102792007008F8000A168A1535250A168A11760875
:1027A20083120313C40001300310C40DFF3E031D46
:1027B200D52B0310440D593E84000A128A150A20B3
:1027C2000A168A11C5000A128A150A200A168A11E7
:1027D200C6000A128A150A200A168A11C7000A12AE
:1027E2008A150A200A168A11C8004808A700470855
:1027F200A6004608A5004508A4005008AB004F08F3
:10280200AA004E08A9004D08A8000A128A15A221A2
:102812000A168A11831203132708CC002608CB005C
:102822002508CA002408C9000A30F0000030F1006F
:102832005108C200C3014208F2004308F3000A161D
:102842008A15C8240A168A11700883120313C40059
:1028520001300310C40DFF3E031D2A2C0310440D4A
:10286200353E84000A128A150A200A168A11C5000A
:102872000A128A150A200A168A11C6000A128A1535
:102882000A200A168A11C7000A128A150A200A1695
:102892008A11C8004808A7004708A6004608A500F4
:1028A2004508A4004C08AB004B08AA004A08A9003E
:1028B2004908A8000A128A15A221831203132708C5
:1028C200C1002608C0002508BF002408BE00080079
:1028D2000B305102031C162D3F30A7000030A6001A
:1028E2000030A5000030A4000A30F6000030F700E6
:1028F2005108C200C3014208F8004308F9000A1651
:102902008A1535250A168A11760883120313C40024
:1029120001300310C40DFF3E031D8A2C0310440D29
:10292200593E84000A128A150A200A168A11C50025
:102932000A128A150A200A168A11C6000A128A1574
:102942000A200A168A11C7000A128A150A200A16D4
:102952008A11C8004808AB004708AA004608A90027
:102962004508A8000A128A15A2210A168A118312A2
:1029720003132708D0002608CF002508CE0024081C
:10298200CD000A30F0000030F1005108C200C3014E
:102992004208F2004308F3000A168A15C8240A16F0
:1029A2008A11700883120313C40001300310C40D8E
:1029B200FF3E031DD72C0310440D353E84000A123E
:1029C2008A150A200A168A11C5000A128A150A20D7
:1029D2000A168A11C6000A128A150A200A168A11D4
:1029E200C7000A128A150A200A168A11C800480866
:1029F200A7004708A6004608A5004508A4005008FD
:102A0200AB004F08AA004E08A9004D08A8000A1200
:102A12008A15A221831203132708C1002608C000C9
:102A22002508BF002408BE0008003F30A700003080
:102A3200A6000030A5000030A4005108C2000130F9
:102A42000310C20DFF3E031D212D0310420D353E22
:102A520084000A128A150A200A168A11C3000A1271
:102A62008A150A200A168A11C4000A128A150A2037
:102A72000A168A11C5000A128A150A200A168A1134
:102A8200C6004608AB004508AA004408A90043084E
:102A9200A8000A128A15A221831203132708C10073
:102AA2002608C0002508BF002408BE0008008312C3
:102AB2000313CD003E080319652D4D08C2003E08E0
:102AC20084004208831380004D08840083130008A9
:102AD200C6000A168A1560240A168A11031C782D6C
:102AE200013083120313C2004208CD07652D831201
:102AF2000313C7012D304606031D822DC701C70AE5
:102B0200862D2B304606031D8A2D0130C200420855
:102B1200CD07C6010030CC000030CB000030CA0027
:102B22000030C900C801A12D4D0884002E30831346
:102B32000006031DA32D47160130C2004208CD072F
:102B4200471E952D4D088400831300080A168A1526
:102B520041240A168A11031C032E83120313C7147D
:102B6200093046060319FC2D471EBB2DFF30C2005B
:102B72004208C8070130C2004208C6070030F3000D
:102B82000030F2000030F1000A30F0004C08F7008B
:102B92004B08F6004A08F5004908F4000A168A159F
:102BA20071250A168A11730883120313CC00720866
:102BB200CB007108CA007008C9004D088400831355
:102BC2000008D03EC200C301C401C5014208C907C2
:102BD200430803110318013E031DCA0744080311E9
:102BE2000318013E031DCB07450803110318013EDC
:102BF200031DCC079D2D471A9D2D0130C2004208AE
:102C0200C8079D2D83120313C6014D088400653049
:102C1200831300060319132E4D0884004530000665
:102C2200031D922E0130C2004208CD074D088400D8
:102C32002D300006031D1F2EC7152B2E4D088400B4
:102C42002B30000603192B2E4D088400303000066D
:102C5200031D302E0130C2004208CD07252E4D083B
:102C6200840000080A168A1541240A168A11031CD8
:102C72008C2E831203134D08840083130008D03E68
:102C8200C2004208C6000130C2004208CD074D080A
:102C9200840000080A168A1541240A168A11031CA8
:102CA2008C2E831203134D0884000A30C20042089E
:102CB200F00046080A168A154F240A168A11831351
:102CC2000007D03E83120313C3004308C60001303D
:102CD200C2004208CD074D08840000080A168A1572
:102CE20041240A168A11031C8C2E831203134D08E9
:102CF20084000A30C2004208F00046080A168A150B
:102D02004F240A168A1183130007D03E831203133D
:102D1200C3004308C60083120313C71D922EC609BF
:102D2200C60A4608C2004208C8073E08031DC71C5F
:102D3200A12E4D08C2003E08840042088313800081
:102D42004C08F3004B08F2004A08F1004908F00071
:102D520001300A168A1162200A168A117308831238
:102D62000313CC007208CB007108CA007008C900B6
:102D72004C08F3004B08F2004A08F1004908F00041
:102D82000030F7000030F6000030F5000030F400AB
:102D92000A128A15B0200A168A11031CDB2E003093
:102DA20083120313C1000030C0000030BF000030A6
:102DB200BE00080083120313C81F5D2FC809C80A8A
:102DC2004808803A763E031C2D2F5030F300153010
:102DD200F2000230F100F930F0004C08F7004B0825
:102DE200F6004A08F5004908F4000A168A11AE21D5
:102DF2000A168A11730883120313CC007208CB00DF
:102E02007108CA007008C900F630C2004208C8073B
:102E1200E12E4130F3002030F2000030F1000030AA
:102E2200F0004C08F7004B08F6004A08F500490884
:102E3200F4000A168A11AE210A168A117308831247
:102E42000313CC007208CB007108CA007008C900D5
:102E5200FF30C2004208C8074808031D0A2F4C0869
:102E6200F3004B08F2004A08F1004908F000003074
:102E7200F7008030F6000030F5000030F4000A164A
:102E82008A156D270A168A110318DE2F831203137F
:102E9200471C542F8030C1008030C0000030BF007A
:102EA2000030BE0008000030C1008030C000003099
:102EB200BF000030BE0008004808803A7F3E031879
:102EC200862FDE2F5030A7001530A6000230A50055
:102ED200F930A4004C08AB004B08AA004A08A9002C
:102EE2004908A8000A128A15A2210A168A11831219
:102EF20003132708CC002608CB002508CA002408A3
:102F0200C900F630C2004208C8070A304802031C52
:102F1200AE2F632F4130A7002030A6000030A5005D
:102F22000030A4004C08AB004B08AA004A08A900D4
:102F32004908A8000A128A15A2210A168A118312C8
:102F420003132708CC002608CB002508CA00240852
:102F5200C900FF30C2004208C8074808031D8B2F72
:102F62007F30F3007F30F200FF30F100FF30F000DD
:102F72004C08F7004B08F6004A08F5004908F4002F
:102F82000A168A156D270A168A110318DE2F831274
:102F92000313471CD52F8030C1008030C0000030A1
:102FA200BF000030BE0008000030C1008030C00009
:102FB2000030BF000030BE00080083120313471C1C
:102FC200F72F4C08F3004B08F2004A08F1004908B9
:102FD200F0000A128A110620730883120313CC0030
:102FE2007208CB007108CA007008C9004C08C10001
:0E2FF2004B08C0004A08BF004908BE00080096
:10388200F100F0013A30710203184D2C3030710210
:10389200031C4D2CF001F00A700C0800F300F20139
:1038A200731C572C7008F1007108F2070310F00D19
:1038B2000310F30C7308031D512C72080800F10069
:1038C200F001F00A203071060319702C0E307102DB
:1038D20003186F2C093071020318702CF001700C60
:1038E200080083120313D300BE0153080A168A117B
:1038F2005825831203134108D1004008D0003F0825
:10390200CF003E08CE000800F401F501701C8F2C98
:103912007208F4070318F50A7308F507013003105B
:10392200F20DF30DFF3E031D902C01300310F10C3C
:10393200F00CFF3E031D972C70087104031D872CA9
:103942007508F1007408F000080080308312031338
:10395200E9066D08D5006C08D4006B08D3006A082C
:10396200D2006908D9006808D8006708D70066083D
:10397200D6000A128A113220831203135508E90075
:103982005408E8005308E7005208E60008007008EF
:1039920071040319F52CF501F50AF11BDC2C013039
:1039A2000310F00DF10DFF3E031DD12C0130F40088
:1039B2007408F507CE2C71087302031DE22C7008FF
:1039C2007202031CEA2C7008F2027108031CF30352
:1039D200F30201300310F10CF00CFF3E031DEB2C3F
:1039E2000130F502031DDC2C7308F1007208F000AF
:1039F2000800C5300A168A1101200A168A15C53038
:103A02000A168A1572240A168A158312031351089C
:103A120083160313D2008312031350088316031371
:103A2200D100831203134F0883160313D0008312AD
:103A320003134E0883160313CF00C53083120313FA
:103A4200EE006E0883160313A0005208A40051086A
:103A5200A3005008A2004F08A10091300A128A1157
:103A620061220A128A110028FB01FC017608770400
:103A720003196C2DFD01FD0AF71B4B2D01300310BC
:103A8200F60DF70DFF3E031D402D0130FA007A08B6
:103A9200FD073D2D01300310FB0DFC0DFF3E031D04
:103AA2004C2D77087902031D582D76087802031CE5
:103AB200612D7608F8027708031CF903F9027B14DA
:103AC20001300310F70CF60CFF3E031D622D01308E
:103AD200FD02031D4B2D7C08F7007B08F600080051
:103AE2000030FC000030FB000030FA000030F9002A
:103AF200701C8F2D7408F907750803110318013E15
:103B0200031DFA07760803110318013E031DFB0784
:103B1200770803110318013E031DFC070130F8006A
:103B22000310F40DF50DF60DF70DF80B912D013084
:103B32000310F30CF20CF10CF00CFF3E031D992D57
:103B42007308720471047004031D792D7C08F3005C
:103B52007B08F2007A08F1007908F0000800F6010B
:103B6200F31FBA2DF209F309F20A0319F30AF60157
:103B7200F60AF11FC12DF009F109F00A0319F10A41
:103B8200700871040319EE2DF501F50AF11BD52D0C
:103B920001300310F00DF10DFF3E031DCA2D01305F
:103BA200F4007408F507C72D71087302031DDB2D9D
:103BB20070087202031CE32D7008F2027108031CE4
:103BC200F303F30201300310F10CF00CFF3E031D6E
:103BD200E42D0130F502031DD52D76080319F62DCB
:103BE200F209F309F20A0319F30A7308F1007208E1
:103BF200F0000800730872047104700403193E2E69
:103C0200F901F90AF31B132E0130F8000310F00D2D
:103C1200F10DF20DF30DF80B072E0130F8007808C4
:103C2200F907032E73087702031D212E720876020C
:103C3200031D212E71087502031D212E70087402C6
:103C4200031C312E7008F4027108031C710FF50277
:103C52007208031C720FF6027308031C730FF7023B
:103C620001300310F30CF20CF10CF00CFF3E031DBB
:103C7200322E0130F902031D132E7708F300760865
:103C8200F2007508F1007408F000080083120313B3
:103C9200A101F81F532EF709F809F70A0319F80AC8
:103CA200A101A10AFA1F5E2EF909FA09F90A0319FC
:103CB200FA0A0130FB007B08A106A201A3017708E2
:103CC20078040319952EA001A00AF81B742E013066
:103CD2000310F70DF80DFF3E031D692E0130FB00A6
:103CE2007B08A007662E01300310A20DA30DFF3E34
:103CF200031D752E78087A02031D812E770879023A
:103D0200031C8A2E7708F9027808031CFA03FA02C8
:103D1200221401300310F80CF70CFF3E031D8B2E0A
:103D22000130A002031D742E210803199D2EA20941
:103D3200A309A20A0319A30A2308F8002208F7001C
:103D420008000030FC000030FB000030FA000030B8
:103D5200F90073087204710470040319F72EFD014F
:103D6200FD0AF31BC22E0130F8000310F00DF10D15
:103D7200F20DF30DF80BB62E0130F8007808FD07AE
:103D8200B22E0130F8000310F90DFA0DFB0DFC0DF7
:103D9200F80BC42E73087702031DD92E720876021F
:103DA200031DD92E71087502031DD92E70087402E5
:103DB200031CEA2E7008F4027108031C710FF5024D
:103DC2007208031C720FF6027308031C730FF702CA
:103DD200791401300310F30CF20CF10CF00CFF3EDD
:103DE200031DEB2E0130FD02031DC22E7C08F300E1
:103DF2007B08F2007A08F1007908F000080003104D
:103E020083120313530D540DD5005508DB005B08D4
:103E1200031D142F0030D4000030D3000030D20034
:103E22000030D10008005108D5005208D6005308CE
:103E3200D7005408D8001F300310D80CD70CD60C6A
:103E4200D50CFF3E031D1D2F5508D9005908DA0075
:103E5200D317FF30D105FF30D205FF30D305003034
:103E6200D4059630DB02DB1F4B2F5B08803A973E6E
:103E7200031C0B2F01300310D40CD30CD20CD10C29
:103E8200FF3E031D3C2F0130D5005508DB07031907
:103E92005E2F3B2F20305B0203180B2F5B080319A8
:103EA2005E2F0130D5000310D10DD20DD30DD40DEC
:103EB200D50B542F0130DB024F2F5A08031908008B
:103EC200D109D209D309D409D10A0319D20A031993
:103ED200D30A0319D40A080000307005F800003034
:103EE2007105F90080307205FA007F307305FB001E
:103EF2007B087A0479047804031D872F0030F300CD
:103F02000030F2000030F1000030F00000307405A3
:103F1200F80000307505F90080307605FA007F3030
:103F22007705FB007B087A0479047804031DA12F2E
:103F32000030F7000030F6000030F5000030F400E9
:103F4200F31FC72F0030F8000030F9000030FA00EC
:103F52008030FB007008F8027108031C710FB22F49
:103F6200B32FF9027208031C720FB82FB92FFA028D
:103F72007308031C730FBE2FBF2FFB027B08F300D5
:103F82007A08F2007908F1007808F000F71FED2FA7
:103F92000030F8000030F9000030FA008030FB00F9
:103FA2007408F8027508031C750FD82FD92FF9026F
:103FB2007608031C760FDE2FDF2FFA027708031C28
:103FC200770FE42FE52FFB027B08F7007A08F60053
:103FD2007908F5007808F4008030F3068030F7069F
:103FE20077087302031D080076087202031D080099
:0E3FF20075087102031D0800740870020800B3
:02400E003A3F37
:00000001FF
