:060000000A128A11EC2F28
:100D34007E088A007F0882009A260A128A1180009F
:100D4400840A04087D0603190034FF0A0319FE0A05
:100D54009E2E42344C3449344E344B342034353492
:100D64002034543449344D34453453342E3400340F
:100D740044344F344E344534213421342134003446
:100D8400F00070088600091489100915F801F901AA
:100D94007908803AFF0080307F02031DD32E64302F
:100DA4007802031808008312031309110130F807AD
:100DB4000318F90A0030F907CA2EF00070088312EC
:100DC40003138600091089100915F801F90179083F
:100DD400803AFF0080307F02031DF22E64307802D7
:100DE400031808008312031309110130F8070318CC
:100DF400F90A0030F907E92E0A128A1160270A124B
:100E04008A110B30F7002630F6005D30F500F50B43
:100E1400092FF60B092FF70B092F102F0A128A112D
:100E24002A270A128A110A128A1160270A128A11C1
:100E34000B30F7002630F6005D30F500F50B202F5F
:100E4400F60B202FF70B202F272F0A128A110028C8
:100E5400F301F40183160313870183120714063088
:100E6400F2001330F100AD30F000F00B372FF10B2E
:100E7400372FF20B372F3E2F831203130710063040
:100E8400F2001330F100AD30F000F00B472FF10BFE
:100E9400472FF20B472F4E2F0130F3070318F40AA4
:100EA4000030F4077408803AFF0080307F02031D8D
:100EB4005D2F05307302031808002C2F20308400A6
:100EC4003930F1000408F2000F30F3007108840097
:100ED40083130008F400F10A720884007408800087
:100EE400F20AF30B682F2F3084004830F100040815
:100EF400F2000830F3007108840083130008F40042
:100F0400F10A7208840074088000F20AF30B7D2F42
:100F140083160313860107309F00890138300A12B3
:100F24008A11DF260A128A1180300A128A11DF26FA
:100F34000A128A110E300A128A11DF260A128A1145
:100F440001300A128A11DF260A128A11831203134E
:100F540050085104031DCE2FB701B8013708203EB5
:100F64008400831300080319C92F3708203E840026
:100F740000080A128A11C2260A128A110130831249
:100F84000313B7070318B80A0030B807B02F0130AD
:100F9400D0000030D1000800B701B80137082F3E57
:100FA4008400831300080319E92F37082F3E8400B7
:100FB40000080A128A11C2260A128A110130831209
:100FC4000313B7070318B80A0030B807D02FD001AD
:100FD400D101080083135030FD000630FE00AB3011
:100FE400FF00393084000A128A119E26D001D101F3
:0C0FF400F801F90183010A128A11FE2E97
:00000001FF
