:020000040000FA
:04000000ADEF3EF032
:107D5A000001E8EF3EF0076E07C083FF849084922B
:107D6A008484000E026E010E016ECCEC3EF0849407
:107D7A001200076E07C083FF848084928484000EF9
:107D8A00026E010E016ECCEC3EF084941200000EDD
:107D9A00046E000E036E10D0000E066E000E056E05
:107DAA00054A062A06BEFCD7065004E1870E055C82
:107DBA00D8A0F6D7034A042A0150035C025004589B
:107DCA00D8B01200E9D7000E956E0A0EC16E000EE9
:107DDA00966E000E026E320E016ECCEC3EF0380E3C
:107DEA00B0EC3EF0000E026E320E016ECCEC3EF0AC
:107DFA000E0EB0EC3EF0000E026E0F0E016ECCECD1
:107E0A003EF0010EB0EC3EF0000E026E0F0E016E57
:107E1A00CCEC3EF0060EB0EC3EF0000E026E0F0EF9
:107E2A00016ECCEC3EF0810EB0EC3EF0000E026E1C
:107E3A00320E016ECCEC3EF04C0EBEEC3EF0000E63
:107E4A00026E320E016ECCEC3EF04F0EBEEC3EF0EE
:107E5A00000E026E320E016ECCEC3EF0470EBEEC06
:107E6A003EF0000E026E320E016ECCEC3EF0530E66
:107E7A00BEEC3EF0000E026E320E016ECCEC3EF00D
:107E8A00550EBEEC3EF0000E026E320E016ECCECC8
:107E9A003EF04E0EBEEC3EF0000E026E320E016E49
:107EAA00CCEC3EF0140EBEEC3EF0530EBEEC3EF0AF
:107EBA00000E026E320E016ECCEC3EF0590EBEEC94
:107ECA003EF0000E026E320E016ECCEC3EF0530E06
:107EDA00BEEC3EF0000E026E320E016ECCEC3EF0AD
:107EEA00540EBEEC3EF0000E026E320E016ECCEC69
:107EFA003EF0450EBEEC3EF0000E026E320E016EF2
:107F0A00CCEC3EF04D0EBEEC3EF0000E026E320E90
:107F1A00016ECCEC3EF0530EBEEC3EF0000E026E4B
:107F2A00320E016ECCEC3EF0C10EB0EC3EF0500EBB
:107F3A00BEEC3EF0000E026E320E016ECCEC3EF04C
:107F4A00490EBEEC3EF0000E026E320E016ECCEC13
:107F5A003EF0430EBEEC3EF0000E026E320E016E93
:107F6A00CCEC3EF0140EBEEC3EF0000E026E320E69
:107F7A00016ECCEC3EF0310EBEEC3EF0000E026E0D
:107F8A00320E016ECCEC3EF0380EBEEC3EF0000E26
:107F9A00026E320E016ECCEC3EF0460EBEEC3EF0A6
:107FAA00000E026E0F0E016ECCEC3EF0340EBEECEB
:107FBA003EF0000E026E320E016ECCEC3EF0350E33
:107FCA00BEEC3EF0000E026E320E016ECCEC3EF0BC
:107FDA00320EBEEC3EF0000E026E320E016ECCEC9A
:107FEA003EF0300EBEEC3EF0000E026E320E016E16
:067FFA00CCEC3EF0FFD7C5
:020000040020DA
:08000000FFFFFFFFFFFFFFFF00
:020000040030CA
:0E000000FF021F1EFF8381FF0FC00FE00F40A5
:00000001FF
