:020000040000FA
:060000000A128A11F02F24
:100C700000300A128A116E260A128A1101300A12F5
:100C80008A116E2608007E088A007F0882004326AB
:100C90000A128A118000840A04087D0603190034B0
:100CA000FF0A0319FE0A472EF000701C5B2E831208
:100CB000031306165E2E831203130612F01C622E17
:100CC0008616632E8612701D672E0617682E061371
:100CD000F01D6C2E8617080086130800F30083129F
:100CE0000313061073080A128A1154260A128A1175
:100CF0008312031306151A30F200F830F100F10BDD
:100D00007F2EF20B7F2E00008312031306110800C2
:100D1000543448344934533420344934533420341F
:100D20005534503445344E34443452344134003414
:100D3000483445344C344C344F342134213421343C
:100D4000213421342134003483120313A200A00182
:100D5000A10120082207FD007D08840083130008FC
:100D60000319080020082207FD007D088400000800
:100D70000A128A11C6260A128A110130831203133D
:100D8000A0070318A10A0030A107A92EF4007408D7
:100D90000F39F1007108F2007408F039F1007108A0
:100DA000F3008312031306147308F10004300310D8
:100DB000F10CFF3E031DD72E71080A128A1154262A
:100DC0000A128A11831203130615061172080A12F9
:100DD0008A11542683120313061506110800F70022
:100DE0007703031D142F74087F3EF5007508FA0081
:100DF0007A08F50004300310F50CFF3E031DFB2EAE
:100E00007508F6007608F8007A080F39F5007508BD
:100E1000F90078080A128A116E260A128A117908D6
:100E20000A128A116E26080002307706031D080098
:100E30007408BF3EF5007508FA007A08F500043022
:100E40000310F50CFF3E031D202F7508F6007608F1
:100E5000F8007A080F39F5007508F90078080A12C9
:100E60008A116E260A128A1179080A128A116E26D0
:100E7000080000300A128A1154260A128A1103301F
:100E80000A128A116E260A128A112130F500763074
:100E9000F400F40B492FF50B492F000003300A1220
:100EA0008A116E260A128A114830F5006C30F4005F
:100EB000F40B582FF50B582F000003300A128A113B
:100EC0006E260A128A1102300A128A116E260A123E
:100ED0008A1102300A128A116E260A128A1108300B
:100EE0000A128A116E260A128A1100300A128A1119
:100EF0006E260A128A110C300A128A116E260A1204
:100F00008A1100300A128A116E260A128A110630DE
:100F10000A128A116E2608003B3084005730831273
:100F20000313A7000408A8000C30A90027088400B8
:100F300083130008AA00A70A280884002A08800052
:100F4000A80AA90B962F2B3084004730A70004086D
:100F5000A8001030A9002708840083130008AA0005
:100F6000A70A280884002A088000A80AA90BAB2F2A
:100F70008316031386010A128A1139270A128A116D
:100F80000A128A1138260A128A11F401F40A013071
:100F90000A128A11EF260A128A113B300A128A11AC
:100FA000A4260A128A11F401F40A02300A128A11E4
:100FB000EF260A128A112B300A128A11A4260A126D
:100FC0008A11083083120313A9009D30A800053050
:100FD000A700A70BE92FA80BE92FA90BE92FC02F1A
:100FE00083136330FD000630FE008830FF00473079
:100FF00084000A128A11472683010A128A118C2F53
:02400E003A3F37
:00000001FF
