:020000040000FA
:100000000A128A11DC2F00308A000408840A820751
:100010000034013400340A34003464340034E834E9
:1000200003341034273406343C34043442347D34F1
:100030009F346A3442345C34903401344234603446
:100040004D34BB3440345134EC3447343E34DE3428
:100050008D341F34BB3406343C3404344234C03451
:1000600059348B3442347434043444344234F934D3
:100070009B344F3441340034003480343F342534D1
:1000800064342E3425346434003483160313DE00C4
:100090007108DF00E001E1016108F8006008F70085
:1000A0005F08F6005E08F50000300A168A157B2608
:1000B0000A128A11780883120317CA007708C90048
:1000C0007608C8007508C70002300A168A15002392
:1000D0000A128A11700883160313DE007108DF000C
:1000E000E001E1016108F8006008F7005F08F60030
:1000F0005E08F50000300A168A157B260A128A115E
:10010000780883120317CE007708CD007608CC005C
:100110007508CB0003300A168A1500230A128A11CB
:10012000700883160313DE007108DF00E001E101AF
:100130006108F8006008F7005F08F6005E08F50047
:1001400000300A168A157B260A128A117808831253
:100150000317D2007708D1007608D0007508CF00C9
:1001600004300A168A1500230A128A1170088316B1
:100170000313DE007108DF00E001E1016108F8000F
:100180006008F7005F08F6005E08F50000300A1608
:100190008A157B260A128A11780883120317D60063
:1001A0007708D5007608D4007508D3005608831266
:1001B0000313A30083120317550883120313A2002D
:1001C00083120317540883120313A1008312031729
:1001D000530883120313A000831203174A088312E3
:1001E0000313A70083120317490883120313A60001
:1001F00083120317480883120313A5008312031701
:10020000470883120313A4000A168A113E230A1218
:100210008A11831203132308D1002208D000210879
:10022000CF002008CE008312031756088312031351
:10023000A30083120317550883120313A20083122D
:100240000317540883120313A100831203175308E2
:1002500083120313A000831203174A0883120313A7
:10026000A70083120317490883120313A600831201
:100270000317480883120313A500831203174708C6
:1002800083120313A4000A168A113E230A128A114C
:10029000831203132308D5002208D4002108D300B9
:1002A0002008D2000A128A15EB240A128A1183123E
:1002B0000313510883120317A2008312031350087B
:1002C00083120317A100831203134F08831203172D
:1002D000A000831203134E08831203179F005208D5
:1002E00083120313A300831203175108831203130D
:1002F000A20083120317500883120313A100831274
:1003000003174F0883120313A00083120317460834
:1003100083120313A70083120317450883120313E4
:10032000A60083120317440883120313A500831247
:100330000317430883120313A4000A168A113E23ED
:100340000A128A11831203132308D1002208D00055
:100350002108CF002008CE00831203175208831211
:100360000313A30083120317510883120313A2007F
:1003700083120317500883120313A100831203177B
:100380004F0883120313A000831203174608831239
:100390000313A70083120317450883120313A60053
:1003A00083120317440883120313A5008312031753
:1003B000430883120313A4000A168A113E230A126B
:1003C0008A11831203132308D5002208D4002108C0
:1003D000D3002008D2000A128A15EB240A128A11CF
:1003E00083120313510883120317A6008312031309
:1003F000500883120317A500831203134F088312BA
:100400000317A400831203134E0883120317A300DB
:10041000220883120313A3008312031721088312F7
:100420000313A20083120317200883120313A100F1
:10043000831203171F0883120313A00083120317EC
:10044000260883120313A7008312031725088312BB
:100450000313A60083120317240883120313A500B5
:1004600083120317230883120313A4000A168A11A8
:100470003E230A128A1183120313230883120317DF
:10048000AA0083120313220883120317A900831200
:100490000313210883120317A800831203132008F3
:1004A00083120317A7004E0883120313D10083128F
:1004B00003174D0883120313D000831203174C084F
:1004C00083120313CF00831203174B088312031305
:1004D000CE00831203174E0883120313D500831234
:1004E00003174D0883120313D400831203174C081B
:1004F00083120313D300831203174B0883120313D1
:10050000D2000A128A15EB240A128A1183120313ED
:100510005108A3005008A2004F08A1004E08A000F7
:10052000831203172A0883120313A70083120317E9
:10053000290883120313A6008312031728088312C5
:100540000313A50083120317270883120313A400C3
:100550000A168A113E230A128A11831203132308F2
:1005600083160313A30083120313220883160313B5
:10057000A20083120313210883160313A100831220
:100580000313200883160313A0000A128A153B20C8
:100590000A128A1183160313230883120317AE006D
:1005A00083160313220883120317AD008316031367
:1005B000210883120317AC0083160313200883124B
:1005C0000317AB003F3083120313A3008030A20057
:1005D0000030A1000030A000831203172E08831200
:1005E0000313A700831203172D0883120313A60019
:1005F000831203172C0883120313A5008312031719
:100600002B0883120313A4000A168A113E230A1230
:100610008A1183120313230883120317DA0083124B
:100620000313220883120317D9008312031321082E
:1006300083120317D80083120313200883120317B1
:10064000D7005A0883120313B700831203175908FF
:1006500083120313B600831203175808831203137F
:10066000B50083120317570883120313B4008312D3
:100670000317460883120313BB00831203174508B0
:1006800083120313BA00831203174408831203135F
:10069000B90083120317430883120313B8000A1624
:1006A0008A119B210A128A118312031337088312BD
:1006B0000317DE0083120313360883120317DD00CD
:1006C00083120313350883120317DC00831203130C
:1006D000340883120317DB005E0883160313D90066
:1006E000831203175D0883160313D80083120317C0
:1006F0005C0883160313D700831203175B08831665
:100700000313D6000A168A15A2240A128A11831628
:100710000313590883120317E200831603135808C2
:1007200083120317E100831603135708831203177C
:10073000E00083160313560883120317DF004230CC
:1007400083120313D1006530D0002830CF00F6307B
:10075000CE0083120317620883120313D50083129D
:100760000317610883120313D40083120317600870
:1007700083120313D300831203175F08831203133A
:10078000D2000A128A15EB240A128A11831203136B
:10079000510883120317B200831203135008831207
:1007A0000317B100831203134F0883120317B0001D
:1007B000831203134E0883120317AF005A088312E3
:1007C0000313B70083120317590883120313B600EB
:1007D00083120317580883120313B50083120317FB
:1007E000570883120313B400831203174A088312B5
:1007F0000313BB0083120317490883120313BA00C3
:1008000083120317480883120313B90083120317D6
:10081000470883120313B8000A168A119B210A1293
:100820008A1183120313370883120317DE00831221
:100830000313360883120317DD00831203133508F0
:1008400083120317DC008312031334088312031787
:10085000DB005E0883160313D900831203175D08BB
:1008600083160313D800831203175C08831603133F
:10087000D700831203175B0883160313D6000A16EA
:100880008A15A2240A128A118316031359088312A7
:100890000317E20083160313580883120317E100BD
:1008A00083160313570883120317E00083160313FC
:1008B000560883120317DF00423083120313D1005E
:1008C0006530D0002830CF00F630CE0083120317F9
:1008D000620883120313D500831203176108831281
:1008E0000313D40083120317600883120313D30089
:1008F000831203175F0883120313D2000A128A15AA
:10090000EB240A128A11831203135108831203176E
:10091000B60083120313500883120317B500831225
:1009200003134F0883120317B400831203134E08F6
:1009300083120317B3005A0883120313B7008312FC
:100940000317590883120313B600831203175808BC
:1009500083120313B500831203175708831203137E
:10096000B400831203174E0883120313BB008312D3
:1009700003174D0883120313BA00831203174C08A0
:1009800083120313B900831203174B088312031356
:10099000B8000A168A119B210A128A1183120313C6
:1009A000370883120317DE008312031336088312FD
:1009B0000317DD0083120313350883120317DC00CD
:1009C00083120313340883120317DB005E088316B7
:1009D0000313D900831203175D0883160313D8008D
:1009E000831203175C0883160313D70083120317BF
:1009F0005B0883160313D6000A168A15A2240A126E
:100A00008A1183160313590883120317E200831611
:100A10000313580883120317E100831603135708C2
:100A200083120317E000831603135608831203177B
:100A3000DF00423083120313D1006530D00028302C
:100A4000CF00F630CE00831203176208831203131F
:100A5000D50083120317610883120313D400831295
:100A60000317600883120313D300831203175F0870
:100A700083120313D2000A128A15EB240A128A1178
:100A800083120313510883120317BA00831203134E
:100A9000500883120317B900831203134F088312FF
:100AA0000317B800831203134E0883120317B7000D
:100AB0005A0883120313B7008312031759088312CD
:100AC0000313B60083120317580883120313B500EB
:100AD00083120317570883120313B40083120317FA
:100AE000520883120313BB008312031751088312A9
:100AF0000313BA0083120317500883120313B900BB
:100B0000831203174F0883120313B8000A168A11C1
:100B10009B210A128A1183120313370883120317C9
:100B2000DE0083120313360883120317DD008312DD
:100B30000313350883120317DC00831203133408F0
:100B400083120317DB005E0883160313D900831298
:100B500003175D0883160313D800831203175C087C
:100B600083160313D700831203175B08831603133E
:100B7000D6000A168A15A2240A128A1183160313B4
:100B8000590883120317E2008316031358088312CF
:100B90000317E10083160313570883120317E000BD
:100BA00083160313560883120317DF0042308312A3
:100BB0000313D1006530D0002830CF00F630CE00CE
:100BC00083120317620883120313D50083120317DD
:100BD000610883120313D400831203176008831281
:100BE0000313D300831203175F0883120313D20089
:100BF0000A128A15EB240A128A1183120313510870
:100C000083120317BE0083120313500883120317C5
:100C1000BD00831203134F0883120317BC00831215
:100C200003134E0883120317BB005A0883120313E1
:100C3000B70083120317590883120313B6008312F7
:100C40000317580883120313B500831203175708BC
:100C500083120313B400831203175608831203137D
:100C6000BB0083120317550883120313BA008312C3
:100C70000317540883120313B90083120317530890
:100C800083120313B8000A168A119B210A128A11D3
:100C900083120313370883120317DE008312031332
:100CA000360883120317DD008312031335088312FD
:100CB0000317DC0083120313340883120317DB00CD
:100CC0005E0883160313D900831203175D08831689
:100CD0000313D800831203175C0883160313D7008D
:100CE000831203175B0883160313D6000A168A15AE
:100CF000A2240A128A1183160313590883120317B8
:100D0000E20083160313580883120317E1008316C9
:100D10000313570883120317E000831603135608C2
:100D200083120317DF00423083120313D1006530B2
:100D3000D0002830CF00F630CE00831203176208AF
:100D400083120313D5008312031761088312031360
:100D5000D40083120317600883120313D300831295
:100D600003175F0883120313D2000A128A15EB24BB
:100D70000A128A1183120313510883120317C20047
:100D800083120313500883120317C1008312031345
:100D90004F0883120317C000831203134E088312F7
:100DA0000317BF000A168A1526220A128A11F401B7
:100DB000F40A01300A168A15BB230A128A11103070
:100DC0000A168A1599220A128A1183120317320809
:100DD00083160313AD008312031731088316031320
:100DE000AC0083120317300883160313AB00831281
:100DF00003172F0883160313AA000A168A11052069
:100E00000A128A11083083160313DE005E08F4000C
:100E100001300A168A15BB230A128A1113300A16EA
:100E20008A1599220A128A1183120317360883162B
:100E30000313AD0083120317350883160313AC00A8
:100E400083120317340883160313AB0083120317AE
:100E5000330883160313AA000A168A1105200A1202
:100E60008A11F401F40A02300A168A15BB230A1209
:100E70008A1116300A168A1599220A128A118312CB
:100E800003173A0883160313AD00831203173908BA
:100E900083160313AC008312031738088316031359
:100EA000AB0083120317370883160313AA000A1630
:100EB0008A1105200A128A11083083160313DE00F6
:100EC0005E08F40002300A168A15BB230A128A1142
:100ED00019300A168A1599220A128A1183120317E9
:100EE0003E0883160313AD00831203173D088316D3
:100EF0000313AC00831203173C0883160313AB00E3
:100F0000831203173B0883160313AA000A168A11DB
:100F100005200A128A11273083160313E0000D30D2
:100F2000DF002530DE00DE0B932FDF0B932FE00B6D
:100F3000932F9A2F0A168A1526220A128A11F40173
:100F4000F40A01300A168A15BB230A128A111C30D2
:100F50000A168A1599220A128A1183120317420867
:100F600083160313AD00831203174108831603137E
:100F7000AC0083120317400883160313AB008312DF
:100F800003173F0883160313AA000A168A110520C7
:100F90000A128A11273083160313E0000D30DF0098
:100FA0002530DE00DE0BD22FDF0BD22FE00BD22F4D
:100FB000D92F0A168A15BA2D83176F30FD001A3003
:100FC000FE004830FF00633084000A168A1558225C
:100FD0000A128A118313E930FD000830FE00063042
:100FE000FF00E63084000A168A1558228316031380
:100FF000E201E301E401E50183010A168A15602D8F
:10100C0045343D3400347808790403193628FD0141
:10101C00FD0AF91B1D2801300310F80DF90DFF3ED8
:10102C00031D12280130FC007C08FD070F287908ED
:10103C007B02031D232878087A02031C2B287808CE
:10104C00FA027908031CFB03FB0201300310F90CB4
:10105C00F80CFF3E031D2C280130FD02031D1D283A
:10106C007B08F9007A08F80008008316031323089C
:10107C008039A4002408A8002308A4002407A50094
:10108C002508AE00A21B2E142E08A400A5012408CE
:10109C00B3002508B400FF302005B900FF3021054E
:1010AC00BA007F302205BB0000302305BC0033089A
:1010BC00340403196628BB17330A3404031D6E2845
:1010CC000030BC000030BB000030BA000030B9006A
:1010DC0033083404031D7B280030A3000030A20029
:1010EC000030A1000030A000080028080319972840
:1010FC000030B8004030B7000030B6000030B5000A
:10110C008030B704FF30B8042130E2000030E30037
:10111C003808A3003708A2003608A1003508A00043
:10112C000800330A3404031DAC287F30B80080302B
:10113C00B7000030B6000030B5003808A3003708FF
:10114C00A2003608A1003508A00008008130B307C2
:10115C000318B40AFF30B40733080139A40024087B
:10116C00AE000130FF00340DB40CB30CFF0BB928EA
:10117C007F30B3070318B40A0030B4070310390DDD
:10118C00AA003A0DAB003B0DAC003C0DAD0000309D
:10119C00BC000030BB000030BA000030B900013098
:1011AC00B2000030B1000030B0000030AF002E08AB
:1011BC000319E9280130A4000310AA0DAB0DAC0DE6
:1011CC00AD0DA40BE228A9011930290203186029DE
:1011DC002F08B9043008BA043108BB043208BC0427
:1011EC003C082D02031D04293B082C02031D042975
:1011FC003A082B02031D042939082A02031C292949
:10120C003908AA023A08031C3A0FAB023B08031C2C
:10121C003B0FAC023C08031C3C0FAD022F08B90776
:10122C00300803110318013E031DBA0731080311DE
:10123C000318013E031DBB07320803110318013EBE
:10124C00031DBC0739292F09A4003009A500310959
:10125C00A6003209A7002408B9052508BA052608F6
:10126C00BB052708BC052F08A4003008A5003108D1
:10127C00A6003208A70001300310A70CA60CA50C81
:10128C00A40CFF3E031D42292708B2002608B1001A
:10129C002508B0002408AF000130A4000310AA0DEB
:1012AC00AB0DAC0DAD0DA40B54290130A4002408DA
:1012BC00A907EA283908A4003A08A5003B08A600AB
:1012CC003C08A70001300310A70CA60CA50CA40C1D
:1012DC00FF3E031D69292708BC002608BB00250812
:1012EC00BA002408B90001303905AF0000303A05C6
:1012FC00B00000303B05B10000303C05B2003908AD
:10130C00A4003A08A5003B08A6003C08A700013041
:10131C000310A70CA60CA50CA40CFF3E031D8E29D4
:10132C002708BC002608BB002508BA002408B90011
:10133C002F08B907300803110318013E031DBA0723
:10134C00310803110318013E031DBB0732080311BA
:10135C000318013E031DBC073C1CD3293908A4000B
:10136C003A08A5003B08A6003C08A7000130031072
:10137C00A70CA60CA50CA40CFF3E031DBD29270829
:10138C00BC002608BB002508BA002408B9000130AF
:10139C00B3070318B40A0030B407FF303905B500A1
:1013AC00FF303A05B6007F303B05B70000303C05F6
:1013BC00B8003308A4002408AE002E18B7172E0866
:1013CC00A4000310240CA5002508B8007F30A4004D
:1013DC002408B8053808A3003708A2003608A10075
:1013EC003508A00008008316031341088312031369
:1013FC00B70083160313400883120313B600831639
:10140C0003133F0883120313B500831603133E081E
:10141C0083120313B4000A168A154E230A128A1576
:10142C0083120313370883160313C90083120313A3
:10143C00360883160313C80083120313350883166A
:10144C000313C70083120313340883160313C60057
:10145C003F30F3008030F2000030F1000030F0003B
:10146C004908F7004808F6004708F5004608F4005C
:10147C000A168A15E8250A128A150318542A2130EF
:10148C0083160313E2000030E3000030C10000308B
:10149C00C0000030BF000030BE00080083160313EC
:1014AC00410883120313D1008316031340088312DF
:1014BC000313D000831603133F0883120313CF00CA
:1014CC00831603133E0883120313CE0083160313F3
:1014DC00410883120313D5008316031340088312AB
:1014EC000313D400831603133F0883120313D30092
:1014FC00831603133E0883120313D2000A128A15B3
:10150C00EB240A128A15831203135108EB005008BE
:10151C00EA004F08E9004E08E8003F30EF00803049
:10152C00EE000030ED000030EC000A168A15BB22EC
:10153C000A128A15831203136B0883160313A30074
:10154C00831203136A0883160313A2008312031376
:10155C00690883160313A10083120313680883160A
:10156C000313A0000A128A153B200A128A1583164F
:10157C0003132308D1002208D0002108CF00200833
:10158C00CE00410883120313B700831603134008DF
:10159C0083120313B600831603133F08831203133D
:1015AC00B500831603133E0883120313B4000A1606
:1015BC008A154E230A128A158312031337088316D1
:1015CC000313C90083120313360883160313C800D0
:1015DC0083120313350883160313C70083120313F6
:1015EC00340883160313C6004908F3004808F200B8
:1015FC004708F1004608F0003F30F7003530F600A0
:10160C00C230F5008F30F4000A168A15E8250A124C
:10161C008A150318742B83160313510883120313B2
:10162C00B70083160313500883120313B6008316F6
:10163C0003134F0883120313B500831603134E08CC
:10164C0083120313B400831603134108831203138C
:10165C00BB0083160313400883120313BA008316CE
:10166C0003133F0883120313B900831603133E08B8
:10167C0083120313B8000A168A119B210A128A15C9
:10168C0083120313370883160313D5008312031335
:10169C00360883160313D4008312031335088316FC
:1016AC000313D30083120313340883160313D200DD
:1016BC005508AC005408AB005308AA005208A90006
:1016CC000A168A117525831603132C08C1002B08E2
:1016DC00C0002A08BF002908BE00080083160313A7
:1016EC004108F3004008F2003F08F1003E08F0000A
:1016FC000030F7000030F6000030F5000030F40048
:10170C000A168A15E8250A128A1503184D2C831619
:10171C000313510883120313B300831603135008E9
:10172C0083120313B200831603134F08831203139F
:10173C00B100831603134E0883120313B0000A166C
:10174C008A1531220A128A15831203133308BB003F
:10175C003208BA003108B9003008B80083160313F8
:10176C00410883120313B700831603134008831236
:10177C000313B600831603133F0883120313B5003B
:10178C00831603133E0883120313B4000A168A113E
:10179C009B210A128A15831203133708831603132D
:1017AC00D50083120313360883160313D400831257
:1017BC000313350883160313D30083120313340861
:1017CC0083160313D2005508AC005408AB00530821
:1017DC00AA005208A9000A168A1175250A128A1540
:1017EC00831603132C08CD002B08CC002A08CB0041
:1017FC002908CA003F3083120313EF00C930EE00F2
:10180C000F30ED00DB30EC00831603134D08831210
:10181C000313EB00831603134C0883120313EA0023
:10182C00831603134B0883120313E9008316031367
:10183C004A0883120313E8000A168A15BB220A12FF
:10184C008A15831203136B08B3006A08B200690887
:10185C00B1006808B0000A168A15312283120313EE
:10186C00330883160313C100831203133208831643
:10187C000313C00083120313310883160313BF0034
:10188C0083120313300883160313BE00080083165B
:10189C000313410883120313B70083160313400884
:1018AC0083120313B600831603133F08831203132A
:1018BC00B500831603133E0883120313B40083167A
:1018CC000313510883120313BB0083160313500830
:1018DC0083120313BA00831603134F0883120313E6
:1018EC00B900831603134E0883120313B8000A16AB
:1018FC008A119B210A128A15831203133708831647
:10190C000313D50083120313360883160313D40074
:10191C0083120313350883160313D30083120313A6
:10192C00340883160313D2005508AC005408AB00DE
:10193C005308AA005208A9000A168A1175250A1222
:10194C008A15831603132C08CD002B08CC002A080B
:10195C00CB002908CA004D0883120313EB00831631
:10196C0003134C0883120313EA00831603134B086A
:10197C0083120313E900831603134A08831203131B
:10198C00E8003F30EF00C930EE000F30ED00DB30E7
:10199C00EC000A168A15BB22831203136B088316FC
:1019AC000313C100831203136A0883160313C000C8
:1019BC0083120313690883160313BF0083120313E6
:1019CC00680883160313BE00080083120313510822
:1019DC008039D6005608DB005108D6005607D700D0
:1019EC005708E100D01B6114610803190A2D610A24
:1019FC00031D082D0030D1000030D0000030CF0086
:101A0C000030CE00D017122D0030D1000030D000A5
:101A1C000030CF000030CE0055088039D600560873
:101A2C00DB065508D6005607D7005708E000D41B34
:101A3C006014600803192F2D600A031D2D2D003032
:101A4C00D5000030D4000030D3000030D200D417C1
:101A5C00372D0030D5000030D4000030D3000030DA
:101A6C00D2006008031D6108031D452D0030D10014
:101A7C000030D0000030CF000030CE0008004E08FF
:101A8C00D6005608F00054080A168A15DD220A12F0
:101A9C008A15710883120313E7007008E6006608C4
:101AAC00D600D701D801D9015908DF005808DE004B
:101ABC005708DD005608DC006708D600D701D801AE
:101ACC00D9015908E5005808E4005708E300560806
:101ADC00E2004F08D6005608F00053080A168A1583
:101AEC00DD220A128A15710883120313E7007008AD
:101AFC00E6006608D600D701D801D9015608DC07E4
:101B0C00570803110318013E031DDD075808031184
:101B1C000318013E031DDE07590803110318013E8B
:101B2C00031DDF076708D600D701D801D901560875
:101B3C00E207570803110318013E031DE307580879
:101B4C0003110318013E031DE40759080311031880
:101B5C00013E031DE5075008D6005608F000520858
:101B6C000A168A15DD220A128A15710883120313CC
:101B7C00E7007008E6006608D600D701D801D90145
:101B8C005608DC07570803110318013E031DDD0737
:101B9C00580803110318013E031DDE0759080311F1
:101BAC000318013E031DDF076708D600D701D801D3
:101BBC00D9015608E207570803110318013E031D0B
:101BCC00E307580803110318013E031DE4075908E5
:101BDC0003110318013E031DE5070830D60003105E
:101BEC00DC0DDD0DDE0DDF0DD60BF52D4F08D6000F
:101BFC005608F00052080A168A15DD220A128A15B8
:101C0C00710883120313E7007008E6006608D6001B
:101C1C006708D700D801D9015608DC07570803110B
:101C2C000318013E031DDD07580803110318013E7C
:101C3C00031DDE07590803110318013E031DDF07BE
:101C4C004E08D6005608F00053080A168A15DD22F5
:101C5C000A128A15710883120313E7007008E60054
:101C6C006608D6006708D700D801D9015608DC07EA
:101C7C00570803110318013E031DDD075808031113
:101C8C000318013E031DDE07590803110318013E1A
:101C9C00031DDF070830D6000310DC0DDD0DDE0D53
:101CAC00DF0DD60B522E4E08D6005608F000520807
:101CBC000A168A15DD220A128A157108831203137B
:101CCC00E7007008E6006608D6006708D700D80160
:101CDC00D9015608DC07570803110318013E031DF0
:101CEC00DD07580803110318013E031DDE075908D0
:101CFC0003110318013E031DDF074F08D6005608D9
:101D0C00F00054080A168A15DD220A128A15710889
:101D1C0083120313E7007008E6006608D600670814
:101D2C00D700D801D9015608E20757080311031848
:101D3C00013E031DE307580803110318013E031D60
:101D4C00E407590803110318013E031DE507500869
:101D5C00D6005608F00053080A168A15DD220A121E
:101D6C008A15710883120313E7007008E6006608F1
:101D7C00D6006708D700D801D9015608E2075708E2
:101D8C0003110318013E031DE30758080311031840
:101D9C00013E031DE407590803110318013E031DFE
:101DAC00E5075008D6005608F00054080A168A15A4
:101DBC00DD220A128A15710883120313E7007008DA
:101DCC00E6006608D6006708D700D801D9010830AC
:101DDC000310D60DD70DD80DD90DFF3E031DEE2ED9
:101DEC005608E207570803110318013E031DE307C9
:101DFC00580803110318013E031DE4075908031189
:101E0C000318013E031DE5075C08D6005D08D700EA
:101E1C005E08D8005F08D90018300310D90CD80C14
:101E2C00D70CD60CFF3E031D132F5608E20757089C
:101E3C0003110318013E031DE3075808031103188F
:101E4C00013E031DE407590803110318013E031D4D
:101E5C00E5070830D6000310DC0DDD0DDE0DDF0DBF
:101E6C00D60B312F61086007D600D701D70D560865
:101E7C00823EE60057080318013EFF3EE700E41BD4
:101E8C00622F0130D6000310E20DE30DE40DE50DD9
:101E9C00D60B492FDF1B62140130D6000310DC0D6A
:101EAC00DD0DDE0DDF0DD60B542FFF30E6070318CA
:101EBC00E70AFF30E707452FE001DF1F7B2FFF30DC
:101ECC005C05D600FF305D05D700FF305E05D800FD
:101EDC007F305F05D900590858045704560403197C
:101EEC006218792F7B2FE001E00A60080319AD2FEF
:101EFC000130E207003003180130E307003003180B
:101F0C000130E407003003180130E507651CAD2FE4
:101F1C006208D6006308D7006408D8006508D900A9
:101F2C000130DA00590DD90CD80CD70CD60CDA0BC1
:101F3C00982F5908E5005808E4005708E3005608A4
:101F4C00E2000130E6070318E70A0030E7076708EC
:101F5C00803AFF0080307F02031DB62FFF306602EF
:101F6C00031CC32F7F3083120313E5008030E40081
:101F7C000030E3000030E200F32F831203136708F4
:101F8C00803AFF0080307F02031DCE2F01306602A5
:101F9C000318DC2F003083120313E5000030E4003B
:101FAC000030E3000030E200DB01F32F8312031357
:101FBC006608D6005608E100FF30E205FF30E30565
:101FCC007F30E4050030E5056118E4176108D600A0
:101FDC000310560CD7005708E5005B08D6005608CE
:101FEC00E5046508D1006408D0006308CF006208DE
:041FFC00CE0008000B
:10200A00831603132D08F3002C08F2002B08F100A5
:10201A002A08F0000A168A15F5240A168A11710888
:10202A0083160317E5007008E4006408F5006508E4
:10203A00F6000030F61BFF30F700F80001300A16F0
:10204A008A157B260A168A11780883120313EB0075
:10205A007708EA007608E9007508E8008316031392
:10206A002D0883120313EF00831603132C0883121F
:10207A000313EE00831603132B0883120313ED00D8
:10208A00831603132A0883120313EC000A168A150F
:10209A00BB220A168A11831203136B0883160317CD
:1020AA00E300831203136A0883160317E2008312FC
:1020BA000313690883160317E100831203136808E0
:1020CA0083160317E000373083160313AE002E0879
:1020DA0083120313E8008316031765088312031398
:1020EA00EA0083160317640883120313E9004230D7
:1020FA00D100C830D0000030CF000030CE008316A7
:10210A000317630883120313D500831603176208A3
:10211A0083120313D400831603176108831203136F
:10212A00D30083160317600883120313D2000A121E
:10213A008A15EB240A168A11831203135108EE003A
:10214A005008ED004F08EC004E08EB0090300A16DC
:10215A008A1520270A168A1190300A168A1599229A
:10216A000800831203136D0883160313A0000130BD
:10217A000310A00DFF3E031DBD280310200D83127E
:10218A0003136C0784000A128A1103200A168A11A3
:10219A0083160313A1000A128A1103200A168A1150
:1021AA00A2000A128A1103200A168A11A3000A122F
:1021BA008A1103200A168A11A4002408A8002308F9
:1021CA00A7002208A6002108A500831203136D08A0
:1021DA006E0403198229FF30ED070318EE0AFF3057
:1021EA00EE076D0883160313A00001300310A00D3B
:1021FA00FF3E031DFB280310200D831203136C07F7
:10220A0084000A128A1103200A168A1183160313FC
:10221A00A1000A128A1103200A168A11A2000A12C0
:10222A008A1103200A168A11A3000A128A110320AE
:10223A000A168A11A400240883120313A300831622
:10224A000313230883120313A2008316031322081D
:10225A0083120313A10083160313210883120313A5
:10226A00A00083160313280883120313D1008316D0
:10227A000313270883120313D000831603132608B7
:10228A0083120313CF008316031325088312031343
:10229A00CE006B08D5006A08D4006908D300680824
:1022AA00D2000A128A15EB240A168A118312031322
:1022BA005108A7005008A6004F08A5004E08A40020
:1022CA000A168A113E230A168A1183120313230857
:1022DA0083160313A8008312031322088316031319
:1022EA00A70083120313210883160313A60083127F
:1022FA000313200883160313E928831603132808F7
:10230A0083120313EB0083160313270883120313A4
:10231A00EA0083160313260883120313E9008316BF
:10232A000313250883120313E8000800831203131A
:10233A003B088039BC003C08C5003B08BC003C0790
:10234A00BD003D08CC00BA1B4C144C080319BB292C
:10235A004C0A031DB8290030BB000030BA00003017
:10236A00B9000030B800BA17BB01C3290030BB005E
:10237A000030BA000030B9000030B80037088039A0
:10238A00BC003C08C5063708BC003C07BD003D0838
:10239A00CD00B61B4D144D080319E1294D0A031D42
:1023AA00DE290030B7000030B6000030B50000303A
:1023BA00B400B617B701E9290030B7000030B600FB
:1023CA000030B5000030B400370836043504340450
:1023DA00031D082A0030BB000030BA000030B900E3
:1023EA000030B8008030BA047F30BB044508BC0016
:1023FA003C08BB043B08B7003A08B6003908B500E8
:10240A003808B40008004C08031D142A0030B7002D
:10241A000030B6000030B5000030B40008004C08A7
:10242A00BC00BD013D08BF004D083C02BE00031CB4
:10243A00BF033E087F3EC6003F080318013E003E28
:10244A00C7003B08C4003A08C3003908C20038086C
:10245A00C1000030BB000030BA000030B9000030C3
:10246A00B8000030CB000030CA000030C90000308C
:10247A00C800CD011A304D020318872A4D080319E6
:10248A00632A0130BC000310C10DC20DC30DC40D77
:10249A00BC0B482A0130BC000310B80DB90DBA0DA7
:1024AA00BB0DBC0B512ACB1B38140130BC000310E6
:1024BA00C80DC90DCA0DCB0DBC0B5C2A37084402E6
:1024CA00031D712A36084302031D712A3508420288
:1024DA00031D712A34084102031C822A4B1734084F
:1024EA00C1023508031C350FC2023608031C360F19
:1024FA00C3023708031C370FC4020130BC003C0872
:10250A00CD073F2A4408430442044104031D4814EA
:10251A00BA1BAA2A0130BC000310B80DB90DBA0DB6
:10252A00BB0DBC0B912ACB1B38140130BC00031025
:10253A00C80DC90DCA0DCB0DBC0B9C2AFF30C607AE
:10254A000318C70AFF30C7078D2ACD01CB1FC32A3C
:10255A00FF304805BC00FF304905BD00FF304A0581
:10256A00BE007F304B05BF003F083E043D043C04DB
:10257A0003193818C12AC32ACD01CD0A4D080319F7
:10258A00F52A0130B807003003180130B9070030C6
:10259A0003180130BA07003003180130BB073B1C8F
:1025AA00F52A3808BC003908BD003A08BE003B08C5
:1025BA00BF000130C0003F0DBF0CBE0CBD0CBC0CEF
:1025CA00C00BE02A3F08BB003E08BA003D08B9002C
:1025DA003C08B8000130C6070318C70A0030C7070D
:1025EA004708803AFF0080307F02031DFE2AFF3031
:1025FA004602031C0E2BFF3083120313C600003061
:10260A00C7000030BB000030BA000030B90000300B
:10261A00B800831203134708803AFF0080307F0214
:10262A00031D192B013046020318282B83120313AA
:10263A00C601C7010030BB000030BA000030B90043
:10264A000030B800C501831203134608BC003C08D9
:10265A00CC004C1C322BBA17362B7F30BC003C08FE
:10266A00BA054C08BC0003103C0CBD003D08BB0079
:10267A00FB298312031323088039A8002808F900CC
:10268A002308A8002807A9002908FB00A21B7B141D
:10269A007B0803195E2B7B0A031D5B2B0030A3000A
:1026AA000030A2000030A1000030A000A217A30150
:1026BA00662B0030A3000030A2000030A1000030D9
:1026CA00A00027088039A8002808FA007A087906A5
:1026DA00031D79172708A8002807A9002908FA0066
:1026EA00A61B7A147A080319882B7A0A031D852BEC
:1026FA000030A7000030A6000030A5000030A4007A
:10270A00A617A701902B0030A7000030A6000030C2
:10271A00A5000030A4007B087A020318D62B791F83
:10272A009A2B8030A8002808F9067B08A8002808F8
:10273A00FC007A08A8002808FB007C08A8002808E2
:10274A00FA002008A8002808FC002408A800280885
:10275A00A0007C08A8002808A4002108A8002808CE
:10276A00FC002508A8002808A1007C08A800280861
:10277A00A5002208A8002808FC002608A8002808A6
:10278A00A2007C08A8002808A6002308A800280898
:10279A00FC002708A8002808A3007C08A80028082D
:1027AA00A700FC017A08A800A9012908AB007B0848
:1027BA002802AA00031CAB032B08803AFF008030D2
:1027CA007F02031DEA2B1A302A02031C272C8312CC
:1027DA00031323082204210420040319F62B0130D1
:1027EA00F72B0030A8002808FC000030A3000030B6
:1027FA00A2000030A1000030A0007A08A800280832
:10280A00FB002B2C7C1C142C7C0883120313A800BD
:10281A000310280C0138A9002908FC00162C031003
:10282A00FC0C831203132018FC170130A800230D97
:10283A00A30CA20CA10CA00CA80B1C2C0130A80004
:10284A002808FB077A087B02031C072C791B702CCB
:10285A007B08031D3B2C003083120313A3000030B6
:10286A00A2000030A1000030A00008008312031368
:10287A002408A007250803110318013E031DA10718
:10288A00260803110318013E031DA2072708031196
:10289A000318013E031DA307231C142D7C1C5E2C68
:1028AA007C08A8000310280C0138A9002908FC009C
:1028BA00602C0310FC0C2018FC170130A800230D13
:1028CA00A30CA20CA10CA00CA80B642C0130A8002C
:1028DA002808FB07142D831203132308803AFF00EC
:1028EA002708803A7F02031D842C26082202031D32
:1028FA00842C25082102031D842C24082002031895
:10290A00DC2CFF30A800FF30A900FF30AA00FF30FE
:10291A00AB002408AC002508AD002608AE00270845
:10292A00AF002008AC022108031C210F9D2C9E2C0D
:10293A00AD022208031C220FA32CA42CAE022308EA
:10294A00031C230FA92CAA2CAF022C08A8072D08B8
:10295A0003182D0FB12CB22CA9072E0803182E0F1D
:10296A00B72CB82CAA072F0803182F0AAB072B0875
:10297A00A3002A08A2002908A1002808A000803084
:10298A00A8002808F906FC09FC0A7C08031DEA2CA1
:10299A000130A007003003180130A10700300318E6
:1029AA000130A207003003180130A307EA2C2408DB
:1029BA00A0022508031C250FA1022608031C260FC6
:1029CA00A2022708031C270FA302230822042104BA
:1029DA002004031D122D7C08031D122D0030A300B4
:1029EA000030A2000030A1000030A0000800013031
:1029FA00A8000310A00DA10DA20DA30DA80BFE2C7B
:102A0A00FC1B20147C1C0B2D03140C2D0310FC0D35
:102A1A007B080319122D0130FB02A21FFC2CFA01BC
:102A2A00FC1F1F2D7C087F39031920181D2D1F2D0F
:102A3A00FA01FA0A7A080319522D0130A007003068
:102A4A0003180130A107003003180130A207003033
:102A5A0003180130A307231C522D2008A8002108BF
:102A6A00A9002208AA002308AB000130AC002B0DF4
:102A7A00AB0CAA0CA90CA80CAC0B3C2D2B08A30080
:102A8A002A08A2002908A1002808A0007B0A031925
:102A9A00522D0130A8002808FB077B0A031D7B087A
:102AAA00031D622D0030A3000030A2000030A100F7
:102ABA000030A0007B080319F9017B1C662DA217C0
:102ACA006A2D7F30A8002808A2057B08A8000310F9
:102ADA00280CA9002908A300F91F0800A317080059
:102AEA00831603132C0883120313B70083160313E8
:102AFA002B0883120313B600831603132A088312C2
:102B0A000313B50083160313290883120313B400B1
:102B1A000A168A154E230A168A11831203133708D6
:102B2A0083160313BD008312031336088316031397
:102B3A00BC0083120313350883160313BB008312E8
:102B4A000313340883160313BA003D0883120313D0
:102B5A00BB00831603133C0883120313BA008316BF
:102B6A0003133B0883120313B900831603133A08AD
:102B7A0083120313B8000030BF000030BE000030DB
:102B8A00BD000030BC000A168A1505240A168A11EF
:102B9A00031CDA2D003083160313AC000030AB009F
:102BAA000030AA000030A90008003F30F30080304E
:102BBA00F2000030F1000030F000831603133D08E4
:102BCA00F7003C08F6003B08F5003A08F4000A163C
:102BDA008A15E8250A168A110318F52D0130F62DF3
:102BEA000030FD007D0883160313B500350803196C
:102BFA00392E3D0883120313B700831603133C08CA
:102C0A0083120313B600831603133B0883120313BC
:102C1A00B500831603133A0883120313B4003F3036
:102C2A00BB008030BA000030B9000030B8000A1684
:102C3A008A119B210A168A118312031337088316F5
:102C4A000313BD0083120313360883160313BC0053
:102C5A0083120313350883160313BB00831203136D
:102C6A00340883160313BA003D0883120313D100F4
:102C7A00831603133C0883120313D000831603132D
:102C8A003B0883120313CF00831603133A088312F7
:102C9A000313CE00831603133D0883120313D500D2
:102CAA00831603133C0883120313D40083160313F9
:102CBA003B0883120313D300831603133A088312C3
:102CCA000313D2000A128A15EB240A168A118312F8
:102CDA000313510883160313B90083120313500810
:102CEA0083160313B800831203134F0883160313C2
:102CFA00B700831203134E0883160313B60039086C
:102D0A0083120313EB008316031338088312031389
:102D1A00EA0083160313370883120313E9008316A4
:102D2A000313360883120313E8002330FD007D08DD
:102D3A00EC000430ED000030EE000A168A11B620CD
:102D4A000A168A11831203136B0883160313B00041
:102D5A00831203136A0883160313AF008312031343
:102D6A00690883160313AE008312031368088316D7
:102D7A000313AD00390883120313EB008316031300
:102D8A00380883120313EA008316031337088312E1
:102D9A000313E90083160313360883120313E800AA
:102DAA000B30FD007D08EC000530ED000030EE0030
:102DBA000A168A11B6200A168A11831203136B089F
:102DCA0083160313B400831203136A0883160313CA
:102DDA00B30083120313690883160313B200831224
:102DEA000313680883160313B1003408831203130C
:102DFA00BB0083160313330883120313BA00831626
:102E0A000313320883120313B9008316031331081C
:102E1A0083120313B80083160313300883120313B3
:102E2A00B700831603132F0883120313B600831601
:102E3A0003132E0883120313B500831603132D08F8
:102E4A0083120313B4000A168A119B210A168A11E7
:102E5A00831203133708D1003608D0003508CF0093
:102E6A003408CE00831603133D0883120313D500DA
:102E7A00831603133C0883120313D4008316031327
:102E8A003B0883120313D300831603133A088312F1
:102E9A000313D2000A128A15EB240A168A11831226
:102EAA000313510883160313BD008312031350083A
:102EBA0083160313BC00831203134F0883160313EC
:102ECA00BB00831203134E0883160313BA00350896
:102EDA000319AA2F3D0883120313EB008316031369
:102EEA003C0883120313EA00831603133B08831278
:102EFA000313E900831603133A0883120313E80045
:102F0A003F30EF00C930EE000F30ED00DB30EC004F
:102F1A000A168A15BB220A168A11831203136B0832
:102F2A0083160313BD00831203136A08831603135F
:102F3A00BC0083120313690883160313BB008312B0
:102F4A000313680883160313BA002C08F3002B082E
:102F5A00F2002A08F1002908F0000030F7000030DA
:102F6A00F6000030F5000030F4000A168A15E8254C
:102F7A000A168A11031CCC2F831603133D08AC00D2
:102F8A003C08AB003B08AA003A08A90008008316CF
:102F9A0003133D0883120313B300831603133C087B
:102FAA0083120313B200831603133B08831203131D
:102FBA00B100831603133A0883120313B0000A16EA
:102FCA008A15312283120313330883160313AC00C4
:102FDA0083120313320883160313AB0083120313FD
:102FEA00310883160313AA008312031330088316C9
:062FFA000313A90008000A
:10344C0000300A168A157F220A168A1501300A16D0
:10345C008A157F22080083120313330832043104C7
:10346C003004031908008030B30608008030831242
:10347C0003139F008030831603139F0083120313E2
:10348C001F14080044343D34003443343D340034BC
:10349C0042343D34003441343D3400347E088A00DB
:1034AC007F08820054220A168A158000840A0408B8
:1034BC007D0603190034FF0A0319FE0A582AF0008E
:1034CC00701C6C2A8312031308166F2A83120313C1
:1034DC000812F01C732A8816742A8812701D782A18
:1034EC000817792A0813F01D7D2A881708008813FD
:1034FC000800F30083120313081173080A168A15C7
:10350C0065220A168A158312031388151A30F200E5
:10351C00F830F100F10B902AF20B902A0000831284
:10352C0003138811080083120313A200A001A10148
:10353C0020082207FD007D0884008317000803196A
:10354C00080020082207FD007D08840000080A16E8
:10355C008A1525230A168A15013083120313A00736
:10356C000318A10A0030A1079E2A8030831203138E
:10357C00EB066F08A3006E08A2006D08A1006C0892
:10358C00A0006B08A7006A08A6006908A5006808D7
:10359C00A4000A168A113E23831203132308EB009E
:1035AC002208EA002108E9002008E8000800F800D9
:1035BC00F401F5017008F200F3017208F6007308CB
:1035CC00F700781CEF2A7608F4070318F50A770839
:1035DC00F50701300310F60DF70DFF3E031DF02A21
:1035EC000310F80C7808031DE72A7508F10074081D
:1035FC00F0000800F4007408F20002300310F20D21
:10360C00FF3E031D042B0310720DF300730883128D
:10361C0003139F040D30F300FB30F200F20B142B5C
:10362C00F30B142B192B831203131F151F191C2BAF
:10363C001E08F100831603131E08F0000800F400A6
:10364C0074080F39F1007108F2007408F039F100B8
:10365C007108F3008312031308157308F10004308A
:10366C000310F10CFF3E031D362B71080A168A1548
:10367C0065220A168A15831203138815881172089D
:10368C000A168A15652283120313881588110800FF
:10369C00831203133708F3003608F2003508F100E3
:1036AC003408F0000030F7000030F6000030F50070
:1036BC000030F4000A168A15E8250A168A15031834
:1036CC000800831203133708B3003608B20035081C
:1036DC00B1003408B0000A168A1531228312031384
:1036EC003308B7003208B6003108B5003008B40012
:1036FC000800F501F601700871040319B62BF701E7
:10370C00F70AF11B952B01300310F00DF10DFF3E64
:10371C00031D8A2B0130F4007408F707872B013046
:10372C000310F50DF60DFF3E031D962B7108730269
:10373C00031DA22B70087202031CAB2B7008F20243
:10374C007108031CF303F302751401300310F10C20
:10375C00F00CFF3E031DAC2B0130F702031D952B23
:10376C007608F1007508F0000800F7007703031DD8
:10377C00E02B74087F3EF5007508FA007A08F50016
:10378C0004300310F50CFF3E031DC72B7508F60023
:10379C007608F8007A080F39F5007508F9007808F2
:1037AC000A168A157F220A168A1579080A168A15AE
:1037BC007F22080002307706031D08007408BF3E04
:1037CC00F5007508FA007A08F50004300310F50CC2
:1037DC00FF3E031DEC2B7508F6007608F8007A08FE
:1037EC000F39F5007508F90078080A168A157F223A
:1037FC000A168A1579080A168A157F2208000030E5
:10380C00831203133805C00000303905C100803025
:10381C003A05C2007F303B05C30043084204410413
:10382C004004031D212C0030BB000030BA000030D6
:10383C00B9000030B80000303C05C00000303D0538
:10384C00C10080303E05C2007F303F05C3004308F5
:10385C00420441044004031D3B2C0030BF000030E7
:10386C00BE000030BD000030BC003F083B06031D0D
:10387C00492C3E083A06031D492C3D083906031D08
:10388C00492C3C08380603194D2C0310080003146E
:10389C00080000300A168A1565220A168A150330AC
:1038AC000A168A157F220A168A152130F500763001
:1038BC00F400F40B5F2CF50B5F2C000003300A16A0
:1038CC008A157F220A168A154830F5006C30F400F0
:1038DC00F40B6E2CF50B6E2C000003300A168A15B7
:1038EC007F220A168A1502300A168A157F220A16BA
:1038FC008A1502300A168A157F220A168A15083094
:10390C000A168A157F220A168A1500300A168A159D
:10391C007F220A168A150C300A168A157F220A167F
:10392C008A1500300A168A157F220A168A15063067
:10393C000A168A157F220800831603135908C10042
:10394C005808C0005708BF005608BE000A128A1556
:10395C00F9210A168A15831603134108DD00400865
:10396C00DC003F08DB003E08DA005D08831203131D
:10397C00EB00831603135C0883120313EA0083160F
:10398C0003135B0883120313E900831603135A080D
:10399C0083120313E8003F30EF00C930EE000F3004
:1039AC00ED00DB30EC000A168A15BB2283120313E0
:1039BC006B0883160313D900831203136A0883164A
:1039CC000313D80083120313690883160313D7005B
:1039DC0083120313680883160313D6000800031020
:1039EC00720D730DF4007408FA007A08031D072D8C
:1039FC000030F3000030F2000030F1000030F00035
:103A0C0008007008F4007108F5007208F6007308DD
:103A1C00F7001F300310F70CF60CF50CF40CFF3EFE
:103A2C00031D102D7408F8007808F900F217FF3008
:103A3C00F005FF30F105FF30F2050030F30596304C
:103A4C00FA02FA1F3E2D7A08803A973E031CFE2C90
:103A5C0001300310F30CF20CF10CF00CFF3E031DC3
:103A6C002F2D0130F4007408FA070319512D2E2D57
:103A7C0020307A020318FE2C7A080319512D0130DC
:103A8C00F4000310F00DF10DF20DF30DF40B472DB6
:103A9C000130FA02422D790803190800F009F109E6
:103AAC00F209F309F00A0319F10A0319F20A0319CE
:103ABC00F30A0800003083120317B6000030B5007B
:103ACC000030B4000030B3000030BA000030B90050
:103ADC000030B8000030B7000030BE000030BD0030
:103AEC000030BC000030BB000030C2000030C10010
:103AFC000030C0000030BF006C0890006D089100D1
:103B0C006E089200690893006A0894006B0895008F
:103B1C006608960067089700680898006308990083
:103B2C0064089A0065089B008316031366088312C9
:103B3C0003179C00831603136708831203179D0059
:103B4C00831603136808831203179E00831603134E
:103B5C00880106140A168A153C220A168A150A16BA
:103B6C008A154F240A168A1500300A168A15002366
:103B7C000A168A15700883160313DE007108DF001D
:103B8C00E001E1016108F8006008F7005F08F60049
:103B9C005E08F50000300A168A157B260A168A156F
:103BAC00780883120317C6007708C5007608C4008E
:103BBC007508C30001300A168A15002370080A1212
:103BCC008A11452800307005F80000307105F900A5
:103BDC0080307205FA007F307305FB007B087A0495
:103BEC0079047804031D022E0030F3000030F2003B
:103BFC000030F1000030F00000307405F8000030A7
:103C0C007505F90080307605FA007F307705FB00EA
:103C1C007B087A0479047804031D1C2E0030F7000D
:103C2C000030F6000030F5000030F400F31F422E97
:103C3C000030F8000030F9000030FA008030FB0052
:103C4C007008F8027108031C710F2D2E2E2EF9022C
:103C5C007208031C720F332E342EFA027308031CE5
:103C6C00730F392E3A2EFB027B08F3007A08F20010
:103C7C007908F1007808F000F71F682E0030F80082
:103C8C000030F9000030FA008030FB007408F802B4
:103C9C007508031C750F532E542EF9027608031C5D
:103CAC00760F592E5A2EFA027708031C770F5F2EC7
:103CBC00602EFB027B08F7007A08F6007908F50005
:103CCC007808F4008030F3068030F706770873022A
:103CDC00031D080076087202031D080075087102A6
:103CEC00031D080074087002080083120313A0005F
:103CFC002008031DF81F922E7509A2007609A30057
:103D0C007709A4007809A500A20A0319A30A0319CC
:103D1C00A40A0319A50A9A2E7808A5007708A4000E
:103D2C007608A3007508A200780877047604750459
:103D3C00031DA92E0030F8000030F7000030F6000B
:103D4C000030F50008009630F9007908A100FE302B
:103D5C0025050319DA2E0130F9007908A107013085
:103D6C000310A50CA40CA30CA20CFF3E031DB62E35
:103D7C00AD2E0130F9007908A1070130A2070030FF
:103D8C0003180130A307003003180130A4070030DA
:103D9C0003180130A50701300310A50CA40CA30CCB
:103DAC00A20CFF3E031DD22EFF3025050319EE2E6B
:103DBC00BF2E02302102031CF02E0130A102013073
:103DCC00F9000310A20DA30DA40DA50DF90BE72E00
:103DDC00A41FDF2E2118FA2EFF30A205FF30A305F9
:103DEC007F30A405FF30A5050310A10C2108F900B4
:103DFC00FA01FB01FC0118300310F90DFA0DFB0D53
:103E0C00FC0DFF3E031D022F7908A2047A08A304BF
:103E1C007B08A4047C08A5042008031DF81F172F99
:103E2C00A5172508F8002408F7002308F600220837
:103E3C00F500080083160313A8006930A0002008C1
:103E4C00A300013083120313E807FF3068078400D6
:103E5C000A128A1103200A168A1583160313A0006E
:103E6C002008A90029080319FB2F2530290603195E
:103E7C004B2F2908A00028088400200883178000F5
:103E8C000130A0002008A807272FA40101308312BD
:103E9C000313E807FF30680784000A128A11032015
:103EAC000A168A1583160313A900A000A101210884
:103EBC00003A0319622F272F2008003A0319FB2F11
:103ECC00643A03196D2F0D3A03196D2F272F230810
:103EDC00840083130008A600840A0008A70002309F
:103EEC00A0002008A307A71F842F0330A0002008E0
:103EFC00A404A609A709A60A0319A70AA901A90AD5
:103F0C002908A0002007013E84000A128A11032010
:103F1C000A168A15A1000A128A1103200A168A159C
:103F2C00A20022082702031D9D2F21082602031C34
:103F3C00A72F0130A0002008A90705302906031D72
:103F4C00862F240803390319B62F2D30A00028081A
:103F5C0084002008831780000130A0002008A807E7
:103F6C002908A0002008A500FF30A0002008A50704
:103F7C00250A0319272F0A30F8000030F90025080C
:103F8C00A0002007013E84000A128A1103200A16A1
:103F9C008A15F0000A128A1103200A168A15F100FC
:103FAC002708F3002608F2000A168A157F230A1642
:103FBC008A157108FB007008FA000A128A1509208C
:103FCC000A168A157808303E83160313A1002108BF
:103FDC00A9002908A0002808840020088317800065
:103FEC000130A0002008A807BA2F280884008317E6
:043FFC008001080038
:02400E003A3F37
:00000001FF
