:020000040000FA
:060000000A128A11F02F24
:100182008030831203139F008030831603139F0075
:10019200831203131F1408007E088A007F0882005E
:1001A200CD200A128A118000840A04087D060319F0
:1001B2000034FF0A0319FE0AD128C0340034F9348E
:1001C2000034A4340034B03400349934003492340E
:1001D200003482340034F8340034803400349034F3
:1001E20000340D30F300FB30F200F20BF628F30B73
:1001F200F628FB28831203131F151F19FE281E0859
:10020200F100831603131E08F0000800F800F40141
:10021200F5017008F200F3017208F6007308F700A6
:10022200781C19297608F4070318F50A7708F507E8
:1002320001300310F60DF70DFF3E031D1A290310BE
:10024200F80C7808031D11297508F1007408F000F4
:1002520008007008710403195729F501F50AF11B0A
:100262003E2901300310F00DF10DFF3E031D33292D
:100272000130F4007408F507302971087302031D78
:10028200442970087202031C4C297008F20271089A
:10029200031CF303F30201300310F10CF00CFF3ED8
:1002A200031D4D290130F502031D3E297308F1009B
:1002B2007208F0000800F501F601700871040319D4
:1002C2009329F701F70AF11B722901300310F00D8F
:1002D200F10DFF3E031D67290130F4007408F70792
:1002E200642901300310F50DF60DFF3E031D73293D
:1002F20071087302031D7F2970087202031C88298A
:100302007008F2027108031CF303F3027514013042
:100312000310F10CF00CFF3E031D89290130F70296
:10032200031D72297608F1007508F0000800F60135
:10033200F31FA229F209F309F20A0319F30AF601DB
:10034200F60AF11FA929F009F109F00A0319F10AC5
:10035200700871040319D629F501F50AF11BBD29AC
:1003620001300310F00DF10DFF3E031DB2290130E3
:10037200F4007408F507AF2971087302031DC3293D
:1003820070087202031CCB297008F2027108031C68
:10039200F303F30201300310F10CF00CFF3E031DD6
:1003A200CC290130F502031DBD2976080319DE2987
:1003B200F209F309F20A0319F30A7308F100720849
:1003C200F0000800F601F11FED29F009F109F00A29
:1003D2000319F10AF601F60AF31FF829F209F309E3
:1003E200F20A0319F30A0130F4007408F606F70161
:1003F200F8017008710403192F2AF501F50AF11B9F
:100402000E2A01300310F00DF10DFF3E031D032AE9
:100412000130F4007408F507002A01300310F70DCB
:10042200F80DFF3E031D0F2A71087302031D1B2ADC
:1004320070087202031C242A7008F2027108031C5D
:10044200F303F302771401300310F10CF00CFF3EBA
:10045200031D252A0130F502031D0E2A7608031911
:10046200372AF709F809F70A0319F80A7808F10098
:100472007708F00008000310831203133C0D3D0DB2
:10048200BE003E08C4004408031D502A0030BD00CF
:100492000030BC000030BB000030BA0008003A084F
:1004A200BE003B08BF003C08C0003D08C1001F3031
:1004B2000310C10CC00CBF0CBE0CFF3E031D592A19
:1004C2003E08C2004208C300BC17FF30BA05FF3025
:1004D200BB05FF30BC050030BD059630C402C41F09
:1004E200872A4408803A973E031C472A01300310AA
:1004F200BD0CBC0CBB0CBA0CFF3E031D782A0130AC
:10050200BE003E08C40703199A2A772A2030440203
:100512000318472A440803199A2A0130BE0003101F
:10052200BA0DBB0DBC0DBD0DBE0B902A0130C4022D
:100532008B2A430803190800BA09BB09BC09BD0983
:10054200BA0A0319BB0A0319BC0A0319BD0A080037
:10055200F8007808031DF31FBE2A7009FA0071091A
:10056200FB007209FC007309FD00FA0A0319FB0A79
:100572000319FC0A0319FD0AC62A7308FD00720852
:10058200FC007108FB007008FA0073087204710421
:100592007004031DD52A0030F3000030F200003051
:1005A200F1000030F00008009630F4007408F90001
:1005B200FE307D050319062B0130F4007408F9079B
:1005C20001300310FD0CFC0CFB0CFA0CFF3E031D6A
:1005D200E22AD92A0130F4007408F9070130FA0737
:1005E200003003180130FB07003003180130FC070C
:1005F200003003180130FD0701300310FD0CFC0C24
:10060200FB0CFA0CFF3E031DFE2AFF307D05031989
:100612001A2BEB2A02307902031C1C2B0130F9023F
:100622000130F4000310FA0DFB0DFC0DFD0DF40B6F
:10063200132BFC1F0B2B7918262BFF30FA05FF30EA
:10064200FB057F30FC05FF30FD050310F90C79082E
:10065200F400F501F601F70118300310F40DF50D61
:10066200F60DF70DFF3E031D2E2B7408FA047508D4
:10067200FB047608FC047708FD047808031DF31FC9
:10068200432BFD177D08F3007C08F2007B08F10084
:100692007A08F000080083160313C801C901C001DB
:1006A200C101A0308400CA3083120313C5000408BC
:1006B200C6001430C7004508840083130008C80030
:1006C200C50A4608840048088000C60AC70B5C2B8E
:1006D20083160313870183120313870183160313FF
:1006E20088018312031388010A128A11C1200A1297
:1006F2008A11831603134108803AFF0080307F027B
:10070200031D852B32304002031CD32B02300A1208
:100712008A11F2200A128A11710883160313BF008C
:100722007008BE003E08F0003F08F100F201F3013C
:1007320000300A128A11A9220A128A11730883123E
:100742000313A7007208A6007108A5007008A40090
:100752003E30A300F930A200FF30A100F830A00023
:100762000A128A11DB240A128A1183120313230844
:10077200BD002208BC002108BB002008BA000A12F2
:100782008A113C220A128A11831203133B08831630
:100792000313C900831203133A0883160313C80014
:1007A200C001C101013083160313C0070318C10A37
:1007B2000030C1070A30F0000030F1004908F300B0
:1007C2004808F2000A128A1198210A128A11710845
:1007D20083160313B7007008B6000A30F000003029
:1007E200F1004908F3004808F2000A128A11E321D5
:1007F2000A128A11710883160313C3007008C2001B
:100802000A30F0000030F1004308F3004208F20021
:100812000A128A112A210A128A11710883160313F5
:10082200B9007008B8000A30F0000030F100430847
:10083200F3004208F2000A128A115C210A128A119C
:10084200710883160313C5007008C4000A30F00053
:100852000030F1004508F3004408F2000A128A1140
:100862002A210A128A11710883160313BB00700829
:10087200BA000A30F0000030F1004508F3004408E5
:10088200F2000A128A115C210A128A117108831677
:100892000313C7007008C6000A30F0000030F100F0
:1008A2004708F3004608F2000A128A112A210A12A6
:1008B2008A11710883160313BD007008BC000A3048
:1008C200F0000030F1004708F3004608F2000A1277
:1008D2008A115C210A128A11831603133C088312BF
:1008E2000313C5004507A03E840083130008880057
:1008F2000714213083120313C6007530C500C50BDF
:10090200802CC60B802C852C8312031307108316B0
:1009120003133A0883120313C5004507A03E84005F
:100922008313000888008817871421308312031369
:10093200C6007530C500C50B9C2CC60B9C2CA12C87
:1009420083120313871083160313380883120313C9
:10095200C5004507A03E84008313000888000715E0
:10096200213083120313C6007530C500C50BB72CA6
:10097200C60BB72CBC2C8312031307118316031367
:10098200360883120313C5004507A03E8400831373
:10099200000888008715213083120313C6007530C2
:1009A200C500C50BD22CC60BD22CD72C8312031335
:1009B20087117A2B8312031323088039A800280891
:1009C200AD002308A8002807A9002908B300A21B2C
:1009D200331433080319FA2C330A031DF82C0030A0
:1009E200A3000030A2000030A1000030A000A21736
:1009F200022D0030A3000030A2000030A100003020
:100A0200A00027088039A8002808AD062708A800FA
:100A12002807A9002908B200A61B321432080319BC
:100A22001F2D320A031D1D2D0030A7000030A60025
:100A32000030A5000030A400A617272D0030A70023
:100A42000030A6000030A5000030A4003208031DCB
:100A52003308031D352D0030A3000030A200003002
:100A6200A1000030A00008002008A8002808F0001B
:100A720026080A128A1107210A128A1171088312A2
:100A82000313B9007008B8003808A800A901AA0128
:100A9200AB012B08B1002A08B0002908AF002808D2
:100AA200AE003908A800A901AA01AB012B08B700C2
:100AB2002A08B6002908B5002808B4002108A800B1
:100AC2002808F00025080A128A1107210A128A1141
:100AD200710883120313B9007008B8003808A8001F
:100AE200A901AA01AB012808AE07290803110318BE
:100AF200013E031DAF072A0803110318013E031D1F
:100B0200B0072B0803110318013E031DB107390872
:100B1200A800A901AA01AB012808B40729080311FA
:100B22000318013E031DB5072A0803110318013EED
:100B3200031DB6072B0803110318013E031DB70757
:100B42002208A8002808F00024080A128A110721A6
:100B52000A128A11710883120313B9007008B800CF
:100B62003808A800A901AA01AB012808AE07290884
:100B720003110318013E031DAF072A0803110318CE
:100B8200013E031DB0072B0803110318013E031D8C
:100B9200B1073908A800A901AA01AB012808B407C6
:100BA200290803110318013E031DB5072A08031182
:100BB2000318013E031DB6072B0803110318013E5B
:100BC200031DB7070830A8000310AE0DAF0DB00D1E
:100BD200B10DA80BE52D2108A8002808F000240873
:100BE2000A128A1107210A128A1171088312031349
:100BF200B9007008B8003808A8003908A900AA018D
:100C0200AB012808AE07290803110318013E031D92
:100C1200AF072A0803110318013E031DB0072B0872
:100C220003110318013E031DB1072008A80028087C
:100C3200F00025080A128A1107210A128A11710886
:100C420083120313B9007008B8003808A8003908E5
:100C5200A900AA01AB012808AE072908031103184D
:100C6200013E031DAF072A0803110318013E031DAD
:100C7200B0072B0803110318013E031DB10708300A
:100C8200A8000310AE0DAF0DB00DB10DA80B422E92
:100C92002008A8002808F00024080A128A11072157
:100CA2000A128A11710883120313B9007008B8007E
:100CB2003808A8003908A900AA01AB012808AE0724
:100CC200290803110318013E031DAF072A08031167
:100CD2000318013E031DB0072B0803110318013E40
:100CE200031DB1072108A8002808F00026080A12EF
:100CF2008A1107210A128A11710883120313B9009B
:100D02007008B8003808A8003908A900AA01AB0188
:100D12002808B407290803110318013E031DB5076B
:100D22002A0803110318013E031DB6072B080311FD
:100D32000318013E031DB7072208A8002808F00087
:100D420025080A128A1107210A128A1171088312D0
:100D52000313B9007008B8003808A8003908A900C0
:100D6200AA01AB012808B407290803110318013EA0
:100D7200031DB5072A0803110318013E031DB60718
:100D82002B0803110318013E031DB7072208A80010
:100D92002808F00026080A128A1107210A128A116D
:100DA200710883120313B9007008B8003808A8004C
:100DB2003908A900AA01AB0108300310A80DA90D3A
:100DC200AA0DAB0DFF3E031DDE2E2808B40729082D
:100DD20003110318013E031DB5072A080311031866
:100DE200013E031DB6072B0803110318013E031D24
:100DF200B7072E08A8002F08A9003008AA0031085A
:100E0200AB0018300310AB0CAA0CA90CA80CFF3EC7
:100E1200031D032F2808B407290803110318013EF4
:100E2200031DB5072A0803110318013E031DB60767
:100E32002B0803110318013E031DB7070830A80051
:100E42000310AE0DAF0DB00DB10DA80B212F33085D
:100E52003207A800A901A90D2808823EB800290876
:100E62000318013EFF3EB900B61B522F0130A80005
:100E72000310B40DB50DB60DB70DA80B392FB11B6C
:100E820034140130A8000310AE0DAF0DB00DB10D3A
:100E9200A80B442FFF30B8070318B90AFF30B9076F
:100EA200352FB201B11F6B2FFF302E05A800FF3086
:100EB2002F05A900FF303005AA007F303105AB00B5
:100EC2002B082A042904280403193418692F6B2FCC
:100ED200B201B20A320803199D2F0130B407003063
:100EE20003180130B507003003180130B60700308F
:100EF20003180130B707371C9D2F3408A8003508A6
:100F0200A9003608AA003708AB000130AC002B0D4F
:100F1200AB0CAA0CA90CA80CAC0B882F2B08B700A1
:100F22002A08B6002908B5002808B4000130B8071D
:100F32000318B90A0030B9073908803AFF00803037
:100F42007F02031DA62FFF303802031CB32F7F3010
:100F520083120313B7008030B6000030B5000030B2
:100F6200B400E32F831203133908803AFF00803064
:100F72007F02031DBE2F013038020318CC2F003030
:100F820083120313B7000030B6000030B500003002
:100F9200B400AD01E32F831203133808A800280818
:100FA200B300FF30B405FF30B5057F30B605003021
:100FB200B7053318B6173308A8000310280CA90088
:100FC2002908B7002D08A8002808B7043708A3008D
:100FD2003608A2003508A1003408A00008008313D7
:100FE200DE30FD000030FE00DE30FF00CA3084003B
:0E0FF2000A128A11D12083010A128A114C2B97
:02400E003A3F37
:00000001FF
